:020000040800F2
:10000000D02C0020ED010008AB400008DD3B0008CB
:10001000A9400008390A00081F6500080000000018
:100020000000000000000000000000008144000803
:10003000C30B00080000000061440008FD440008F4
:10004000070200080702000807020008070200086C
:10005000070200080702000807020008070200085C
:10006000070200080702000807020008150B000835
:10007000070200080702000807020008070200083C
:10008000070200080000000007020008070200083D
:10009000B164000807020008070200080702000810
:1000A000070200087D450008070200080702000853
:1000B0008945000895450008070200080702000866
:1000C00007020008070200080702000807020008EC
:1000D00007020008070200080702000807020008DC
:1000E00007020008070200080702000807020008CC
:1000F00007020008070200080702000800000000CD
:1001000000000000070200080000000007020008CD
:1001100007020008000000000702000807020008AC
:10012000070200080702000807020008070200088B
:10013000070200080000000000000000070200089D
:10014000070200080702000800000000000000008D
:10015000000000000000000000000000000000009F
:10016000000000000000000000000000070200087E
:10017000070200080000000000000000000000006E
:10018000000000000702000800000000000000005E
:10019000000000000000000000000000000000005F
:1001A000000000000000000007020008070200082D
:1001B000070200080702000807020008000000000C
:1001C000000000000702000800000000000000001E
:1001D0000702000807020008DFF80CD000F020FB3F
:1001E000004800474D730008D02C00200648804787
:1001F00006480047FEE7FEE7FEE7FEE7FEE7FEE70C
:10020000FEE7FEE7FEE7FEE76D450008D9010008BE
:100210002DE9F05F0546002092469B46884606463B
:10022000814640241BE0284641464746224600F0CE
:1002300040FA53465A46C01A914110D31146184607
:10024000224600F027FA2D1A67EB01084F46224696
:100250000120002100F01EFA17EB00094E41201E7C
:10026000A4F10104DFDC484631462A464346BDE896
:10027000F09F40EA01039B0703D009E008C9121F61
:1002800008C0042AFAD203E011F8013B00F8013B50
:10029000521EF9D27047D2B201E000F8012B491E7C
:1002A000FBD270470022F6E710B513460A46044613
:1002B0001946FFF7F0FF204610BD2DE9FE4F80469E
:1002C00081EA0300C00F0C46009021F0004123F0AA
:1002D0000045B8EB0200A94105D2404621469046B0
:1002E0001C460B46024623F00040104347D0270D22
:1002F000C7F30A00C3F30A510290401A0190402844
:100300006BDAC3F3130040F4801B0098924620B1CF
:100310000023D2EB030A63EB0B0B01985946C0F1A3
:100320004002504600F0B6F906460D465046594682
:10033000019A00F0CEF910EB08006141002487EA31
:10034000115284EAE7731A4340D0009A62B3019ACB
:10035000012A4FEA075215DC001B61EB02014FF046
:10036000004202EA0752CDE90042001C41F580112B
:1003700032462B4600F005FA03B0BDE8F08F404648
:100380002146F9E7001B61EB0201001C41F58013D7
:1003900000185B412018A2F5001747EB030140EA63
:1003A000D570B6196D4111E06D084FEA360645EA81
:1003B000C0754FEA0752001B61EB0201001C41F5BA
:1003C000801149084FEA30000019514132462B464E
:1003D00003B0BDE8F04F00F0C5B90098012240001D
:1003E0000023D0EB020263EBE073009821464FEA52
:1003F000E074B8EB000061EB0401E9E783F000432F
:100400005BE781F0004158E72DE9FE4F81EA0304E4
:1004100004F0004421F0004100944FF0000B23F061
:10042000004350EA01045ED052EA03045BD0C3F3F8
:100430000A54C1F30A552C44A4F2F3340194A0FBEE
:100440000254C1F3130141F48011C3F3130343F4C5
:10045000801301FB024400FB034E840A970A44EA1E
:10046000815447EA8357A4FB076802958D0A05FB70
:1004700007854FEA932C04FB0C542705029D4FEA95
:10048000065847EA1637B5EB08056EEB070C870EE2
:10049000920E47EA811742EA8312A7FB0201B6EBEC
:1004A0000B0164EB00042B0D43EA0C335E1844EBA4
:1004B0001C50DA465146E7FB0201C5F313044FEA2C
:1004C0000B3343EA14534FEA0432019C43EA060318
:1004D000A4F10C040294009CCDE900B400F051F9A1
:1004E00003B0BDE8F08F00200146F9E72DE9F04D9B
:1004F00081EA030404F0004B21F0004514464FF05C
:10050000000A23F0004150EA050220D054EA01021B
:100510001DD0C5F30A570246C5F31303C1F31300F8
:10052000C1F30A5640F4801543F48013A7EB060884
:10053000101BD64608F2FD3873EB050002D308F114
:10054000010801E092185B41B8F1000F03DA0020C6
:100550000146BDE8F08D00204FF480110646844628
:100560000EE0171B73EB050705D3121B63EB0503A6
:1005700006434CEA010C49084FEA300092185B41EF
:1005800050EA0107EDD152EA030012D082EA0400DA
:1005900083EA0501084305D0101BAB4106D20122B6
:1005A000002306E000224FF0004302E06FF001025A
:1005B00053101AEB06004CEB085110EB0A0041EB0C
:1005C0000B01BDE8F04D00F0CDB80EB5C10F80EACB
:1005D000E0700844CA07002140F233438DE80E0062
:1005E0000A460B4600F0CDF803B000BD0EB540F250
:1005F000334102910021CDE900110A460B4600F07B
:10060000C0F803B000BD00F0004230F000400AD056
:10061000C10D01F56071C0F3160042EA0151C20834
:1006200040071143704700200146704730B5041E53
:1006300071F1000404DB4FF00044404264EB01011F
:10064000141E73F1000405DB1C464FF000435242B8
:1006500063EB04038B4208BF824230BD01F00043CC
:1006600030B421F0004150EA010206D00A0DA2F593
:100670006072C1F31301002A02DC30BC0020704715
:10068000440F44EAC104C100E01830BC00EBC25082
:1006900000F031B8202A04DB203A00FA02F10020F1
:1006A00070479140C2F1200320FA03F319439040B0
:1006B0007047202A04DB203A21FA02F0002170471B
:1006C00021FA02F3D040C2F12002914008431946BA
:1006D0007047202A06DBCB17203A41FA02F043EAA2
:1006E000E07306E041FA02F3D040C2F120029140EB
:1006F0000843194670470029A8BF7047401C4900AD
:1007000008BF20F00100704710B4B0FA80FC00FA76
:100710000CF050EA010404BF10BC704749B1CCF1A1
:10072000200421FA04F411FA0CF118BF012121432D
:100730000843A3EB0C01CB1D4FEA00614FEA1020E8
:1007400042BF002010BC704700EBC350104400298A
:10075000A4BF10BC7047401C490008BF20F0010036
:1007600010BC704710B5141E73F1000408DA401C69
:1007700041F1000192185B411A4301D120F00100C0
:1007800010BD2DE9F04D92469B4611B1B1FA81F2B0
:1007900002E0B0FA80F220329046FFF77BFF044679
:1007A0000F4640EA0A0041EA0B0153465A46084305
:1007B00013D0114653EA010019D0C8F14002504647
:1007C000FFF777FF05460E46504659464246FFF76B
:1007D00061FF084305D0012004E020463946BDE80A
:1007E000F08D0020054346EAE0762C4337430A9813
:1007F0006305E40AA0EB08000022FD0A44EA47541E
:100800000A3002D500200146E9E7010510196941C7
:10081000DDE9084500196941BDE8F04DA2E7000097
:10082000064C074D06E0E06840F0010394E807003D
:1008300098471034AC42F6D3FFF7D2FCD0780008CA
:10084000F078000870B5C1F30A5201F000450024A9
:10085000C1F3130140F2FF3341F480119A4201DAEF
:10086000002070BD40F233439A42A2F2334203DCCF
:100870005242FFF71EFF00E090402C43F1D040426F
:1008800070BD70B58C1810F8015B15F0070301D12D
:1008900010F8013B2A1106D110F8012B03E010F8E3
:1008A000016B01F8016B5B1EF9D12B0705D4002306
:1008B000521E0DD401F8013BFAE710F8013BCB1AA8
:1008C000921C03E013F8015B01F8015B521EF9D59D
:1008D000A142D8D3002070BD10B5846AE16D11F03B
:1008E000500F06D0E16DC90625D5204600F078FDF1
:1008F00010BDE06D40F40070E065206801680907F4
:1009000016D503F0B3F978B12068C06880040028D8
:100910000ADBE06D20F48070E065E06DC00403D474
:10092000E06D40F00100E065204600F057FD10BD8D
:10093000C0688007EBE7616D496BBDE81040084770
:1009400010B5806AC16D41F04001C165016E41F092
:100950000401016600F044FD10BD10B5806A00F08E
:100960003EFD10BD70B504460068816811F0010FAE
:100970002DD18168174A11421AD18168D543294087
:10098000491C816001F03EF906461BE0816811F0C8
:10099000010F03D181682940491C816001F032F9BF
:1009A000801B02280ED920680068C043C00709D008
:1009B000E06D40F01000E065206E40F00100206620
:1009C000012070BD20680168C943C907DED100203D
:1009D00070BD00003F00008012490020486006F012
:1009E0008FFD06F09FFB012251030F4801F005F92E
:1009F0000E4802F0A3FC0E4802F0A0FC0D4802F0E5
:100A00009DFC00BF06F04AFC06F026FC142000F016
:100A1000B9FF06F0AFFB06F063FC142000F0B2FF54
:100A2000F0E70000F8010020000400480403002063
:100A3000500300209C030020FEE7002070470020A8
:100A40007047000010B50C4804F036FB0A480B4A0A
:100A5000D0F8BC1200200B5C1354401CC0B2082814
:100A6000F9D307490820024608700449024804F0F7
:100A700036FB002010BD00008C070020290200205A
:100A8000280200200848B0EE001A90ED020A80ED1E
:100A9000060AD0ED030A00EE810ADFED040A20EE1B
:100AA000200A80ED070A70475C0C00203ACD133F06
:100AB000164830B4154980788979202814D0134A13
:100AC0002A28D4781379527912D02B280ED164F3C6
:100AD000070063F30F2062F3174061F31F6030BC1F
:100AE00000EE100A06F002BE0948016030BC7047F3
:100AF00064F3070063F30F2062F3174061F31F6094
:100B000030BC00EE100A06F0F7BD000029020020FC
:100B1000FC010020014800F031BE0000A4020020CA
:100B20000D4902688A4201D20C4901E00B4920318B
:100B3000D2B21423083AB2FBF3F2436C02F01F0264
:100B400023F003031944816404498031C164012105
:100B5000914001657047000008040240000802400F
:100B60000179074A02EB81024265054A4432491E77
:100B7000826501F01F0201219140C16570470000AC
:100B8000FC08024030B5D0E913456560446D14B1EE
:100B9000D0E91645656090F8444004F01F05012433
:100BA000AC40056C6C60046863608368102B03685C
:100BB00003D099600068C26030BD9A600068C1606F
:100BC00030BD704772B6FEE72849284891ED181AE3
:100BD000D1ED171A90F8400091ED150A71EE810AD7
:100BE000012821D091ED132A022822D0D1ED180A34
:100BF000D1ED142A032872EEA01A21D091ED122A09
:100C0000042824D0D1ED180AD1ED162A052872EE59
:100C1000A01A21D030EE220AF0EE410A30EE010A8D
:100C2000B0EE611A06F084BC30EE210A30EE010A03
:100C3000F8E7B0EE600A72EE210A70EE810AF1E781
:100C400072EE220AB0EE410A70EE810AE8E7B0EED9
:100C5000410AF0EE610A03E0B0EE610AF0EE410AEB
:100C600072EE221A31EE811ADCE700005C0C0020E3
:100C700070B5974C2DED088BA06BFFF7C4FC41ECD1
:100C8000180BE06BFFF7BFFC9FED921B53EC112B91
:100C9000FFF7BAFB53EC182BFFF728FCFFF7DEFC3D
:100CA00094ED059AF6EE008A08EE100A29EE28AABD
:100CB0001AEE100AFFF7A7FC256941EC1B0B28462A
:100CC000FFF7A1FC9FED851B53EC112BFFF79CFB5D
:100CD00053EC1B2BFFF792FBFFF7C0FC09EE900AC9
:100CE0001AEE100AFFF78FFC41EC1A0B2846FFF7AB
:100CF0008AFC9FED7C1B53EC112BFFF785FB53EC1B
:100D00001A2BFFF77BFBFFF7A9FC01EE900AF0EE30
:100D1000690AB0EE490AB0EE611A03F0B7FB94F825
:100D20004000012827D0022845D0032872D004288B
:100D30006ED005286DD068EE690A28EE490AC4ED28
:100D4000150A84ED160A30EE802A94ED0F1AB4EEDF
:100D5000C12AF1EE10FA09DDC1EE021A60EEA10A15
:100D600020EE210AC4ED150A84ED160A31EE600A60
:100D7000D4ED160A40E028EE210A68EE090A84ED57
:100D8000150AC4ED170A30EE202AD4ED0F1AB4EE7E
:100D9000E12AF1EE10FA09DD81EE821A20EE010A55
:100DA00084ED150A20EE810A84ED170A94ED150AE8
:100DB00031EEC00A1EE028EE610A68EE690A84ED91
:100DC000130AC4ED170A30EE202A94ED0F1AB4EE80
:100DD000C12AF1EE10FA09DDC1EE021A20EE210A55
:100DE00084ED130A20EEA10A84ED170A94ED130A8C
:100DF00031EE400AD4ED170A30EE600A20EE280AE0
:100E000084ED110A84ED180ABDEC088B70BD01E079
:100E10001EE03FE068EE090A28EE290AC4ED130A35
:100E200084ED140A30EE802A94ED0F1AB4EEC12A34
:100E3000F1EE10FA09DDC1EE021A60EEA10A20EE11
:100E4000210AC4ED130A84ED140A31EE600A1EE093
:100E500028EE490A68EE610A84ED120AC4ED140A0C
:100E600030EE202AD4ED0F1AB4EEE12AF1EE10FA9A
:100E700009DD81EE821A20EE010A84ED120A20EECD
:100E8000810A84ED140A94ED120A31EEC00AD4ED01
:100E9000140AB1E768EE290A28EE210AC4ED120A05
:100EA00084ED160A30EE802AD4ED0F1AB4EEE12A52
:100EB000F1EE10FA09DD81EE821A60EE810A20EE71
:100EC000010AC4ED120A84ED160A31EEE00A4FE77A
:100ED0005C0C0020A94C58E87AB6FB3FAA4C58E8B5
:100EE0007AB6EBBFAA4C58E87AB6EB3F2DE9F0474B
:100EF000044690F858009CB00E464FF000090128B7
:100F000015D0012084F85800002517951895206801
:100F10004FF0A04840450ED1284F0097384602F0C8
:100F2000A1FE8246206802F09DFE60B10EE0022024
:100F30001CB0BDE8F087E06D40F02000E06584F86B
:100F400058500120F4E7BAF1000F09D0E06D40F0ED
:100F50002000E0654FF0010984F858504846E7E763
:100F60001748326840F61F71002A826822F46042F6
:100F700016D094F8383042EA433273681A438260DC
:100F8000D8F80820BB6802F0010203F001031A43FD
:100F9000E2D1B36832681A4383688B431A430BE08B
:100FA0008260D8F80820BB6802F0010203F0010358
:100FB0001A43D1D182688A438260CDE70001005094
:100FC000000300502DE9F84F00270446009790F8E1
:100FD0005800DFF8D8930D46B846012811D00126F5
:100FE00084F85860206802F039FE60B1E06D40F08E
:100FF0002000E0655FF0010784F858803846BDE8BE
:10100000F88F0220FBE7D5E900210C23206803EAD2
:1010100091131844036B01F01F014FF01F0C0CFAE1
:1010200001FCC2F3846223EA0C038A401343036386
:10103000206802F013FE8246206802F00BFE5AEA96
:1010400000003CD1AA6829682068B2F1004F37D06F
:1010500002F014FE2068416921F0004141612068DE
:101060006969C268C2F3C102520091402A69042A28
:1010700031D000EB82002B68026EDFF834C303F03E
:10108000F84302EA0C020B431A4342F000410166A6
:1010900020682A69A96900EB8200026E22F0807242
:1010A0000A430266297F22682869012910D000219D
:1010B00002EB8000026E22F000720A4302667DE0BD
:1010C000002202F0DBFD2068416941F00041C5E7E4
:1010D0004FF00071ECE7002102F0B6FD40032068FC
:1010E0004FF0000172D002F0AFFD90FAA0F0B0FA1C
:1010F00080F1286842036ED090FAA0F0B0FA80F038
:10110000814204D100221146206802F0C6FD01216F
:10111000206802F099FD400320684FF001015DD086
:1011200002F092FD90FAA0F0B0FA80F12868420334
:1011300059D090FAA0F0B0FA80F0814204D1002298
:101140000121206802F0A9FD0221206802F07CFD47
:10115000400320684FF0020148D002F075FD90FA7C
:10116000A0F0B0FA80F12868420344D090FAA0F0D1
:10117000B0FA80F0814204D100220221206802F0FE
:101180008CFD0321206802F05FFD400320684FF0D2
:10119000030133D002F058FD90FAA0F0B0FA80F1CC
:1011A000286842032FD090FAA0F0B0FA80F0814274
:1011B00004D100220321206802F06FFD20688168BD
:1011C00011F0010F22D0A8E000E004E002F03CFDA5
:1011D000C0F384618DE7C0F3846091E702F034FDD1
:1011E000C0F38461A2E7C0F38460A6E702F02CFD9F
:1011F000C0F38461B7E7C0F38460BBE702F024FD6D
:10120000C0F38461CCE7C0F38460D0E7EB68296861
:101210004B4550F8B03FC1F3120101D10B4300E040
:101220008B430360E868484577D1286841031CD0A8
:1012300090FAA0F1B1FA81F1491C01F01F010929CE
:101240004FEA403132D8002912D000BF90FAA0F105
:10125000B1FA81F101F1010101F01F0106FA01F675
:1012600009D100BFC0F3846109E0C0F38461E3E702
:10127000C0F38461EEE790FAA0F1B1FA81F101F1D7
:10128000010101F01F0146EA816102D1C0F38460CF
:1012900003E090FAA0F0B0FA80F000F1010000F055
:1012A0001F0000EB400041EA005132E000290ED05F
:1012B00090FAA0F1B1FA81F101F1010101F01F01F1
:1012C00006FA01F606D100BFC0F3846106E0C0F360
:1012D0008461F1E790FAA0F1B1FA81F101F1010125
:1012E00001F01F0146EA816102D1C0F3846003E08E
:1012F00090FAA0F0B0FA80F000F1010000F01F00B9
:101300002C4A00EB400002EB005041EA000141F0A2
:101310000071AA68206802F0B1FC27482A680242DE
:101320003FF46AAE25488168254B01F0E0719A428E
:1013300002D0244B9A421CD10B021AD42268B2F17B
:10134000A04F7FF459AE826841F4000122F0E072B0
:101350000A4382601C481D490068B0FBF1F0401C44
:1013600000EB4000800000E0401E00900028FBD110
:1013700042E6174D174BAA4207D1CD0105D422688A
:101380009A42F5D041F0807109E0134DAA42EFD1A5
:101390004A02EDD422689A42EAD041F48001826880
:1013A00022F0E0720A43826026E6000000007F40DF
:1013B00000F0FF03000020FE000008800003005042
:1013C000000021C31000C09094000020400D0300D5
:1013D000000052C700010050000084CB70477047E6
:1013E00070470000F8B54FF0000504002E46009548
:1013F00002D0E06D10B107E00120F8BD204600F0FA
:10140000EFF8266684F8586020688168C1F340715F
:1014100019B181686A4A1140816020688168C1F30E
:10142000007189B98168674A114041F0805181603B
:10143000654866490068B0FBF1F04000801C00E0A0
:10144000401E00900028FBD120688168C1F3007124
:1014500041B9E16D41F01001E165216E41F00101FA
:101460002166012502F0FAFBE16DC90600D430B116
:10147000E06D40F01000E06501252846F8BDE06D04
:1014800020F4807040F00200E0652068806810F071
:10149000010F11D14FF0A04080684D4900F00100CC
:1014A000896801F00101084306D14A4861688268F1
:1014B00022F47C120A438260E168E06B627F084399
:1014C000A16841EA4231084394F8241040EA0140FF
:1014D000012904D1218D404A02EB41410843E16AD0
:1014E00029B101F47871226B014342EA01002168BD
:1014F000CA683A4B1A400243CA6020680169626BAD
:1015000021F0406111430161206802F0A7FB06460B
:10151000206802F09FFB30432ED1207F94F83810D2
:10152000800340EA41022068C16844F20203994303
:101530001143C16020690028206801690AD041F484
:1015400080310161206850F8C01F22696FF30D01DE
:10155000114307E021F480310161206850F8C01F79
:101560006FF30D01016094F8400001280CD0206851
:10157000016921F001010161606901282068016BA6
:1015800021F00F0111D013E0D4E911010843D4E98F
:1015900013121143084321680A6940F2FC739A430D
:1015A000104340F001000861E6E7226A521E114331
:1015B0000163E06D20F0020040F00100E0655CE7AF
:1015C000C0FFFF5FC0FFFF7F94000020400D0300BD
:1015D00000010050000300500000FEFF0740F0FF34
:1015E00070B598B00546142111A8FEF75BFE4421A2
:1015F0006846FEF757FE2868B0F1A04F3ED14FF481
:101600000040009080030F90684601F0E3F808B1B5
:10161000FFF7D8FA1A49C86C40F40050C864C86C87
:1016200000F400501690C86C40F00100C864C86C0B
:10163000002600F0010016900C2011900320CDE947
:10164000120611A94FF0904000F0AEF90E4C0D4873
:1016500020600520C4E901068020C4E90360800001
:1016600060618000A0612020C4E90706204600F0E8
:10167000E3F808B1FFF7A6FA6C65A56218B070BD73
:101680000010024008000240A40200202DE9F041B1
:101690000446344817468846806800F01F052068D5
:1016A00002F0DCFA00285AD194F85800012856D0EC
:1016B000012084F85800002625B1052D02D0092DFF
:1016C00000D003E02046FFF74DF918B184F85860C8
:1016D000BDE8F081E06D40F60161884340F4807020
:1016E000E06521492068884202D14FF0A04100E026
:1016F0000146814200D01DB9E06D20F48010E06504
:10170000E06DC00404D5206E20F00600206600E0E5
:101710002666616D1548C862616D15480863616D84
:101720001448486321681C20086084F858602068C9
:10173000416841F0100141602068C16841F0010139
:10174000C16021683B4642464031606D00F0D4F8EC
:1017500021688A68084B1A40121D8A60B8E7022087
:10176000B6E700000003005000010050D90800084F
:101770005B09000841090008C0FFFF7FF0B4016C5D
:101780000C6801680D6890F8442002F01F060422DE
:1017900002FA06F3234211D06B070FD50B689B06A4
:1017A00003D40B6823F004030B6090F8441001F09D
:1017B0001F018A40016C4A60016B1DE0022303FA9D
:1017C00006F727424FF0000C4FF0010218D0AF0788
:1017D00016D50C68A40605D40C6824F00A040C6025
:1017E00080F8252090F8441001F01F018B40016C17
:1017F0004B6080F824C0C16A00291AD0F0BC0847A9
:101800000823B340234214D02B0712D50B6823F0D2
:101810000E030B6090F84410036C01F01F0102FAF4
:1018200001F15960C26380F8252080F824C0416B23
:10183000E2E7F0BC7047000070B504000CD02B4A02
:1018400021681420914209D2294A0A44B2FBF0F0DF
:101850008000606427480AE0012070BD234A52429C
:101860000A44B2FBF0F0800060642048083820642D
:10187000022084F825000A6847F6F0708243D4E914
:1018800002031843D4E904352B431843A3691843D2
:10189000E3691843236A1843104308602046FFF7A2
:1018A0003FF9A0680025B0F5804F00D16560A16CBC
:1018B00020790860D4E9130141606068401E032864
:1018C00008D82046FFF74CF9606D0560D4E9160191
:1018D000416002E06565A565E565E563012084F882
:1018E000250084F82450002070BD00000804024048
:1018F000F8FFFDBF0000024070B5044690F82400D8
:10190000002501280CD0012084F8240094F82560DB
:101910000020012E06D084F824000225284670BD40
:10192000022070BD022684F82560E0632068066806
:1019300026F0010606602046FFF724F9206B0028F8
:101940002068016802D041F00E0106E021F0040198
:1019500001602068016841F00A010160A06C016823
:10196000C90303D5016841F480710160606D18B14D
:10197000016841F4807101602068016841F0010153
:101980000160CBE770B5044600F03CF90546601CE9
:1019900002D004484068044400F034F9401BA042DF
:1019A000FAD370BD880000202DE9F04FDFF82092B7
:1019B000002301260324A9F1040B85B00F2709F1A8
:1019C000040AABF1040EFAE006FA03F52A407CD0D3
:1019D00091F804C00CF0030CBCF1010F02D0BCF173
:1019E000020F26D1D0F808C0CDF800C04FEA430C52
:1019F00004FA0CF8CDF810C0DDF800C02CEA080C91
:101A0000CDF800C0D1F80C80DDF810C008FA0CF851
:101A1000DDF800C048EA0C08C0F80880D0F804C01F
:101A20002CEA050C0D79C5F300159D4045EA0C051F
:101A300045600D79ED43AD070ED0C5684FEA430808
:101A400004FA08FC25EA0C05D1F808C00CFA08FCD9
:101A50004CEA050CC0F80CC00D7905F00305022D09
:101A600016D1DD0800EB850CCDF808C0DCF820802D
:101A70005D074FEAD56C07FA0CF528EA05080D69F1
:101A800005FA0CF5DDF808C045EA0805CCF8205049
:101A900005684FEA430CCDF808C004FA0CFC25EAAF
:101AA0000C0591F804C00CF00308DDF808C008FA32
:101AB0000CF848EA0508C0F800804D6815F4403F6E
:101AC0007CD0444DD5F860C000E077E04CF0010CCC
:101AD000C5F860C02D6E23F0030C05F001050095DC
:101AE0003D4D65440295AD684FEA837C4FEA1C7812
:101AF00007FA08FC25EA0C05B0F1904F06D0DFF894
:101B0000DCC0604505D14FF0010C20E04FF0000C27
:101B10001DE0DFF8CCC0604502D14FF0020C16E0AA
:101B2000DFF8C0C0604502D14FF0030C0FE0DFF8D2
:101B3000B8C0604502D14FF0040C08E0DFF8ACC03B
:101B4000604502D14FF0050C01E04FF0060C0CFA95
:101B500008FC4CEA050C029DC5F808C0D9F80050F5
:101B6000CC46D1F8048095435FEAC82800D51543D8
:101B7000CCF80050DAF80050D446D1F804809543F0
:101B80005FEA882800D51543CCF80050DBF80050F8
:101B9000DC46D1F8048095435FEA883800D51543C8
:101BA000CCF80050DEF80050F446D1F8048095439C
:101BB0005FEAC83800D51543CCF800505B1C0A68B2
:101BC00032FA03F57FF400AF05B0BDE8F08F0000F6
:101BD00008040140001002400000014000040048D9
:101BE00000080048000C004800100048001400489D
:101BF0000069084000D0012070470AB18161704738
:101C000081627047014880687047000088000020AA
:101C10000248816842681144816070478800002052
:101C200010B50024032000F073F80F2000F008F82E
:101C300008B1012401E000F025F8204610BD0000A5
:101C400070B50E4E05460024706898B14FF47A7155
:101C5000B1FBF0F00A490968B1FBF0F001F04CFA71
:101C600040B9102D06D200222946501E00F030F84F
:101C7000356000E00124204670BD0000880000208F
:101C8000940000200A4882B0016E41F00101016613
:101C9000016E01F001010091816D41F0805181657B
:101CA000806D00F08050009002B000F08BBD00000D
:101CB00000100240002809DB00F01F0201219140C2
:101CC0004009800000F1E020C0F8001170470000DA
:101CD000F0B40E4B1B680C46C3F30223C3F1070597
:101CE000042D00D90425191D072901D2002300E085
:101CF000DB1E012606FA05F1491E214099409E404F
:101D0000761E16403143F0BC04F0C4BC0CED00E07C
:101D1000064900F0070208684FF6FF03184040EA42
:101D20000220034A10430860704700000CED00E0F9
:101D30000000FA0501220168C0F8E822002280F8BC
:101D4000E02231F8540F40F001000880088840F08C
:101D5000020008801046704770B50F4D044669B107
:101D600001290AD1D4F8F00203F032FDA06900285D
:101D700003D0286840F00600286070BDA06928B133
:101D800002F0BEFB286820F006002860D4F8F002BC
:101D9000BDE8704003F0B4BC10ED00E010B50C06D7
:101DA00007D501F0070101EB810100EBC1002830EC
:101DB00005E001EB810100EBC10000F5B47099B2C0
:101DC00032B1012202730181190C4181002010BD42
:101DD00000220273C180F9E701EB810200EBC2022D
:101DE000D0F8F002D26B03F06EBB01EB810200EB86
:101DF000C202D0F8F002D2F87C2103F0B8BB70B573
:101E000004460B0601F0070000EB800104EBC10162
:101E10004FF001024FF0000503D581F82920283149
:101E200003E081F8695101F5B471087094F8A802D3
:101E3000012808D084F8A822206803F0F9FF84F86C
:101E4000A852002070BD022070BD70B5044601F09C
:101E50000F006268904201D9012070BD0B0601F0AD
:101E6000070000EB800104EBC1014FF001024FF0CD
:101E7000000503D581F82920283103E081F8695154
:101E800001F5B4718D70087094F8A802012808D08B
:101E900084F8A822206804F06AF884F8A852002088
:101EA00070BD022070BD2DE9F04704685FEA42482A
:101EB0000B788D69B4F850804FF0000C4BF68F779B
:101EC00048F2800648F68F7948F2C00A444428D583
:101ED00040F2024808EBC30834F80840C4F3090490
:101EE000A54203D32D1B8D6102D00BE0C1F818C0B1
:101EF000D0F800C03CF823503D4085F400553543F0
:101F00002CF82350520609D50B78056835F82320A4
:101F100002EA090242EA0A0225F8232074B30A8978
:101F200027E040F2064808EBC30834F80840C4F341
:101F30000904A54203D32D1B8D6102D00BE0C1F82B
:101F400018C0D0F800C03CF823503D4085F400553F
:101F500035432CF82350520609D40D78036833F822
:101F6000252002EA090242EA0A0223F825202CB1C0
:101F70004A8949690068234604F0A3FA2046BDE86F
:101F8000F0872DE9F047054600680C465FEA426895
:101F90001646D1F818C02278B0F8508048F68F77EE
:101FA0004CF280094FF400434FF6FF7A4FF00001E6
:101FB00040447BD540F2024808EBC20830F80800E4
:101FC000C0F30900844514D9BCEB000CC4F818C058
:101FD00010D0760408D5D5F800C03CF822603E4009
:101FE00046EA09062CF8226094F82420012A50D0F1
:101FF0004EE1A161607810B1012813D01AE0286881
:10200000B0F85030184400EBC200B0F8022422F4BB
:10201000F842A0F80224B0F8022442F40042A0F8EA
:10202000022407E02868B0F85030184400EBC200E2
:10203000A0F802146278286812B1012A11D018E0C1
:10204000B0F850100844217800EBC100B0F8061435
:1020500021F4F841A0F80614B0F8061441F4004148
:1020600005E0B0F850201044227800EBC200A0F840
:10207000061421782846FFF7AFFE7004B8D5217802
:102080002A6832F82100384040EA090022F821008D
:10209000FEE0626902446261E2690244E26126692B
:1020A000226AB24203D33046111A04E038E084F8C1
:1020B00024100AB110462162617811B1012923D0A0
:1020C0002BE02968B1F850203E281144227801EB1A
:1020D000C20101F2024106D94209C60600D1521ED0
:1020E00043EA82220EE030B14208C30700D0521CFE
:1020F0000AEA822206E00A8822F4F8420A800A8864
:1021000042F400420A8008E02968B1F850201144E6
:10211000227801EBC201A1F8020483B22289B3E064
:1021200040F2064808EBC20830F80800C0F3090086
:10213000844514D3BCEB000CC4F818C010D076044E
:1021400008D4D5F800C03CF822603E4046EA0906B3
:102150002CF8226094F82420012A50D098E0A16144
:10216000607810B1012813D01AE02868B0F8503018
:10217000184400EBC200B0F8022422F4F842A0F8A0
:102180000224B0F8022442F40042A0F8022407E03E
:102190002868B0F85030184400EBC200A0F80214D0
:1021A0006278286812B1012A11D018E0B0F85010F6
:1021B0000844217800EBC100B0F8061421F4F8417E
:1021C000A0F80614B0F8061441F4004105E0B0F898
:1021D00050201044227800EBC200A0F806142178A9
:1021E0002846FFF7F9FD700452D42278296831F8A7
:1021F0002200384040EA090021F8220048E06269E4
:1022000002446261E2690244E2612669226AB242E2
:1022100003D33046111A216204E00AB1104621624C
:1022200084F824106278296812B1012A22D029E0AA
:10223000B1F850203E281144227801EBC20101F28E
:10224000064106D94209C60600D1521E43EA82223F
:102250000EE030B14208C30700D0521C0AEA8222C5
:1022600006E00A8822F4F8420A800A8842F4004212
:102270000A8007E0B1F850201144227801EBC20136
:10228000A1F80604628983B26169286804F034F910
:102290002278296831F8220048F6BF73184080F090
:1022A000300048F28003184321F822000020BDE8E6
:1022B000F0872DE9F04104460F0601F0070000EB1E
:1022C000800104EBC1014FF001064FF0000503D57A
:1022D00081F82960283103E081F8695101F5B47172
:1022E00008700A61CB704A7802B1C881022B00D114
:1022F0000D7194F8A802012809D084F8A86220681A
:1023000003F062FC284684F8A852BDE8F081022060
:10231000FBE770B50C4601F0070505EB850100EB06
:10232000C101C1E95F230022C1F8842181F869213C
:1023300081F8685101F5B4716207006803F06CFE22
:10234000002070BD70B5044601F00700626890423D
:1023500001D9012070BD0B064FF000054FF00102BE
:1023600007D500EB800104EBC10181F82920283159
:1023700007E001EB810104EBC10181F8695101F52E
:10238000B4718A70087094F8A802012808D084F803
:10239000A822206803F027FE84F8A852002070BD10
:1023A000022070BD70B50C4601F0070505EB8501F4
:1023B00000EBC101C1E90F23012281F84C208B649D
:1023C00000234B6481F8292001F8285F6207006828
:1023D00003F022FE002070BD10B50446006804F032
:1023E0006DF8010404D52046BDE8104001F068BE38
:1023F00041050ED5206830F8441F21F4806101802A
:10240000204600F013F92046BDE81040002100F0FE
:1024100039B9410405D5206830F8441F21F48041C2
:102420007DE0810405D5206830F8441F21F4005177
:1024300075E0C1041FD5206830F8401F21F0040169
:102440000180206830F8401F21F00801018094F8D5
:10245000E002012806D1002084F8E002014620466F
:10246000FFF77AFC204600F0F5F8206830F8441FAA
:1024700021F4805153E0010512D5206830F8401F47
:1024800041F008010180206830F8441F21F4006108
:102490000180206830F8401F41F0040101800AE00B
:1024A000010629D5206830F8441F21F08001018001
:1024B00094F8E00218B1204600F014F910BD20682D
:1024C00030F8401F41F004010180206830F8401FBF
:1024D00041F008010180012084F8E0022068B0F892
:1024E00054003C2101EA9000C4F8E4022046BDE813
:1024F00010400121FFF730BC810509D5206830F874
:10250000441F21F400710180204600F0B7F810BD8F
:10251000C005FCD5206830F8441F21F4807101808B
:1025200010BD70B586B0040004D094F8A90200254F
:1025300018B107E0012006B070BD84F8A85220460B
:1025400000F048F8032084F8A902206803F007FD92
:10255000002001260EE000EB800104EBC10181F8B0
:10256000296001F8280FC881CD700D614D61401CB4
:10257000C0B28D6161688142EDD8002011E000EBAE
:10258000800104EBC10181F8695181F8680181F88B
:102590006B51C1F87851C1F87C51401CC0B2C1F8F0
:1025A000805161688142EAD8142204F11001684622
:1025B000FDF75FFE94E80F0003F0C8FC84F8245098
:1025C00084F8A962E069012802D12046FFF7B2FB36
:1025D0000020B0E710B592B0044644216846FDF7EC
:1025E00061FE1049206888421AD1401400900020F2
:1025F0000D90684600F0EEF808B1FEF7E3FA0A48DD
:10260000816D41F400018165806D002200F40000BD
:10261000119011461420FFF75BFB1420FFF74AFBD3
:1026200012B010BD005C00400010024070B50446BE
:1026300080680125022801D0FEF7C4FA2946D4F8A3
:10264000F00203F077F8D4F8F002BDE8704003F030
:102650002AB8000010B50446806930B10648016808
:1026600021F00601016001F04BFFD4F8F002BDE853
:10267000104003F045B8000010ED00E0D0F8F00283
:1026800003F048B810B5044690F8A80201280BD012
:10269000012084F8A80284F82410206803F025FFA4
:1026A000002084F8A80210BD022010BDD0F8F0224E
:1026B00000F52C71104603F049B810B5044690F8A7
:1026C000A80201280CD0012084F8A802206803F099
:1026D000E6FE206803F033FC002084F8A80210BD59
:1026E000022010BD10B50446D0F8F00203F070F8D7
:1026F000A069002804D00348016841F00601016088
:1027000010BD000010ED00E02B492C4B0A6832216F
:102710004A432B4940B1B0F5007F086829D020F426
:10272000C06040F480602CE00868C0F341200228BB
:1027300004D051F8800F20F4807022E0D1F880009E
:1027400020F48070C1F88000086820F4C06040F474
:1027500000700860B2FBF3F0401C00E0401E4A69C4
:10276000520501D50028F9D1486940050AD5032052
:102770007047C0F34120022806D051F8800F40F482
:102780008070086000207047D1F8800040F48070AD
:10279000C1F88000086820F4C06040F40070086050
:1027A000B2FBF3F0401C00E0401E4A695205DBD545
:1027B0000028F9D1D8E700009400002040420F0023
:1027C000007000400248816841F480418160704798
:1027D000007000402DE9F8430446006800269D4D36
:1027E00000035ED5A86D0027C00008D4A86D40F096
:1027F0008050A865A86D012700F080500090DFF898
:102800005892D9F8001041F48071C9F80010FFF710
:10281000F9F9804606E000BFFFF7F4F9A0EB0800E5
:1028200002282BD8D9F80000C005F5D5D5F89000BE
:1028300010F4407014D0216C814211D0D5F8900072
:10284000D5F8901020F4407041F48031C5F8901014
:10285000D5F8901021F48031C5F89010C5F890009B
:10286000C00711D0FFF7CEF9804641F2883907E062
:10287000FFF7C8F9A0EB0801494501D903260BE091
:10288000D5F890008007F3D5D5F89000216C20F49E
:1028900040700843C5F890001FB1A86D20F080502B
:1028A000A8652078C00707D0D5F88800616820F0B7
:1028B00003000843C5F888002078800707D5D5F8BD
:1028C0008800A16820F00C000843C5F88800207833
:1028D000400707D5D5F88800E16820F030000843AC
:1028E000C5F888002078000707D5D5F88800216949
:1028F00020F0C0000843C5F888002078800607D57E
:10290000D5F88800616920F440600843C5F8880064
:102910002078400607D5D5F88800A16920F44050FA
:102920000843C5F888002078000607D5D5F8880048
:10293000E16920F440400843C5F888002088C005BC
:1029400007D5D5F88800216A20F440300843C5F83F
:1029500088002088800507D5D5F88800616A20F4B2
:1029600040200843C5F88800208840050FD5D5F8D9
:102970008800A16A20F440100843C5F88800A06AC6
:10298000B0F5801F03D1E86840F48010E86020882B
:1029900000050FD5D5F88800E16A20F4400008430F
:1029A000C5F88800E06AB0F5800F03D1E86840F40C
:1029B0008010E8602088C0040FD5D5F88800216B0E
:1029C00020F040700843C5F88800206BB0F1807F8C
:1029D00003D1E86840F48010E86020884FF000617F
:1029E00080040ED5D5F88800626B20F0406010435B
:1029F000C5F88800606B884203D1E86840F4801015
:102A0000E860208840040ED5D5F88800A26B20F03D
:102A100040601043C5F88800A06B884203D1E86885
:102A200040F48010E860208800040FD5D5F88800B5
:102A3000E16B20F040500843C5F88800E06BB0F12E
:102A4000805F03D1E86840F48030E8603046BDE83C
:102A5000F883000000100240007000402DE9F047AC
:102A60000E4605004FF0000725D0DFF8AC81D8F8FE
:102A7000000000F00F00B0420CD2D8F8001021F096
:102A80000F013143C8F80010D8F8000000F00F0023
:102A9000B04210D12968614CC80741F2883A5AD037
:102AA0006868DFF87C91032808D0022820682DD0C0
:102AB000400500282CDB0120BDE8F087206880015C
:102AC000F9D5E06800F00302E068C0F30310401C91
:102AD000032A19D0534A00BFB2FBF0F0E268C2F3F8
:102AE00006225043E268C2F34162521C5200B0FB1E
:102AF000F2F0484517D9A06810F0F00F0CD0880705
:102B000011D5A86840B10EE0474AE5E78003D0E759
:102B100000F0B6F8484506D9A06820F0F00040F073
:102B20008000A0608027A068696820F00300084347
:102B3000A060FFF767F8814606E000BFFFF762F884
:102B4000A0EB090151453AD8A068696800F00C0073
:102B5000B0EB810FF2D12868810714D5400703D567
:102B6000A06840F4E060A0602878000705D5A06860
:102B700020F4605040F4E060A060A068A96820F0F4
:102B8000F000084304E0802F03D1A06820F0F0009B
:102B9000A060D8F80010404601F00F01B14216D9EC
:102BA000016821F00F0131430160FFF72BF8074660
:102BB00007E000BFFFF726F8C11B514501D90320EC
:102BC0007AE7D8F8000000F00F00B042F2D1287880
:102BD000400705D5A068E96820F4E0600843A060DC
:102BE0002878000706D5A068296920F4605040EADB
:102BF000C100A06000F044F8A1680C4AC1F30311C1
:102C0000515C01F01F01C84009490860094800688B
:102C1000BDE8F047FFF714B8002002400010024062
:102C200000B4C4040024F40000127A00987700086D
:102C30009400002088000020054806490068896843
:102C4000054AC1F30221515C01F01F01C8407047E1
:102C50009400002000100240A877000805480649AB
:102C600000688968054AC1F3C221515C01F01F0167
:102C7000C84070479400002000100240A877000868
:102C8000184910B58868C0F381021748012A0BD093
:102C90008A684310C2F38102022A06D08A68C2F30E
:102CA0008102032A03D0002010BD184610BDCA6857
:102CB00002F00304CA68C2F30312521C032C02D0B0
:102CC000B0FBF2F001E0B3FBF2F0CA68C968C2F3EE
:102CD00006225043C1F34161491C4900B0FBF1F0A9
:102CE00010BD0000001002400024F4002DE9F8435C
:102CF00004007AD02078FA4DC00747D0A868E96868
:102D000000F00C0001F003010C2802D0082817D0B5
:102D100001E0032914D06068B0F5803F17D0B0F50A
:102D2000A02F286817D020F480302860286820F46D
:102D3000802028606068E0B1FEF764FF064614E07A
:102D40002868800322D560680028D2D01EE0286859
:102D500040F48030EDE740F480202860F7E700BFC2
:102D6000FEF750FF801B642870D828688003F7D5D1
:102D70000CE0FEF747FF064605E000BFFEF742FF06
:102D8000801B6428F0D828688003F7D42078800757
:102D90004CD5A868E96800F00C0001F003010C288C
:102DA00002D004280DD001E002290AD0E0680028F2
:102DB00028682BD040F480702860FEF723FF064679
:102DC00019E02868400502D5E068002891D06868BD
:102DD000217C20F0FE4040EA01606860C148006844
:102DE000FEF72EFF002800D120E076E1FEF70AFF73
:102DF000801B0228B8D828684005F7D56868217C70
:102E000020F0FE4040EA016068600FE020F480702E
:102E10002860FEF7F7FE064605E000BFFEF7F2FE6B
:102E2000801B0228A0D828684005F7D42078000726
:102E300029D560690028D5F8940013D040F001002E
:102E4000C5F89400FEF7DEFE064606E090E000BFFF
:102E5000FEF7D8FE801B022886D8D5F8940080079C
:102E6000F6D510E020F00100C5F89400FEF7CAFE88
:102E7000064604E0FEF7C6FE801B022878D8D5F887
:102E800094008007F6D42078400761D5A86D00260D
:102E9000C00008D4A86D40F08050A865A86D012638
:102EA00000F08050009090480168C90511D4016875
:102EB000804641F480710160FEF7A4FE074604E0FD
:102EC000FEF7A0FEC01B022852D8D8F80000C005AB
:102ED000F6D5A068012815D00528D5F8900016D0A1
:102EE00020F00100C5F89000D5F8900020F0040013
:102EF000C5F89000A06841F28838B8B1FEF782FEAC
:102F000007460EE0D5F8900040F00100F0E740F0F1
:102F10000400C5F89000F5E7FEF774FEC11B4145BB
:102F200026D8D5F890008007F6D50CE0FEF76AFEAB
:102F3000074604E0FEF766FEC11B414518D8D5F8E8
:102F400090008007F6D41EB1A86D20F08050A865CF
:102F50002078800629D5A0690028D5F8980013D0DC
:102F600040F00100C5F89800FEF74CFE064606E06A
:102F700077E000BFFEF746FE801B022877D8D5F821
:102F800098008007F6D510E020F00100C5F8980001
:102F9000FEF738FE064604E0FEF734FE801B0228EA
:102FA00065D8D5F898008007F6D4E069F0B3A96831
:102FB000C1F38101032961D00228286820F08070C4
:102FC00028600BD0E86820F00300E860E868474913
:102FD0000840E860FEF716FE04464BE0FEF712FEDE
:102FE000064604E0FEF70EFE801B02283FD8286844
:102FF0008001F7D4F4E908016FF00F0202EB011130
:103000000843218A5204490802EB4151A26841EA6F
:1030100002210843217D4FF07E42490802EB4161C5
:103020000843217B40EAC160E96800E062E0304A81
:1030300011400843E860286840F080702860E86824
:1030400040F08070E860FEF7DDFD044605E000BF5B
:10305000FEF7D8FD001B022809D828688001F7D5A3
:1030600048E004E0FEF7CEFD001B022802D9032051
:10307000BDE8F88328688001F4D43BE00128F7D04C
:10308000E868226A00F00301914226D1616A00F0EB
:10309000F0020901103991421FD1A26A00F4FE41E9
:1030A000B1EB022F19D194F82C2000F07841B1EB4C
:1030B000C26F12D1218E00F4C00249084905A1F562
:1030C0000011914209D194F8341000F0C060490811
:1030D0004906A1F1007181420CD00120C8E700002F
:1030E000001002408800002000700040FFFFEEFE4C
:1030F0000C809F010020BBE710B5401EB0F1807F1F
:1031000001D3012010BD4FF0E02460610F21601752
:1031100003F0C0FA0020A06107202061002010BD4C
:103120007047704770470000F0B590F83C20012AC6
:103130004AD0012280F83C20CA688B6822F4407291
:103140001A434B6822F480621A430B6822F400622F
:103150001A430B6922F480521A434B6922F400523D
:103160001A430B6B22F480421A430B8B22F4702219
:1031700042EA0342154C03680026154DA34201D0D4
:10318000AB4203D1CF6922F080523A43A34201D02F
:10319000AB4214D10F8D22F4700242EA07520F6A3B
:1031A00022F080723A434F6A22F000723A43A342FF
:1031B00001D0AB4203D1C96A22F000520A435A64DB
:1031C00080F83C600020F0BD0220F0BD002C0140E2
:1031D000003401407047704770470000F0B590F828
:1031E0003C20012A3AD0012580F83C50022280F888
:1031F0003D2003685A689C68194E1A4FB34201D0AB
:10320000BB4204D122F4700C4A6842EA0C02DFF897
:1032100058C002EA0C02D1F800C04CEA020CC3F814
:1032200004C00268B2420DD0B2F1804F0AD00F4BF9
:103230009A4207D00E4B9A4204D0BA4202D00D4BAC
:103240009A4204D1896824F080031943916080F880
:103250003D50002180F83C100846F0BD0220F0BD32
:10326000002C0140003401408FFFFFFD00040040AE
:103270000008004000400140704710B5040003D032
:1032800094F83D0010B107E0012010BD002084F843
:103290003C00204600F022F8022084F83D00211D69
:1032A000206801F07DF9012084F8480084F83E0090
:1032B00084F83F0084F8400084F8410084F842001C
:1032C00084F8430084F8440084F8450084F84600FC
:1032D00084F8470084F83D00002010BD08B501685F
:1032E0001448B1F1804F14D0134A914220D1816D1E
:1032F00041F002018165806D002200F00200009023
:1033000002211D20FEF7E4FC1D20BDE80840FEF769
:10331000D1BC816D41F001018165806D002200F01A
:103320000100009002211C20FEF7D2FC1C20ECE7DB
:1033300008BD0000001002400004004090F83D105D
:10334000012901D001207047022180F83D10016859
:10335000CA6842F00102CA600068104988420ED073
:10336000B0F1804F0BD00E49884208D00D498842F9
:1033700005D00D49884202D00C49884207D18168A6
:103380000B4A1140062906D0B1F5803F03D00168F1
:1033900041F001010160002070470000002C014055
:1033A000000400400008004000340140004001409B
:1033B0000700010070B5044690F83C000025012884
:1033C00014D0012684F83C60022084F83D00226875
:1033D0009068364B184020F47F4090600868702851
:1033E0002ED010DC10F00F0F03D021E04FF00200C0
:1033F00070BD4FEA2012072A1AD2DFE802F05252BB
:1034000052524A3840002A4BC21A984249D009DC2D
:10341000B0F5805F0DD0B0F5005F1CD0B0F1101F8B
:1034200006D13EE0102A3CD0202A3AD0502A38D08B
:10343000012584F83D60002084F83C00284670BDDA
:10344000CB68D1E90121206801F00FF9206881687B
:1034500041F0770109E0CB68D1E90121206801F052
:1034600004F92068816841F480418160E1E7CA681D
:103470004968206801F0A4FA5021206806E0CA6873
:103480004968206801F0ADFA6021206801F0F8F881
:10349000CFE7CA684968206801F092FA40212068A5
:1034A000F4E7226801461046F0E7000088FFCEFFEF
:1034B00020001000704770B50446006801694FF0A5
:1034C0000005C943890715D4C168C943890711D4C8
:1034D000E91E01610120207720688069800720466D
:1034E00002D0FFF7E7FF04E000F00EF9204600F0FD
:1034F000EDF9257720680169C943490717D4C168E8
:10350000C943490713D46FF00401016102202077F9
:103510002068806910F4407F204602D0FFF7CAFF80
:1035200004E000F0F1F8204600F0D0F9257720689B
:103530000169C943090716D4C168C943090712D4F0
:103540006FF008010161042020772068C0698007BE
:10355000204602D0FFF7AEFF04E000F0D5F8204689
:1035600000F0B4F9257720680169C943C90617D46A
:10357000C168C943C90613D46FF010010161082066
:1035800020772068C06910F4407F204602D0FFF702
:1035900091FF04E000F0B8F8204600F097F9257795
:1035A00020680169C943C90708D1C168C943C9076F
:1035B00004D1891E0161204600F008FA20680169E3
:1035C000C943090609D4C168C943090605D46FF087
:1035D000800101612046FFF7A4FD20680169C9430D
:1035E000C90509D4C168C943090605D46FF48071BF
:1035F00001612046FFF794FD20680169C94349062F
:1036000009D4C168C943490605D46FF0400101617E
:10361000204600F001FA20680169C943890609D4EF
:10362000C168C943890605D46FF0200101612046B5
:10363000FFF778FD20680169C943C90209D4C16850
:10364000C943C90205D46FF4801101612046FFF718
:10365000C2FD20680169C943890209D4C168C94310
:10366000890205D46FF4001101612046FFF7B2FD15
:1036700020680169C943490209D4C168C9434902A4
:1036800005D46FF4800101612046FFF7A5FD206895
:103690000169C94309020BD4C168C943090207D4AF
:1036A0006FF4000101612046BDE87040FFF7E4BD02
:1036B00070BD000010B586B0044614216846FCF7C2
:1036C000F1FD0F492068884217D10E48C16C41F0C6
:1036D0000101C164C06C694600F0010005904FF41F
:1036E000E0600090022001900020029003900620EC
:1036F00004904FF09040FEF757F906B010BD00005F
:10370000002C014000100240704770B5044690F84C
:103710003C0000260D4601280BD0012084F83C0017
:103720000C2A4AD007DC82B1042A20D0082A06D10C
:1037300031E0022070BD102A53D0142A63D0012634
:10374000002084F83C00304670BD206800F0A2FFE5
:103750002068816941F0080181612068816921F058
:1037600004018161206881692A69114311E02068A0
:1037700000F0DEFF2068816941F40061816120680A
:10378000816921F480618161206881692A6941EA47
:1037900002218161D4E7206801F012F82068C16934
:1037A00041F00801C1612068C16921F00401C161D3
:1037B0002068C1692A69114311E0206801F048F8C6
:1037C0002068C16941F40061C1612068C16921F4C8
:1037D0008061C1612068C1692A6941EA0221C16131
:1037E000AEE7206801F07CF82068016D41F0080127
:1037F00001652068016D21F0040101652068016DFB
:103800002A69114311E0206801F0A2F82068016DD7
:1038100041F4006101652068016D21F4806101655A
:103820002068016D2A6941EA0221016588E710B527
:10383000040003D094F83D0010B107E0012010BD52
:10384000002084F83C00204600F022F8022084F892
:103850003D00211D206800F0A3FE012084F84800EF
:1038600084F83E0084F83F0084F8400084F841006A
:1038700084F8420084F8430084F8440084F845004A
:1038800084F8460084F8470084F83D00002010BD0D
:1038900008B500680B49884212D10B48016E41F40B
:1038A00000610166006E002200F400600090114685
:1038B0001920FEF70DFABDE808401920FEF7FAB905
:1038C00008BD0000002C01400010024070470000BD
:1038D00030B50446022269B1042912D0082917D054
:1038E0000C291CD0102921D094F84300012824D0A1
:1038F000012030BD94F83E000128F9D184F83E2023
:103900001DE094F83F000128F2D184F83F2016E032
:1039100094F840000128EBD184F840200FE094F89F
:1039200041000128E4D184F8412008E094F84200E5
:103930000128DDD184F8422001E084F843200122EF
:10394000206800F085FE194B20681949194A9842F1
:1039500009D0884207D0904205D0174DA84202D026
:10396000164DA84203D1456C45F4004545642068D6
:1039700098420CD0B0F1804F09D0114B984206D03C
:10398000104B984203D0884201D0904207D1816801
:103990000D4A1140062906D0B1F5803F03D00168D9
:1039A00041F001010160002030BD0000002C014009
:1039B0000034014000400140004401400048014003
:1039C000000400400008004007000100104910B545
:1039D000884207D10F4C2068012804D003F098FEDC
:1039E0000120206010BD00202060606838B10128EF
:1039F00009D00228F6D1BDE8104003F009BDBDE8AA
:103A0000104003F071BDBDE8104003F0E3BC0000BE
:103A100004030020F8010020704790F8801001296D
:103A200018D0012180F880102421C0F8841050F8AB
:103A3000641B0A680B6823F001030B6022F000513D
:103A40000022026050F8643C196020210162027774
:103A5000104670470220704770B5044690F8800009
:103A600001281DD0012084F880002420C4F884009F
:103A700020680568026822F00102026020688268FE
:103A800022F060620A438260204600F0BDFF206899
:103A900005602020C4F88400002084F8800070BDF8
:103AA000022070BD70B5044690F8800001281DD03A
:103AB000012084F880002420C4F884002068056870
:103AC000026822F0010202602068826822F06042EF
:103AD0000A438260204600F097FF2068056020209E
:103AE000C4F88400002084F8800070BD022070BDFE
:103AF00010B5040003D0D4F8840010B107E0012011
:103B000010BD002084F88000204600F027F8242013
:103B1000C4F884002068016821F00101016020469A
:103B200001F028F80128EBD0A06A10B1204600F07F
:103B30008DFF2068416821F49041416020688168D0
:103B400021F02A0181602068016841F001010160D3
:103B50002046BDE8104000F0DDBF000010B598B071
:103B60000446142111A8FCF79DFB44216846FCF78C
:103B700099FB17492068884227D10420002400902F
:103B800003946846FEF726FE08B1FDF71BF81148BE
:103B9000816D41F480218165816D01F48021169150
:103BA000C16C41F00201C164C06C11A900F00200B7
:103BB00016904FF4406011900220CDE912040720C6
:103BC000CDE914400448FDF7EFFE18B010BD000029
:103BD000004800400010024000040048FEE70000DA
:103BE000F0B500230A24302537261F4611E000BF18
:103BF000B4EB107F02D905EB107C01E006EB107CE2
:103C000001F813C001EB430C00015B1C8CF8017040
:103C1000DBB29342ECD3F0BD0A4890ED001AD0ED30
:103C20000B0AD0ED011A90ED0A0A21EE202A01EECE
:103C3000C02A21EE000A01EEA00A80ED042A80EDE0
:103C4000050A70475C0C002000EB8100006E00F05C
:103C5000F84070478068C0F3C00070478068C0F3C8
:103C6000800070478068C0F380007047C06810F41F
:103C7000406F01D00020704701207047042303EA01
:103C8000D15310B518444369C1F3045107248C4043
:103C9000A3438A401343436110BD00EB8100016ED2
:103CA00021F00041114301667047000070B58CB0EF
:103CB000002408940994202168460A94FCF7F2FA3B
:103CC00023484FF0A041012501604FF44031C0E985
:103CD000011400F110010426C46081E8700004772B
:103CE00044770221016280F82440C462046380F8B2
:103CF0003850C46380F84040FDF774FB08B1FCF70E
:103D000061FF08A912480894FDF7F0F808B1FCF724
:103D100059FF104800900620CDE901057F20059449
:103D2000CDE9030669460A48FDF74CF908B1FCF7EE
:103D300049FF094800900C20019069460448FDF7AE
:103D400041F9002801D0FCF73DFF0CB070BD000028
:103D5000380200200800900C1000C0100D4808B573
:103D6000816C41F004018164816C01F004010091D7
:103D7000816C41F001018164806C002200F001003F
:103D8000009011460B20FDF7A3FFBDE808400B2073
:103D9000FDF790BF001002402DE9F04186B01421DC
:103DA0006846FCF77FFA2648C16C41F02001C164E7
:103DB000C16C01F020010591C16C41F00101C164A9
:103DC000C16C01F001010591C16C41F00201C164B7
:103DD000C06C4FF0904700F0020005900022802157
:103DE0003846FDF70AFFDFF85C804FF400560022EA
:103DF00031464046FDF701FF012230214046FDF7E4
:103E0000FCFE8020012400258DE8310069463846FB
:103E10000394FDF7C9FD0096CDE90145694640468A
:103E20000394FDF7C1FD3020009001AA112082E823
:103E3000310069464046FDF7B7FD06B0BDE8F081A8
:103E4000001002400004004810B598B000241494FB
:103E500015941C210DA81694FCF724FA3421684609
:103E6000FCF720FA2C482B49C0E90014202181607E
:103E700040F64751C0E903148021C0E90541FFF72E
:103E8000D6FC08B1FCF79EFE1494159414A92248A0
:103E90001694FFF7A3F908B1FCF794FE6020CDE972
:103EA0000D040F9410941194129400220DA91A4835
:103EB0001394FFF72AFC08B1FCF784FE04220DA935
:103EC0001548FFF722FC08B1FCF77CFE08220DA97B
:103ED0001148FFF71AFC08B1FCF774FE00944FF488
:103EE0000050CDE9044003940003CDE9084001945B
:103EF0000294069407940A940B94694606480C941D
:103F0000FFF712F908B1FCF75DFE0348FFF7D2FB9B
:103F100018B010BD002C01400403002010B588B07B
:103F20000024174800940194029403940494059487
:103F30004FF080410694C0E9001441F68E21C0E99B
:103F40000241802104618161FFF797F908B1FCF714
:103F500039FE4FF48050009069460948FFF72AFA6D
:103F600008B1FCF72FFE049404A905480694FFF756
:103F700035F9002801D0FCF725FE08B010BD00007F
:103F80005003002010B588B0002417480094019415
:103F9000029403940494059412490694C0E9001411
:103FA00040F64751C0E9024104618461FFF765F9B9
:103FB00008B1FCF707FE4FF48050009069460A48AC
:103FC000FFF7F8F908B1FCF7FDFD049404A90648D1
:103FD0000694FFF703F9002801D0FCF7F3FD08B0C1
:103FE00010BD0000000400409C030020184810B5DC
:103FF000164901604FF4E1314160002181600C22DB
:10400000C160C0E904128161C161016241628162E3
:10401000FFF76EFD08B1FCF7D5FD00210C48FFF756
:1040200041FD08B1FCF7CEFD00210948FFF714FD62
:1040300008B1FCF7C7FD0648FFF7EFFC002803D0E6
:10404000BDE81040FCF7BEBD10BD000000480040B8
:10405000E803002010B500220F49104801F0FAF9DA
:1040600008B1FCF7AFFD0E490C4801F0D9FB08B1CF
:10407000FCF7A8FD0B49094801F02AF808B1FCF744
:10408000A1FD064801F046FC002803D0BDE8104021
:10409000FCF798BD10BD0000000000208C07002038
:1040A0009C00002078000020FEE7FEE703488178AE
:1040B0001A2902D1807903F001BB70472902002040
:1040C0002DE9F84F044640F68F7A40F2064B48F649
:1040D0000F784FF00009A7E1B0F8441011F00F0578
:1040E00039D030F8256031047ED530F8251001EA4A
:1040F0000A0141F0800120F8251005EB850004EB52
:10410000C00797F8740107F5B47700286DD0F878E8
:1041100002286BD03A78216831F8220048F68F7374
:10412000184048F2C003184321F82200397820686B
:1041300030F821205204B0F8502002EB00037DD566
:1041400040F2024202EBC101595A8905890D0091E2
:1041500075D03A89C7E0C9062CD4018801EA080164
:1041600041F400410180206804F12805B0F85010A6
:104170002A78014440F2024000EBC200085AC0F322
:1041800009006064E16B0144E16300212046FDF712
:1041900023FE94F8240000289DD0A86900289AD115
:1041A00094F8240040F080012068A0F84C1084F8B6
:1041B000249039E1018804F5B4750A051ED5B0F8DC
:1041C00050102A7801440BEBC200085A04F52C71F8
:1041D000C0F30903EB61EA88206802F072F92168F4
:1041E000088800EA0A0002E098E05FE06CE040F036
:1041F000800008802046FEF759FA15E10904D8D559
:10420000018801EA0A0141F0800101802068B0F8CC
:1042100050102A7801440BEBC200085A83059B0D0D
:10422000EB6110D0696971B1EA88206802F049F940
:10423000E969686908440021686101E04BE049E0F0
:104240002046FDF7D2FD206801880905B1D4B0F8F9
:1042500050100844296900F206403E2908D94A094D
:10426000C90600D1521E4FF4004141EA822108E004
:10427000A1B14A08C90700D0521C4FF6FF7101EAEC
:1042800082210180216808884BF68F72104080F4EB
:10429000405048F2800210430880C5E0018821F4B4
:1042A000F8410180018841F40041EAE72068B0F854
:1042B00050103B780A180BEBC301515A8905890D40
:1042C000009114D0FA880EE0324639462046FDF7B8
:1042D000EAFD00900BE00BEBC101595A8905890DED
:1042E000009104D07A897969009B02F0EAF8F969B3
:1042F00000980844F8617969009808447861B869C1
:1043000018B139690098814204D939782046FDF7FF
:104310006CFD03E03946206801F07EFE300677D55B
:1043200005EB850004EBC001206830F8252002EA87
:10433000080242F4004220F8252091F82B00283191
:10434000022848D0C1F81890087B4A4608B3700686
:1043500020D5487810B1012812D03AE02068B0F892
:10436000502010440A7800EBC200B0F8022422F476
:10437000F842A0F80224B0F8022442F4004206E019
:104380002068B0F8503018440B7800EBC300A0F858
:1043900002241EE04B78206813B1012B11D018E0E5
:1043A000B0F8502010440A7800EBC200B0F80624A0
:1043B00022F4F842A0F80624B0F8062442F40042A1
:1043C00005E0B0F8503018440B7800EBC300A0F8BB
:1043D0000624097820E0F00522D42068B0F85020A7
:1043E0000B78104440F2024202EBC302805A8A6901
:1043F000C0F3090082420CD9121A8A610BD04A69B3
:1044000002444A61CA691044C861206801F004FE90
:104410000AE0C1F81890D9B22046FDF7DDFC03E0B0
:1044200032462046FDF7ADFD2068B0F8441009047F
:104430003FF552AE0020BDE8F88F0000074890ED30
:10444000060AD0ED0B0A60EE200AC0ED090AD0ED95
:104450000A0A20EE600A80ED080A70475C0C002012
:1044600070470000054881781A2906D18179407982
:1044700001EB002080B203F045B97047290200200B
:1044800070470178407841EA00207047B5EEC01AC5
:10449000F1EE10FA01DD012200E00022F5EEC00A83
:1044A000F1EE10FA01DD012100E00021B5EEC00AB5
:1044B000F1EE10FA01DD012000E00020800000EBA9
:1044C000410010440C49052809D0042809D00628C9
:1044D0000BD002280BD003280BD0062002E00120CD
:1044E00000E0022081F8400070470320FAE7042032
:1044F000F8E70520F6E700005C0C0020FDF788BB1C
:1045000010B594B038216846FBF7CCFE14210EA8F4
:10451000FBF7C8FE0020FEF7F7F8212000904FF4CB
:10452000803001900120069002200324CDE9070489
:104530005521CDE909010421CDE90B010D90684613
:10454000FEF7D4FB08B172B6FEE70F20CDE90E04EA
:10455000002010901190129004210EA8FEF77EFA10
:10456000002801D072B6FEE714B010BD0248016801
:1045700041F470010160704788ED00E00148FEF7EA
:104580009ABF0000040300200148FEF794BF00001A
:10459000500300200148FEF78EBF00009C0300205E
:1045A0002DE9F0430268234B234D244E244C4FF059
:1045B0008049984207D0484505D0A84203D0B04270
:1045C00001D0A04203D122F070074A683A431D4F40
:1045D000DFF874C0DFF8748098420DD048450BD0E6
:1045E000A84209D0B04207D0A04205D0B84203D0BB
:1045F000604501D0404503D122F44075CA682A4382
:104600004D6922F080022A4302608A68C2620A6809
:104610008262984207D0A04205D0B84203D06045DC
:1046200001D0404501D10969016301214161BDE823
:10463000F0830000002C014000040040000800400E
:104640000034014000400140004401400048014066
:1046500010B501F01F030121046A99408C430462E4
:10466000016A9A401143016210BD10B5846842EAA4
:10467000032224F47F440A432243826010BD0000D9
:104680008268034B1A400A4342F007018160704779
:104690008FFFCFFF2DE9F043026A22F00102026290
:1046A000056A436882691C4C25F0020522400C68AB
:1046B00022F0030214438A68194E2A43174D194FFA
:1046C000DFF864C0DFF86490A84207D0B04205D09C
:1046D000B84203D0604501D0484506D122F0080811
:1046E000CA6842EA080222F00402A84207D0B04297
:1046F00005D0B84203D0604501D0484505D14D6989
:1047000023F440731D438B692B43436084614968E4
:1047100041630262BDE8F0838FFFFEFF002C014081
:104720000034014000400140004401400048014085
:10473000F0B5026A22F010020262056A42688369DB
:10474000194C1B4E23400C6823F4407343EA0424A5
:1047500025F020038D6843EA0513144DA84201D0CB
:10476000B04206D1CF6823F0800343EA071323F059
:104770004003A8420AD0B04208D00E4DA84205D04E
:104780000D4DA84202D00D4DA84207D14D6922F42B
:10479000406242EA85028D6942EA85024260846194
:1047A000496881630362F0BDFF8FFFFE002C01406A
:1047B00000340140004001400044014000480140F5
:1047C000F0B5026A22F480720262056A4368C26927
:1047D000194C1B4E22400C6822F00302144325F4AE
:1047E00000728D6842EA0522144DA84201D0B04201
:1047F00006D1CF6822F4006242EA072222F48062E6
:10480000A8420AD0B04208D00E4DA84205D00E4DA5
:10481000A84202D00D4DA84207D14D6923F4405360
:1048200043EA05138D6943EA05134360C46149688F
:10483000C1630262F0BD00008FFFFEFF002C01404B
:104840000034014000400140004401400048014064
:10485000F0B5026A22F480520262056A4268C369B6
:10486000194C1B4E23400C6823F4407343EA042484
:1048700025F400538D6843EA0533144DA84201D056
:10488000B04206D1CF6823F4004343EA073323F450
:104890008043A8420AD0B04208D00E4DA84205D0AD
:1048A0000D4DA84202D00D4DA84207D14D6922F40A
:1048B000404242EA85128D6942EA85124260C46133
:1048C000496801640362F0BDFF8FFFFE002C0140C8
:1048D00000340140004001400044014000480140D4
:1048E00030B5026A22F480320262046A4268036DC3
:1048F000114D2B400D681D4324F400330C8943EA0D
:1049000004430E4CA0420BD00D4CA04208D00D4CDD
:10491000A04205D00C4CA04202D00C4CA04204D1C5
:104920004C6922F4803242EA0422426005654968FB
:104930008164036230BD00008FFFFEFF002C014048
:104940000034014000400140004401400048014063
:1049500030B5026A22F480120262046A4268036D72
:10496000114D24F400142B400D6843EA05230D89F2
:1049700044EA05540D4DA8420BD00D4DA84208D075
:104980000C4DA84205D00C4DA84202D00B4DA842B8
:1049900004D14D6922F4802242EA852242600365F7
:1049A0004968C164046230BDFF8FFFFE002C0140E6
:1049B00000340140004001400044014000480140F3
:1049C00010B5036A046A24F001040462846924F0C7
:1049D000F00444EA021423F00A020A4384610262EA
:1049E00010BD10B5036A23F0100303628369046AE3
:1049F00023F4704343EA023224F0A00343EA011196
:104A00008261016210BD000030B5416EB9B102682B
:104A100091689268C1F342610B4B520F9C5CE500B8
:104A200003F10804A25CB5FBF2F2A0F86A205A5C1C
:104A3000615CD200B2FBF1F1A0F8681030BD012139
:104A4000A0F86A10F8E700008877000890F82810AE
:104A5000C90706D001684A68C36A22F400321A43C3
:104A60004A6090F82810890706D501684A68036BE8
:104A700022F480321A434A6090F82810490706D57C
:104A800001684A68436B22F480221A434A6090F816
:104A90002810090706D501684A68836B22F4004292
:104AA0001A434A6090F82810C90606D501688A683A
:104AB000C36B22F480521A438A6090F8281089064A
:104AC00006D501688A68036C22F400521A438A6092
:104AD00090F82810490611D501684A68436C22F401
:104AE00080121A434A60416CB1F5801F06D10168FB
:104AF0004A68836C22F4C0021A434A6090F8281076
:104B0000090606D501684A68C06C22F400220243F7
:104B10004A607047F8B500260446C0F88C60FDF77F
:104B200071F80546206800686FF07E47000708D5D9
:104B30002B4600224FF400112046009700F054F954
:104B400060B92068006840070AD52B4600224FF460
:104B500080012046009700F047F908B10320F8BD16
:104B60002020C4F88400C4F8880044F86C6F00204A
:104B70002675F8BD2DE9F041044601688068226978
:104B8000E3691043626900251A431043DFF82CC221
:104B90000A688B4B1A4002430A6020684168E26849
:104BA00021F44051114341602168A069614501D061
:104BB000226A10438A68834B1A4002438A60206845
:104BC000C16A626A21F00F011143C1627E49236804
:104BD0007E488B420DD1D0F8880010F0030006D03B
:104BE000012855D0022842D003283FD152E00120AD
:104BF0003DE077498B420BD1D0F8880010F00C00D3
:104C000035D0042833D0082840D00C282ED141E0DC
:104C100070498B420BD1D0F8880010F0300026D0BC
:104C2000102835D0202831D030281FD132E06A49F1
:104C30008B420BD1D0F8880010F0C00017D040286C
:104C400026D0802822D0C02810D123E063450DD182
:104C5000D0F8880010F4406009D0B0F5806F17D00C
:104C6000B0F5006F12D0B0F5406F13D010205B4943
:104C70005B4F00264FF4004263453BD160B10228F0
:104C800013D004280BD0082872D10DE00220EEE7E3
:104C90000420ECE70820EAE7FDF7CEFF01E0FDF78E
:104CA000EFFF010001D17CE01146606A37F8102067
:104CB0006768B1FBF2F007EB4703834270D8B0EBB3
:104CC000073F6DD8002308461946FBF7A1FA0902F1
:104CD00041EA106102027808101871413A46002337
:104CE000FBF796FA3F4AA0F54071914258D82168E7
:104CF000C86056E0E3694FF6EF7893422CD109285B
:104D00004ED2DFE800F00508114D0D4D4D4D10005D
:104D1000FDF792FF01E0FDF7A1FF010004D140E0A3
:104D2000FDF7AEFFF9E71146606A37F81000B1FBF6
:104D3000F0F04100606801EB5001B1FBF0F0A0F130
:104D4000100141452CD84FF6F0710140C0F34200EC
:104D500001432068C16024E0092821D2DFE800F087
:104D6000050912200E2020201100FDF765FF02E04A
:104D700016E0FDF773FF010004D112E0FDF780FF9C
:104D8000F9E71146606A37F81000B1FBF0F160688E
:104D900001EB5001B1FBF0F0A0F1100141450AD93F
:104DA00001250120A4F86A0024F8680F2846A660AF
:104DB000E660BDE8F08180B299E700000080004025
:104DC000F369FFCFFFF4FF110038014000100240EB
:104DD0000044004000480040004C00400024F40023
:104DE00070770008FFFC0F002DE9F0479A46174640
:104DF0000E4604464FF000094FF02008089D4AE097
:104E0000681C48D0FCF7FEFEA0EB0A00A8422AD896
:104E10004DB32068016849073DD5C069C04300050E
:104E200039D421684FF400600862206850E8001F00
:104E300021F4D07140E80012002AF6D12068083031
:104E400050E8001F21F0010140E80012002AF5D1CE
:104E500044F8848FC4F80480C4F8088004F8049CE3
:104E60000320BDE8F087216851E8000F20F4D070DE
:104E700041E80002002AF6D12068083050E8001FFF
:104E800021F0010140E80012002AF5D144F8848F96
:104E9000C4F80480E2E72068C06936EA000004D064
:104EA0000020B842ACD00020DBE70120F9E7000089
:104EB00010B50A46024903A000F09CFA004810BD54
:104EC0005C0A0020437573746F6D20484944204389
:104ED0006F6E666967000000D0F8BC0200210176A1
:104EE0000846704710B5D0F8BC2242B1D0F8C002D5
:104EF00051781278C36810469847002010BD0320EF
:104F000010BD70B50446822100F0D4FA0025A4F843
:104F10004C50A4F84E500221204600F0CBFAA4F8E1
:104F20008C51A4F88E51D4F8BC0248B1D4F8C00218
:104F300004F52F7480688047206800F040FE2560EB
:104F4000002070BD12200880004870472400002017
:104F500010B5D0F8BC421CB16169012902D00AE049
:104F6000032010BDD0F8C00223786178C2681846CB
:104F7000904700206061002010BD00000A210180E0
:104F800000487047AC010020422101800048704772
:104F9000D400002042210180004870471801002001
:104FA00042210180004870475C0100202DE9F0415A
:104FB00004461C2000F004FE05004FF000062DD032
:104FC0000520C4F8BC52A4F84E00A4F88E016087F6
:104FD000082303228221204600F050FB08230322ED
:104FE0008121204600F04AFB0127A4F84C70278756
:104FF000082303220221204600F040FBA4F88C7114
:105000002E76D4F8C0024068804708232A46022141
:10501000204600F03FFB0020BDE8F0810220C4F8EC
:10502000BC62F9E710B50A46024903A000F0E2F9B4
:10503000004810BD5C0A0020437573746F6D2048F2
:10504000494420496E746572666163650000000022
:1050500004200880004870472000002010B50A4650
:10506000024903A000F0C6F9004810BD5C0A002008
:1050700053544D6963726F656C656374726F6E69CA
:105080006373000010B50A46024903A000F0B2F9AC
:10509000004810BD5C0A002053544D333220437544
:1050A00073746F6D2048756D616E20696E746572E2
:1050B000666163650000000010B5D0F8BC222AB11B
:1050C0000823022100F0E6FA002010BD032010BDE5
:1050D00019B1C0F8C012002070470320704710B506
:1050E0001346D0F8BC2222B190F89C42032C02D087
:1050F0000BE0032010BD147E0CB1012010BD012473
:1051000014760A46822100F06CFB002010BD0000DE
:1051100010B51A2008800A480168001D0468001DA7
:105120000068081809D008220649FEF759FD05490C
:10513000042210312046FEF753FD0248801E10BDA8
:105140009075FF1F3A000020F8B50022D0F8BC325D
:105150001546ADF80020144633B10E7816F06006FF
:1051600025D0202E69D101E00320F8BD4A78921E97
:105170000A2A62D2DFE802F01008616161616114FD
:105180000C05887898605BE0012203F1080145E096
:105190004888000AD86053E0012203F10C013DE089
:1051A00001225A61CA88194600F075F848E04E7825
:1051B000062E10D003DC3EB1012E3ED140E00A2E77
:1051C0002FD00B2E39D134E090F89C22032A34D111
:1051D0000222694622E04B882226B6EB132F12D119
:1051E0008B8813B1012B08D017E0CA88222A00D976
:1051F0002222D0F8C0120D680FE0CA883F2A00D9D9
:105200003F22124D09E02126B6EB132F05D10F4D99
:10521000CA88183D092A00D90922294600F055F804
:105220000EE090F89C22032A07D1012203F110011D
:10523000F4E790F89C22032A04D000F021F803241C
:105240002046F8BD88781861FAE70000B801002010
:1052500010B5D0F8B8220AB152689047002010BDAE
:10526000134610B50A46002100F014FA002010BDC4
:10527000134610B50A46002100F0B3FA002010BD15
:1052800010B50446802100F091FA2046BDE8104098
:10529000002100F08BBA10B50323C0F89432C0F897
:1052A00058211346C0F85C210A46002100F0F2F9AB
:1052B000002010BD10B50521C0F8941200231A4635
:1052C000194600F0E7F9002010BD10B50223C0F820
:1052D000943282611346C2610A46002100F081FACD
:1052E000002010BD10B50421C0F8941200231A4606
:1052F000194600F076FA002010BDF8B504460020EB
:10530000ADF8000048880D46010A062947D006DCA2
:1053100001290FD0022912D0032962D11DE00729EB
:1053200046D00F295DD1D4F8B402C26920E06946A5
:1053300090473BE0D4F8B412207C0A68F7E7207C61
:1053400002260028D4F8B80205D0C16A684688470A
:105350000146467036E0816AF8E7C0B2062840D2BE
:10536000DFE800F003090D111519D4F8B402426802
:10537000B2B3207CDBE7D4F8B4028268F8E7D4F853
:10538000B402C268F4E7D4F8B4020269F0E7D4F8D2
:10539000B4024269ECE7D4F8B4028269E8E7207C01
:1053A000F0B9D4F8B802416B68468847014609E075
:1053B000207CA8B9D4F8B802016B6846884701463A
:1053C00007204870EA888AB1BDF8000040B18242E7
:1053D00000D90246ADF800202046FFF776FFF8BD61
:1053E000FFE729462046FFF74BFFF8E72046FFF787
:1053F00079FFF4E770B5002300281ED0002504468D
:1054000002E06D1CEDB2641C2678002EF9D1022456
:1054100004EB450414801278CA545B1C0322CA545E
:1054200000245B1C06E0CA545B1CDAB28C54521C8C
:10543000D3B2401C0278002AF5D170BD01004FF0B4
:10544000000004D0012901D0022901D003207047B7
:105450000120704778B10023C0F8B832C0F8C032DC
:10546000C0F8CC3209B1C0F8B412012180F89C1206
:10547000027000F0B3B80320704710B5134690F8DF
:105480009C42D0F8BC22032C09D1147E0CB101201F
:1054900010BD012414760A46812100F0A2F90020F3
:1054A00010BD10B5D0F8C402FCF7CFFCBDE8104029
:1054B000FFF7C4BF10B5D0F8C402FCF7A0FCBDE8EC
:1054C0001040FFF7BBBF70B51646044621B194F8F3
:1054D0009C02032841D048E0D4F8941204F114004F
:1054E0000025022932D1D0E902318B4206D95A1A5D
:1054F000826031462046FFF7BBFE0FE0994214D18F
:105500004068884211D3D4F8981288420DD2002204
:1055100011462046FFF7ACFEC4F8985200231A4605
:105520001946204600F0B6F810E094F89C020328D3
:1055300005D1D4F8B802C16809B120468847802156
:10554000204600F033F92046FFF7B4FE94F8A0029D
:1055500001280AD184F8A05207E0D4F8B8024269C1
:105560001AB120469047002800D1002070BD10B528
:105570001346044621B194F89C02032823D02AE064
:10558000D4F8941204F5AA70032924D1D0E90212A8
:1055900091420AD98A1A8260C068824200D30246C8
:1055A00019462046FFF75CFE15E094F89C0203289C
:1055B00005D1D4F8B802016909B1204688472046D0
:1055C000FFF790FE07E0D4F8B80282691AB12046CE
:1055D0009047002800D1002010BD000010B51D49E3
:1055E0000446C1F8F002C0F8C4121B480860082045
:1055F0004860022088600861002048618861C861B5
:1056000008620846FCF78DFF08B1FBF7DBFA0022C1
:10561000D4F8C4021823114604F53174FCF7BEFB1C
:105620005823002280212068FCF7B8FB9823002231
:1056300082212068FCF7B2FBD823002202212068D7
:10564000FCF7ACFBF823002281212068FCF7A6FBC5
:10565000002010BD98040020005C00400A0601F004
:105660007F01D0F8C40201EB810100EBC10002D53B
:1056700090F82A00704790F86A01704710B51C46F0
:105680001346D0F8C4022246FCF713FEBDE81040D2
:10569000FFF7D4BE10B5D0F8C402FCF73AFEBDE85F
:1056A0001040FFF7CBBE70B50125044680F89C5230
:1056B0000020C4F894026060C4F8A402D4F8B802D0
:1056C000E0B1D4F8BC1221B1426812B100212046E9
:1056D00090470022402311462046FFF7CFFF402687
:1056E000A4F864513346002280212046C4F860614A
:1056F000FFF7C4FFA5840020266270BD032070BDA3
:1057000090F89C12042903D190F89D1280F89C1205
:105710000020704710B5D0F8B81221B190F89C2243
:10572000032A02D004E0032010BDC96901B18847F3
:10573000002010BD01740020704710B5D0F8C402DD
:10574000FCF7A0FFBDE81040FFF778BE70B5044637
:1057500000F2AA20054600F04DF80120C4F894029A
:10576000B4F8B002C4F8980294F8AA0210F01F012D
:105770000AD001290ED0022912D000F08001204663
:10578000BDE8704000F012B829462046BDE87040E0
:1057900000F0C2B829462046BDE8704000F0E6B9E6
:1057A00029462046BDE8704000F040B910B5D0F859
:1057B000C402FCF7C7FDBDE81040FFF73FBE10B5BF
:1057C000D0F8C402FCF779FFBDE81040FFF736BE01
:1057D00090F89C1280F89D12042180F89C12002001
:1057E000704710B5D0F8C402FCF7DCFDBDE81040EE
:1057F000FFF724BE70B5054611F8010B2870087834
:1058000068704C1C2046FEF73CFE6880A41C2046B5
:10581000FEF737FEA880A01CFEF733FEE88070BDBF
:1058200038B504460020ADF8000049B1C4F8B812FC
:10583000C96A19B168468847C4F8CC02002038BD4F
:10584000032038BD02460320D2F8B832002B02D024
:105850001B681046184770472DE9F0410F462C4E43
:105860008978002504463170012906D93946204639
:10587000FFF706FD0320BDE8F08194F89C020228A2
:105880000CD003281DD039462046FFF7F9FC3178AB
:105890002046FFF7DDFC03252846ECE799B32046B8
:1058A0006160FFF7CFFF050004D039462046FFF7BF
:1058B000E7FCF1E72046FFF715FD032084F89C0282
:1058C000EAE74FF00208C1B1606888421BD0C1B25C
:1058D0002046FFF7BDFC317820466160FFF7B2FF3C
:1058E000050010D039462046FFF7CAFC2179204632
:1058F000FFF7AEFC84F89C82CEE784F89C822046B9
:105900006160FFF7A5FC2046FFF7ECFCC4E7000050
:1059100098000020FFF753BF2DE9F0410A780025D9
:1059200012F0600208D0202A01D0402A71D1D0F8AC
:10593000B8229268904731E04B78002201260A2B6A
:1059400067D2DFE803F0415E6658660805662D29D8
:10595000FFF7D3FC5FE004468888D8B9C888C8B987
:105960004888802816D200F07F0794F89C0203280C
:1059700010D084F89E7239462046FFF7DEFE20469E
:10598000FFF7B0FC1FB1022084F89C0243E084F8CA
:105990009C6240E020463CE0FFF75EFF05463AE0AF
:1059A000CB88012B35D190F89C32012B04D0022BEF
:1059B00002D0032B2DD104E08260012200F1080106
:1059C00016E00122011D13E090F89C22012A03D069
:1059D000022A01D0032A1CD1CA88022A19D1C66022
:1059E000D0F8A41209B10321C160022200F10C0118
:1059F000FFF76BFC0FE0498801290CD1C0F8A462C5
:105A000011E090F89C32012B08D0022B06D0032B1A
:105A100004D0FFF735FC2846BDE8F081498801290C
:105A2000F9D1C0F8A422FFF75DFCF4E72DE9F041BD
:105A30000D46044628780026097910F060000BD046
:105A4000202801D040286DD1D4F8B80229468268B8
:105A500020469047064686E06878A8B3012822D001
:105A600003287CD194F89C02022802D0032876D126
:105A70000BE0002973D0802971D02046FFF796FEF5
:105A800080212046FFF792FE6DE0688838B931B179
:105A9000802904D0E88810B92046FFF787FE204609
:105AA000FFF720FC5FE094F89C020228E1D0032875
:105AB00055D16888A8BB480602D02046FFF7F1FC04
:105AC0002046FFF70FFCBFE7FFE794F89C02002792
:105AD000022802D0032842D111E009B180293ED129
:105AE000080601F07F0000EB800004EB800101D587
:105AF000143101E001F5AA7102220F602BE00806C3
:105B000001F00F0000EB800004EB80000BD5808CCF
:105B100040B101F07F0000EB800004EB80051435FC
:105B20000CE020E01BE0B0F86401C0B101F07F00A0
:105B300000EB800004EB800505F5AA7541B18029D2
:105B400006D02046FFF78AFD10B10120286000E052
:105B50002F60022229462046FFF7B7FB03E02946C3
:105B60002046FFF78DFB3046BDE8F08170B5064654
:105B7000087800240D4610F0600003D0202801D0E2
:105B8000402817D196F89C02012803D0022801D0A2
:105B900003280FD1287901280CD8D6F8B8028268DA
:105BA000304690470446E888204306D13046FFF748
:105BB00099FB02E03046FFF763FB204670BD70475B
:105BC00000487047780400202DE9F0470C78002643
:105BD00030F8243048F68F121340CA78002A7DD05E
:105BE000012A7CD0022A02D0032A79D0012648F269
:105BF0008002134320F824300D7830F8254048F611
:105C00008F731C402C43144320F825400D7B48F231
:105C1000C00748F6BF744CF2800C4BF68F79E5B3A1
:105C2000CD7891F80080022DC24630F828507CD003
:105C300048F68F6805EA080555EA020520F82A505B
:105C4000B0F8505091F80080054405EBC805B1F854
:105C5000088028F00108A5F80084B0F8505091F8A9
:105C60000080054405EBC805B1F80A8028F001085A
:105C7000A5F804844D7891F80080002D30F8285064
:105C80004FEA45457ED0002D06DA30F828501D40F9
:105C900045EA0C0520F8285000E030E091F800C0FB
:105CA00030F82C506D0605D530F82C501D403D4382
:105CB00020F82C50CB780D78012B30F8253003EAF2
:105CC000040301D083F02003134320F825300B7820
:105CD00030F8231001EA0901114302E006E00BE06D
:105CE00007E020F823103046BDE8F08743F4007346
:105CF0007DE743F4C0637AE743F4806377E74D7848
:105D00004DB3B0F8505091F800C0054405EBCC05F8
:105D1000B1F806C02CF0010CA5F800C491F800C041
:105D200030F82C506D0607D500E05BE030F82C50C1
:105D30001D403D4320F82C50CB78012B06D00B782A
:105D400030F82310214081F02001C5E70B7830F8AE
:105D500023102140C0E7B0F850400D78044404EB14
:105D6000C504CD8825F00105A4F80454B0F85040CE
:105D70000D78044404EBC5040D6904F206443E2D7D
:105D80000AD900E034E06F09ED0600D17F1E4FF420
:105D9000004545EA872508E0E5B16F08ED0700D02A
:105DA0007F1C4FF6FF7505EA872525800D7830F8B2
:105DB0002540640406D530F825401C4044EA0C0414
:105DC00020F825400B7830F8231001EA090181F40E
:105DD000405181E7258825F4F8452580258845F43C
:105DE0000045E2E71D4048F2801845EA080525E72E
:105DF000002D06DA30F828501D4045EA0C0520F841
:105E0000285091F800C030F82C506D0605D530F8B8
:105E10002C501D403D4320F82C500D7830F8253093
:105E200003EA090383F44053134320F825308DE738
:105E30002DE9F04391F80C804F780A7848F6BF7C42
:105E40004BF68F7948F2800348F2C0054CF2800689
:105E500048F68F74B8F1000F28D0002F30F8227068
:105E60004FEA474748D0002F05DA30F82270274024
:105E7000374320F822700A7830F822707F0605D563
:105E800030F8227027402F4320F822700D7830F828
:105E900025202240324320F825200C7830F8242099
:105EA00002EA0C021A4320F824201AE07FB130F8ED
:105EB0002260760605D530F8226026402E4320F871
:105EC00022600A7830F8221001EA0C010EE030F866
:105ED00022506D0405D530F822502540354320F876
:105EE00022500A7830F8221001EA0901194320F8FB
:105EF00022100020BDE8F083002F05DA30F8227070
:105F00002740374320F822700A7830F8226076065E
:105F100005D530F8226026402E4320F822600E7806
:105F200030F8262022402A4320F826200C7830F82A
:105F3000242002EA09021A4320F82420C1E730F89D
:105F4000581F41F40041018000207047012120F8D2
:105F5000401F00210180818001820846704730F88F
:105F6000401F4BF68072914301800020704730B58E
:105F70000A7BB2BB4A7848F68F7548F28004C2B1FA
:105F80000B7830F82320520607D530F823202A401A
:105F900048F2C0052A4320F82320CA78012A20D0DD
:105FA0000A7830F8221048F6BF73194081F02001BA
:105FB00014E00A7830F822305B0407D530F822303C
:105FC0002B404CF280052B4320F822300A7830F821
:105FD00022104BF68F73194081F44051214320F871
:105FE0002210002030BD10B54A780978002A48F206
:105FF000800330F8212005D048F6BF74224082F09B
:10600000100204E04BF68F74224082F480521A434F
:1060100020F82120002010BD2DE9F0470D464B78D7
:10602000097B04464FF0000948F68F7248F2800A57
:106030004FF400474FF6FF78012B09D000297DD09F
:10604000E87802287BD001287AD00120BDE8F087CB
:10605000AE692869864200D9064691B1E9780229DD
:106060001ED0286A801B2862287834F82010490640
:10607000B4F85010214401EBC0006ED5A0F80664BE
:10608000FFE0B3B2EA882046696900F035FAB4F857
:1060900050002978204400EBC100A0F80264F6E02B
:1060A000296A814273D9297834F82100104048F2D6
:1060B0008012104324F82100286A801B2862287867
:1060C00034F820104906697876D511B1012921D01C
:1060D00027E0B4F850103E2E214401EBC00000F23E
:1060E000064006D97109F20600D1491E47EA81210E
:1060F0000EE036B17108F20700D0491C08EA812190
:1061000006E0018821F4F8410180018841F4004152
:10611000018006E0B4F85020111901EBC000A0F88E
:1061200006646A89B3B22046696900F0E5F96869D6
:10613000304468612969286A884202E0CCE0EBE0DB
:1061400054E102D9801B286202E00646C5F820907F
:10615000687818B1012824D02BE028E0B4F850006A
:106160002978204400EBC10000F202403E2E06D9FF
:106170007109F20600D1491E47EA81210FE03EB1C4
:106180007108F20700D0491C08EA812107E08EE07F
:10619000018821F4F8410180018841F40041018027
:1061A00007E0B4F850002978204400EBC100A0F8C3
:1061B00002642A8966E0FFE711B1012921D027E0B6
:1061C000B4F850103E2E214401EBC00000F2024012
:1061D00006D97109F20600D1491E47EA81210EE075
:1061E00036B17108F20700D0491C08EA812106E0A7
:1061F000018821F4F8410180018841F400410180C7
:1062000006E0B4F85010214401EBC000A0F802648D
:106210002A89B3B22046696900F06EF96869304492
:1062200068612969286A884202D9801B286202E0D5
:106230000646C5F82090687810B1012830D020E0DB
:10624000B4F850002978204400EBC10000F2064069
:106250003E2E06D97109F20600D1491E47EA812176
:106260000EE036B17108F20700D0491C08EA81211E
:1062700006E0018821F4F8410180018841F40041E1
:1062800001806A89B3B22046696900F035F929783E
:1062900034F8210048F6BF72104080F03000F8E07A
:1062A000B4F850100819297800EBC100E6E62A7806
:1062B00034F8220048F68F63184040EA0A0024F8B8
:1062C0002200B4F850002A78204400EBC2008BB2C0
:1062D000A0F802342A89D6E7A9692869814202D93F
:1062E000091AA961B4E00846C5F81890B0E000BFEB
:1062F00047EA82200EE030B14208C00700D0521CAD
:1063000008EA822006E0088820F4F840088008881F
:1063100040F400400880B4E00BBBB4F8500029788A
:10632000204400EBC100296900F202403E2906D951
:106330004B09C90600D15B1E47EA83210EE031B14B
:106340004B08C90700D05B1C08EA832106E00188DE
:1063500021F4F8410180018841F40041018068780E
:1063600010B1012823D02BE0B4F850002978204444
:1063700000EBC100296900F206403E2906D94B090D
:10638000C90600D15B1E47EA83210EE031B14B08FC
:10639000C90700D05B1C08EA832106E0018821F4CC
:1063A000F8410180018841F40041018008E0B4F81F
:1063B00050100819297800EBC100298AA0F80614AA
:1063C000E86978B3297834F82100430401D54306FD
:1063D00003D444F24003184253D134F82100104052
:1063E00048F2C002104324F821004AE0A969286954
:1063F000814202D9091AA96102E00846C5F818903D
:106400000BBBB4F850102A78214401EBC20101F211
:1064100002413E2807D94209C30600D1521E47EA6D
:1064200082220FE02DE030B14208C30700D0521C99
:1064300008EA822206E00A8822F4F8420A800A88E2
:1064400042F400420A80697811B1012911D018E0A4
:10645000B4F850102A78214401EBC20101F2064140
:106460003E287FF648AF4209C0067FF441AF521E76
:106470003EE7B4F8502011192A7801EBC201A1F8C7
:106480000604297834F821004BF68F72104080F40E
:10649000405040EA0A0024F821000020D6E50021FF
:1064A000A0F844104BF68071A0F84010002070470F
:1064B0000148FBF791BF000098040020B0F84400A9
:1064C000704710B510445C0800F5806008D030F8C3
:1064D000022B01F8012B120A01F8012B641EF6D1E0
:1064E000DA0701D00088087010BD11B98021A0F82A
:1064F0004C1000207047000010B55B1C10445B0876
:1065000000F580600AD000BF11F8012B11F8014B93
:1065100042EA042220F8022B5B1EF5D110BDFEE7F3
:1065200010B540F6FF7400F07FF800F0B7FD00F002
:1065300083F800F0B3FD00F06FF800F0AFFD00BF8E
:1065400000F08AF838B1641EFAD100F0A7FD00F01F
:106550006BF8002010BD00F0A1FD00F065F80120EF
:1065600010BD70B5002500F099FD00246806050EE9
:1065700000F052F800F092FD00F06EF8054300F0D4
:1065800053F800F08BFD641CE4B2082CEED32846CF
:1065900070BD10B500F050F800F03EF800F07EFD40
:1065A00000F052F8BDE8104000F078BD10B500F0E2
:1065B0003BF800F073FD00F047F800F06FFD00F0CD
:1065C0002BF800F06BFD00F037F8BDE8104000F04C
:1065D00065BD000070B504465FF0000500F024F8CA
:1065E00000F05CFD00F05AFD200602D500F024F812
:1065F00001E000F029F86006040E00F04FFD00F005
:106600000BF800F04BFD6D1CEDB2082DE6D3BDE894
:10661000704000F009B80000012210210148FBF78A
:10662000ECBA000000040048002210210148FBF7EA
:10663000E4BA000000040048012220210148FBF7D1
:10664000DCBA000000040048002220210148FBF7CA
:10665000D4BA00000004004820210148FBF7C8BA62
:106660000004004803B401984100009850EAC1209A
:1066700018BF04204A0D18BF40F0010040F2FF721D
:10668000B2EB515F08BF40F00200012808BF0520AF
:1066900002B070470907090E002804DB00F1E02072
:1066A00080F80014704700F00F0000F1E02080F83F
:1066B000141D70470000000010B52F499FED2C1BE2
:1066C0002DED020B84B0059820F000408842D8BF21
:1066D0009DED040B2DDD2949884209D1049840B96C
:1066E0004FF0010000F0D4FC00F0A2FC06B010BD99
:1066F00005DB9DED040B00F08FFC06B010BD684675
:106700009DED040B00F0A0F810F0030004BF9DED18
:10671000021B9DED000B0CD001280ED09DED021B3D
:106720009DED000B022817D0012000F0DDFB06B024
:1067300010BD00F0A5FA06B010BD9DED021B9DED49
:10674000000B012000F0D0FB51EC100B81F0004158
:1067500006B041EC100B10BD00F092FA51EC100B9A
:1067600081F0004106B041EC100B10BD00000000AC
:106770000000000000000000FB21E93F0000F07F66
:1067800010B52F499FED2C1B2DED020B84B0059801
:1067900020F000408842DCBF00209DED040B32DD7C
:1067A0002849884209D1049840B94FF0010000F00F
:1067B0006FFC00F03DFC06B010BD05DB9DED040B49
:1067C00000F02AFC06B010BD68469DED040B00F0F9
:1067D0003BF810F0030011D0012818D09DED021BEA
:1067E0009DED000B02281AD000F04AFA51EC100B74
:1067F00081F0004106B041EC100B10BD9DED021B75
:106800009DED000B012000F06FFB06B010BD9DED6B
:10681000021B9DED000B00F033FA06B010BD012005
:1068200000F062FB51EC100B81F0004106B041EC2E
:10683000100B10BD00000000000000000000000070
:10684000FB21E93F0000F07F2DE9F14F04462DEDDB
:10685000020B2DED088B8AB09FEDE70B80ED020B4C
:10686000139EE74826F0004585420ADC9DED120B99
:10687000002084ED000B0AB0BDEC088B03B0BDE82E
:10688000F08FE0489FEDE0AB9FEDE1BBA84247DD14
:10689000E14F9FEDE39B9FEDE48B9DED120B53ECDD
:1068A0001A2B51EC100B002E1CDDF9F7A7FD41EC63
:1068B000100BBD4208D053EC1B2B51EC100BF9F719
:1068C0009DFDC4E900010BE053EC192B51EC100BBA
:1068D000F9F794FD53EC182BF9F790FDC4E900018A
:1068E0000120C8E7F9F7E9FC41EC100BBD4208D0E4
:1068F00053EC1B2B51EC100BF9F7DFFCC4E9000142
:106900000BE053EC192B51EC100BF9F7D6FC53ECC0
:10691000182BF9F7D2FCC4E900014FF0FF30AAE7C9
:10692000C348A84279DB9DED120B51EC100B00F02F
:10693000EDFB41EC180B9FEDC00B53EC102BF9F75E
:1069400063FD9FEDBF1B53EC112BF9F7B6FCF9F774
:1069500079FF0746F9F739FE41EC190B53EC1A2B76
:10696000F9F752FD53EC182BF9F74BFD41EC180BDE
:1069700053EC1B2B51EC190BF9F746FDDFF8C8A2BD
:1069800041EC100B4FEA15580125FA4453EC102B3B
:1069900051EC180BF9F732FD032DC4E900013DD08D
:1069A000C1F30A5005EB4511A8EB000011398142F3
:1069B00034DA0AEB051BB0EE48AA9BED000BF0EEB3
:1069C00068AA53EC102B51EC190BF9F71DFD41ECA3
:1069D0001B0B51EC1A0B53EC1B2BF9F70FFD41EC81
:1069E000180B51EC1A0B53EC182BF9F707FD53EC6D
:1069F0001B2BF9F703FD9BED020B41EC1A0B53EC3B
:106A0000102B51EC190BF9F7FFFC53EC1A2BF9F78B
:106A1000F5FC41EC100B6D1CB8E70EE0002EA8BF92
:106A20003846BFF628AF94ED000B51EC100B81F007
:106A30000041C4E9000178421DE7C6F3130040F4A9
:106A4000801EC6F30A50A0F2F530471100F01F0572
:106A5000C5F12000DDF848B00890002006900790AE
:106A60000520EC467949002D07EB0002794408BF68
:106A700051F8221009D051F8223001EB8201AB40CD
:106A80004A68089922FA01F11943A1FB0E26A1FBDD
:106A90000B131A449A4234BF0123002303EB060868
:106AA0000CEB8003D3E901A60E448E4234BF0121D2
:106AB000002192448A4411B1924502D903E09245E3
:106AC00001D2012100E00021C3E901A641444CF8B4
:106AD0002010011EA0F10100C4DC029800F100505A
:106AE000850F0298DDE903678000DDF81480F9F76F
:106AF0006CFD41EC1A0B3046F9F778FD9FED541B05
:106B000053EC112BF9F780FC41EC1B0B3846F9F7DD
:106B10006DFD9FED511B53EC112BF9F775FC41EC0A
:106B2000180B4046F9F762FD9FED4D1B53EC112BFE
:106B3000F9F76AFC41EC190B51EC180B53EC192BCB
:106B4000F9F7BBFB53EC1B2BF9F7B7FB53EC1A2BF4
:106B5000F9F7B3FBCDE90801002008909DED080B83
:106B600053EC1A2B51EC100BF9F748FC53EC1B2B90
:106B7000F9F744FC53EC182BF9F740FC53EC192BB4
:106B8000F9F73FFC9FED381B53EC112BF9F73CFC58
:106B90009FED370B41EC180B53EC102B9DED080BC0
:106BA00051EC100BF9F730FC53EC182BF9F785FB7F
:106BB0009FED310B41EC180B53EC102B9DED080BA6
:106BC00051EC100BF9F720FC53EC182BF9F775FB7F
:106BD00041EC100B139810F0004F06D06D4251ECB1
:106BE000100B81F0004141EC100B284684ED000BA6
:106BF00041E600000000000000000000000000006E
:106C0000FB21E93F7CD9024000004054FB21F93FC1
:106C10003163621A61B4D03DFB21F93F00000000EE
:106C20000000601A61B4D03D7370032E8A19A33B33
:106C3000FB2139410000000083C8C96D305FE43F8B
:106C4000000000000000E03F520E0000A00D000018
:106C5000000000000000103E000000000000103C9A
:106C6000000000000000103A182D4454FB21F93DAB
:106C70003326A611460B113C00000054FB21F93DC0
:106C800010B52DED040B2DED088B82B0B0EE419ABE
:106C9000F0EE619A0B9820F000449FED4BABB4F1FD
:106CA000795F11DA9DED0A0B51EC100BF9F7CAFD73
:106CB000002801BFB0EE4A0AF0EE6A0A02B0BDEC4D
:106CC000088B04BF04B010BD9DED0A0B53EC102BD4
:106CD00051EC100BF9F798FB41EC180B3C480621DE
:106CE000B0EE480AF0EE680A784400F081F853EC00
:106CF000182B51EC100BF9F787FB9DED0A0B41ECBB
:106D00001B0B53EC192B51EC100BF9F77DFB41ECED
:106D1000190B53EC1B2B51EC180BF9F775FB53ECCB
:106D2000192BF9F76BFB9FED2C0B41EC190B53EC76
:106D3000102B51EC180BF9F767FB41EC100B2848AE
:106D4000844210DA53EC192B51EC100BF9F756FB77
:106D500053EC1A2BF9F755FB41EC100B02B0BDECCC
:106D6000088B04B010BD1F48A042BCBF9FED1E1B86
:106D70008DED001B06DBA4F50010019000200090B3
:106D80009DED001B51EC100B53EC112BF9F736FB6A
:106D90009DED000B41EC180B53EC102B51EC1A0B32
:106DA000F9F72CFB41EC1A0B53EC192B51EC180B97
:106DB000F9F724FB53EC1A2BF9F723FB41EC100BEA
:106DC000CCE7000000000000000000000000F03FE1
:106DD000C40A000000000000000000000000E03FC6
:106DE0003333D33F0000E93F000000000000D23FF2
:106DF00070B504462DED028B4D1E00EBC500B0EEC4
:106E0000408AF0EE608A90ED000B35F0060017D056
:106E100053EC182B51EC100BF9F7F6FA41EC100B70
:106E20006D1E04EBC50090ED001B51EC100B53ECF4
:106E3000112BF9F742FA41EC100B35F00600E7D1BF
:106E4000022D36D0042D1CD0062D1CBFBDEC028BAC
:106E500070BD53EC182B51EC100BF9F7D5FA94EDEB
:106E60000A1B53EC112BF9F728FA53EC182BF9F7FE
:106E7000CBFA94ED081B53EC112BF9F71EFA41ECF9
:106E8000100B53EC182B51EC100BF9F7BDFA94EDE5
:106E9000061B53EC112BF9F710FA53EC182BF9F7EA
:106EA000B3FA94ED040B53EC102BF9F706FA41EC0E
:106EB000100B53EC182B51EC100BF9F7A5FA94EDCD
:106EC000021B53EC112BF9F7F8F953EC182BF9F7D7
:106ED0009BFA94ED001B53EC112BF9F7EEF9BDEC86
:106EE000028B41EC100B70BD31B504462DED040B47
:106EF0002DED0A8BB0EE41BAF0EE61BA0B989DED24
:106F00000A0B20F00040B0F1795F0DDA51EC100B64
:106F1000FFF7A8FB042808BF00F09AF89DED0A0BC4
:106F2000BDEC0A8B05B030BD53EC102B51EC100BAF
:106F3000F9F76AFA41EC180B9DED0A0B53EC182B8C
:106F400051EC100BF9F760FA41EC190B2C48B0EE3C
:106F5000480AF0EE680A05217844FFF749FF9FEDE3
:106F60002ACBB0EE40AAF0EE60AA9CB353EC1C2BE7
:106F700051EC190BF9F748FA41EC1C0B53EC1A2BA6
:106F800051EC190BF9F740FA9FED210B41EC190B6D
:106F900053EC102B51EC1B0BF9F736FA53EC192B71
:106FA000F9F72CFA53EC182BF9F72EFA53EC1B2BAC
:106FB000F9F724FA53EC1C2BF9F720FA9DED0A1B84
:106FC00053EC112BF9F71DFABDEC0A8B05B041EC1F
:106FD000100B30BDFFE753EC1A2B51EC180BF9F7EF
:106FE00013FA53EC1C2BF9F768F953EC192BF9F74A
:106FF0000BFA9DED0A1B53EC112BF9F75EF9E3E751
:107000004C09000000000000495555555555C5BFB5
:10701000000000000000E03F10B553EC102B51ECD5
:10702000100BF9F74AF941EC100B10BD00000000FD
:107030009FED050B10B553EC102B51EC100BF9F72D
:1070400055FA41EC100B10BD0000000000000000DC
:107050009FED050B10B553EC102B51EC100BF9F70D
:10706000D3F941EC100B10BD00000000000000102F
:1070700002E008C8121F08C1002AFAD17047704701
:10708000002001E001C1121F002AFBD1704700005F
:107090000149086070470000340200206420401E4F
:1070A000FDD2704770B5124D286BF9F7ACFA9FED21
:1070B000111B53EC112BF9F7A7F9F9F7CFFA044696
:1070C000F9F7A1FA41EC100BFFF7F6FA51EC100BAF
:1070D000F9F7C4FAE8622046F9F795FA41EC100B8B
:1070E000FFF74EFB51EC100BF9F7B8FAA86270BD30
:1070F0005C0C00201320359D46DF913F0A46014677
:107100000148FDF7ECBF00008C07002082B0CDE9FC
:10711000000121F0004001909DED000B02B051EC08
:10712000100B704711489FED100A002180ED000AF6
:10713000B0EE000A80ED010AB7EE000A80ED0F0AFA
:10714000B2EE060A80ED0D0AB2EE080A80ED0E0AD4
:107150009FED070A80ED190AB6EE000A80ED1A0AC3
:10716000A0F86C1070470000000000005C0C0020CC
:1071700000003443014890ED080A70475C0C002081
:1071800070B5144800F10805046828682044F9F730
:107190002DFA9FED111B53EC112BF9F735F9F9F787
:1071A0005DFA00EE100A2C60BCEEC00A10EE100A68
:1071B000F9F71CFA9FED0A1B53EC112BF9F724F990
:1071C000F9F74CFA00EE100ADFED070A20EE200A6C
:1071D00070BD000018020020000000000000E03F29
:1071E000000000000000403F00007A4470B51448E1
:1071F00000F10805446868682044F9F7F7F99FED45
:10720000111B53EC112BF9F7FFF8F9F727FA00EEF1
:10721000100A6C60BCEEC00A10EE100AF9F7E6F92D
:107220009FED0A1B53EC112BF9F7EEF8F9F716FA5C
:1072300000EE100ADFED070A20EE200A70BD000004
:1072400018020020000000000000E03F00000000E5
:107250000000403F00007A441CB500240094052043
:107260008DF800004F208DF8020001940822694635
:107270000948FEF702F90F20FAF784FB8DF8004069
:107280008DF80240082269460348FEF7F6F80F2001
:10729000FAF778FB1CBD00008C07002010B50F4CDE
:1072A0002078002818D0601C0178EF2914D1C1790A
:1072B000AB2911D14078122804D0222805D03228D9
:1072C00006D007E0F9F7F4FB04E0FDF7CBF801E0A6
:1072D000FCF7ECFE0020207010BD0000280200200A
:1072E0001CB5EF208DF8000014208DF801002E2031
:1072F0008DF8020010EE100A0821CDF80300AB2033
:107300008DF807006846FFF7F9FE1CBD70B50D4605
:107310000446FFF73EF92046FFF75CF9FFF700F956
:107320002846FFF757F9FFF7FBF8FFF732F9641C1F
:10733000E0B2FFF74FF9FFF7F3F8FFF712F9044651
:10734000FFF7EEF8FFF732F9204670BD86B0FAF786
:1073500067FCFDF7D5F814216846F8F7A3FF1C4831
:10736000C16C41F00101C164C06C4FF4805400F065
:1073700001004FF090450590002221462846FAF77B
:107380003CFC012100200094CDE9011003916946E5
:107390002846FAF709FB002221462846FAF72DFC79
:1073A000FCF7FAFCFCF7DAFCFCF754FEFCF77EFC79
:1073B000FCF74AFDFCF7B2FDFCF7E4FDFCF716FE16
:1073C0004FF47A70FAF7DEFAF9F706FBFEE70000F1
:1073D0000010024010B500F0FFF80C4AD2ED190A77
:1073E00030EE800A00F09EF982ED0C0AFFF75AFE9B
:1073F00000F0B0F9F9F746FBFDF720F8FCF70CFCBC
:10740000F9F736FCBDE81040F9F7DEBB5C0C002054
:1074100010B52DED028B00F0DFF8B0EE408A2C4C59
:10742000FDEEC88AB4F86C1018EE900A401A00D528
:107430004042F9F7CAF89FED271B53EC112BF9F7DF
:10744000F5F810D3B4F86C009FED240A70EE480AEA
:1074500000EE100AB8EE400A30EE800A10EE101A64
:10746000B1F17F5F05DABDEC028BBDE8104000F0A2
:107470003BB818EE901A9FED1A0A091A00D5494236
:1074800001EE100ADFED170AB429B8EE411A05DC47
:10749000B4EEC81AF1EE10FA05D306E0B4EEC81A3D
:1074A000F1EE10FA01D3B0EE600A38EE000A00F0F7
:1074B00039F984ED0C0AFFF7F5FDFCF7ADFBF9F7A0
:1074C000D7FBBDEC028BBDE81040F9F77DBB000097
:1074D0005C0C0020000000000000F83F0000B443F6
:1074E000000000000000344304480021026851639A
:1074F000026891630068C1637047000004030020C4
:1075000010B500210948FCF7E3F904210748FCF70E
:10751000DFF908210548FCF7DBF90448002102687F
:107520005163026891630068C16310BD04030020C9
:1075300010EE100A4FF07E51F7EE001A884201DD7E
:10754000B0EE610A9FED212AB5EEC00AF1EE10FA05
:1075500001D2B0EE420A10EE900A884201DDF0EE50
:10756000610AF5EEC00AF1EE10FA01D2F0EE420A1D
:1075700011EE100A884201DDB0EE611AB5EEC01AB4
:10758000F1EE10FA01D2B0EE421A9FED112AF0EEA0
:10759000612A104850EE022A0268BCEEE20A10EEA0
:1075A000101A5163B0EE610A026810EE820ABCEE56
:1075B000C00A10EE101A916351EE021A0068BCEE78
:1075C000E10A10EE101AC1637047000000000000CD
:1075D000008054450403002010B50F216C20FFF7F4
:1075E00095FE04460E216C20FFF790FE04EB002070
:1075F00000EE100ADFED280A2849B8EE400A9FED98
:10760000291A20EE200ADFED260A10EE100A884221
:1076100002DA30EEC00A03E031EE400A30EE200A12
:107620002248234ADFED201AD0ED050A10EE901A09
:1076300091421FD1C0ED051AD0ED000A1D4A70EE2F
:10764000600A10EE901A914202DD70EEC10A06E067
:1076500010EE901A184A914201D970EE810AF1EEAB
:10766000600AC0ED010A90ED021A80ED031AC0ED28
:10767000020A0CE0F5EEC00AB7EE001AF1EE10FABD
:1076800001D180ED000A70EE810AC0ED050A80ED9F
:10769000000A80ED040A10BD0000B43D00008743DD
:1076A000000087430000B4430000000000020020F7
:1076B0000000204100008C4300008CC310B508B1CD
:1076C000002000E00120F8F791FF9FED051B53EC2F
:1076D000112BF8F799FEF8F7C1FF0349486610BD72
:1076E00000000000008066405C0C0020014880ED36
:1076F000000A70475C0C0020014880ED010A7047C9
:107700005C0C00200149A1F86C0070475C0C002063
:10771000022202490248F9F7B9BF0000180200200E
:107720003802002008480A49D0ED0D0A20EE800AF0
:10773000DFED060A02E000BF30EE600A10EE100A2C
:107740008842F9DC704700005C0C00200000B44364
:107750000000B44310B5FFF713FD044C84ED020A9A
:10776000FFF744FD84ED030A10BD00005C0C00200F
:10777000010002000400060008000A000C001000CE
:10778000200040008000000101010103070100000A
:1077900008040204080101010000000000000000CC
:1077A00001020304060708090000000001020304A7
:1077B0004C5555555555A53F7751C1166CC156BF0F
:1077C0009015CB19A001FA3EAD529C804F7E92BE1F
:1077D000C4B1B4BD9EEE213ED43888BEE9FAA8BD3E
:1077E00000004054FB21F93F3163621A61B4D03D7F
:1077F0000000601A61B4D03D7370032E8A19A33B58
:107800000000002E8A19A33BC14920259A837B39A9
:1078100000000000000000006E83F9A22915444E0C
:10782000D15727FCC0DD34F5999562DB4190433C8C
:10783000AB6351FE61C5BBDE3A6E24B7E0D24D4268
:10784000EA2E49061C92D1091CEB1DFE3EA729B168
:10785000F53582E88444BB2E26709CE9417E5FB4F6
:1078600039D69139F43953838B5F849C3B28F9BD19
:10787000FF97F81F0F9805DE8B112FEF1F6D0A5A27
:10788000CF7E366DB709CB27663F464F2DEA5F9E08
:10789000C7BA27757BF1E5EBF739073DEA92528AC3
:1078A000B15FFB6B085D8D1FA6F810111111813FB0
:1078B000D561C119A0012ABF7DFEB157E31DC73EA6
:1078C000EB9C2B8AE6E55ABE7CD5CF5A3AD9E53DEA
:1078D000F07800080000002038020000820800084C
:1078E000007A000838020020982A00008070000802
:1078F00013454F140851501B085D041A85041311D9
:10790000511408B14E1B08250C4117040309041239
:107910000132021640C410CD822602010203010387
:107920001A1A0312061009FF0901A1010901151312
:1079300026FF9F9508750881020D249102C02254EC
:1079400014203F0A1B083B041A45043210195761E2
:107950005324F41AAD9C1A03041A4994411A510C89
:107960001AD99C1AE504C11A95181A89041AA10497
:107970001A7D041C090242A71125C0FA09042A0233
:10798000A9150921110114012222160705820308F5
:107990002D05070502071B0904166C030101201AB7
:1079A0003F202A8119193219441919092044011B51
:1079B0000942446AA93231130A06320233400110E7
:1079C0000E05010906A101050719E029E715281A86
:1079D00025017501950881029501750881039505BA
:1079E00075010508190129059112180803910395DD
:1079F000067508261AFF3011142965810241C0005E
:04000005080001D915
:00000001FF
