Component: ARM Compiler 5.06 update 6 (build 750) Tool: armlink [4d35ed]

==============================================================================

Section Cross References

    startup_stm32g431xx.o(RESET) refers to startup_stm32g431xx.o(STACK) for __initial_sp
    startup_stm32g431xx.o(RESET) refers to startup_stm32g431xx.o(.text) for Reset_Handler
    startup_stm32g431xx.o(RESET) refers to stm32g4xx_it.o(i.NMI_Handler) for NMI_Handler
    startup_stm32g431xx.o(RESET) refers to stm32g4xx_it.o(i.HardFault_Handler) for HardFault_Handler
    startup_stm32g431xx.o(RESET) refers to stm32g4xx_it.o(i.MemManage_Handler) for MemManage_Handler
    startup_stm32g431xx.o(RESET) refers to stm32g4xx_it.o(i.BusFault_Handler) for BusFault_Handler
    startup_stm32g431xx.o(RESET) refers to stm32g4xx_it.o(i.UsageFault_Handler) for UsageFault_Handler
    startup_stm32g431xx.o(RESET) refers to stm32g4xx_it.o(i.SVC_Handler) for SVC_Handler
    startup_stm32g431xx.o(RESET) refers to stm32g4xx_it.o(i.DebugMon_Handler) for DebugMon_Handler
    startup_stm32g431xx.o(RESET) refers to stm32g4xx_it.o(i.PendSV_Handler) for PendSV_Handler
    startup_stm32g431xx.o(RESET) refers to stm32g4xx_it.o(i.SysTick_Handler) for SysTick_Handler
    startup_stm32g431xx.o(RESET) refers to stm32g4xx_it.o(i.DMA1_Channel1_IRQHandler) for DMA1_Channel1_IRQHandler
    startup_stm32g431xx.o(RESET) refers to stm32g4xx_it.o(i.USB_LP_IRQHandler) for USB_LP_IRQHandler
    startup_stm32g431xx.o(RESET) refers to stm32g4xx_it.o(i.TIM1_UP_TIM16_IRQHandler) for TIM1_UP_TIM16_IRQHandler
    startup_stm32g431xx.o(RESET) refers to stm32g4xx_it.o(i.TIM2_IRQHandler) for TIM2_IRQHandler
    startup_stm32g431xx.o(RESET) refers to stm32g4xx_it.o(i.TIM3_IRQHandler) for TIM3_IRQHandler
    startup_stm32g431xx.o(.text) refers to system_stm32g4xx.o(i.SystemInit) for SystemInit
    startup_stm32g431xx.o(.text) refers to entry.o(.ARM.Collect$$$$00000000) for __main
==============================================================================

Removing Unused input sections from the image.

    Removing startup_stm32g431xx.o(HEAP), (1792 bytes).
    Removing main.o(.rev16_text), (4 bytes).
    Removing main.o(.revsh_text), (4 bytes).
    Removing main.o(.rrx_text), (6 bytes).
    Removing gpio.o(.rev16_text), (4 bytes).
    Removing gpio.o(.revsh_text), (4 bytes).
    Removing gpio.o(.rrx_text), (6 bytes).
    Removing adc.o(.rev16_text), (4 bytes).
    Removing adc.o(.revsh_text), (4 bytes).
    Removing adc.o(.rrx_text), (6 bytes).
    Removing adc.o(i.HAL_ADC_MspDeInit), (48 bytes).
    Removing dma.o(.rev16_text), (4 bytes).
    Removing dma.o(.revsh_text), (4 bytes).
    Removing dma.o(.rrx_text), (6 bytes).
    Removing tim.o(.rev16_text), (4 bytes).
    Removing tim.o(.revsh_text), (4 bytes).
    Removing tim.o(.rrx_text), (6 bytes).
    Removing tim.o(i.HAL_TIM_Base_MspDeInit), (56 bytes).
==============================================================================

Image Symbol Table

    Local Symbols

    Symbol Name                              Value     Ov Type        Size  Object(Section)

    ../Core/Src/adc.c                        0x00000000   Number         0  adc.o ABSOLUTE
    ../Core/Src/dma.c                        0x00000000   Number         0  dma.o ABSOLUTE
    ../Core/Src/gpio.c                       0x00000000   Number         0  gpio.o ABSOLUTE
    ../Core/Src/main.c                       0x00000000   Number         0  main.o ABSOLUTE
    ../Core/Src/stm32g4xx_hal_msp.c          0x00000000   Number         0  stm32g4xx_hal_msp.o ABSOLUTE
    ../Core/Src/stm32g4xx_it.c               0x00000000   Number         0  stm32g4xx_it.o ABSOLUTE
    ../Core/Src/system_stm32g4xx.c           0x00000000   Number         0  system_stm32g4xx.o ABSOLUTE
    ../Core/Src/tim.c                        0x00000000   Number         0  tim.o ABSOLUTE
    ../Core/Src/usart.c                      0x00000000   Number         0  usart.o ABSOLUTE
    ../Drivers/STM32G4xx_HAL_Driver/Src/stm32g4xx_hal.c 0x00000000   Number         0  stm32g4xx_hal.o ABSOLUTE
    ../Drivers/STM32G4xx_HAL_Driver/Src/stm32g4xx_hal_adc.c 0x00000000   Number         0  stm32g4xx_hal_adc.o ABSOLUTE
    ../Drivers/STM32G4xx_HAL_Driver/Src/stm32g4xx_hal_adc_ex.c 0x00000000   Number         0  stm32g4xx_hal_adc_ex.o ABSOLUTE
    ../Drivers/STM32G4xx_HAL_Driver/Src/stm32g4xx_hal_cortex.c 0x00000000   Number         0  stm32g4xx_hal_cortex.o ABSOLUTE
    ../Drivers/STM32G4xx_HAL_Driver/Src/stm32g4xx_hal_dma.c 0x00000000   Number         0  stm32g4xx_hal_dma.o ABSOLUTE
    ../Drivers/STM32G4xx_HAL_Driver/Src/stm32g4xx_hal_dma_ex.c 0x00000000   Number         0  stm32g4xx_hal_dma_ex.o ABSOLUTE
    ../Drivers/STM32G4xx_HAL_Driver/Src/stm32g4xx_hal_exti.c 0x00000000   Number         0  stm32g4xx_hal_exti.o ABSOLUTE
    ../Drivers/STM32G4xx_HAL_Driver/Src/stm32g4xx_hal_flash.c 0x00000000   Number         0  stm32g4xx_hal_flash.o ABSOLUTE
    ../Drivers/STM32G4xx_HAL_Driver/Src/stm32g4xx_hal_flash_ex.c 0x00000000   Number         0  stm32g4xx_hal_flash_ex.o ABSOLUTE
    ../Drivers/STM32G4xx_HAL_Driver/Src/stm32g4xx_hal_flash_ramfunc.c 0x00000000   Number         0  stm32g4xx_hal_flash_ramfunc.o ABSOLUTE
    ../Drivers/STM32G4xx_HAL_Driver/Src/stm32g4xx_hal_gpio.c 0x00000000   Number         0  stm32g4xx_hal_gpio.o ABSOLUTE
    ../Drivers/STM32G4xx_HAL_Driver/Src/stm32g4xx_hal_pcd.c 0x00000000   Number         0  stm32g4xx_hal_pcd.o ABSOLUTE
    ../Drivers/STM32G4xx_HAL_Driver/Src/stm32g4xx_hal_pcd_ex.c 0x00000000   Number         0  stm32g4xx_hal_pcd_ex.o ABSOLUTE
    ../Drivers/STM32G4xx_HAL_Driver/Src/stm32g4xx_hal_pwr.c 0x00000000   Number         0  stm32g4xx_hal_pwr.o ABSOLUTE
    ../Drivers/STM32G4xx_HAL_Driver/Src/stm32g4xx_hal_pwr_ex.c 0x00000000   Number         0  stm32g4xx_hal_pwr_ex.o ABSOLUTE
    ../Drivers/STM32G4xx_HAL_Driver/Src/stm32g4xx_hal_rcc.c 0x00000000   Number         0  stm32g4xx_hal_rcc.o ABSOLUTE
    ../Drivers/STM32G4xx_HAL_Driver/Src/stm32g4xx_hal_rcc_ex.c 0x00000000   Number         0  stm32g4xx_hal_rcc_ex.o ABSOLUTE
    ../Drivers/STM32G4xx_HAL_Driver/Src/stm32g4xx_hal_tim.c 0x00000000   Number         0  stm32g4xx_hal_tim.o ABSOLUTE
    ../Drivers/STM32G4xx_HAL_Driver/Src/stm32g4xx_hal_tim_ex.c 0x00000000   Number         0  stm32g4xx_hal_tim_ex.o ABSOLUTE
    ../Drivers/STM32G4xx_HAL_Driver/Src/stm32g4xx_hal_uart.c 0x00000000   Number         0  stm32g4xx_hal_uart.o ABSOLUTE
    ../Drivers/STM32G4xx_HAL_Driver/Src/stm32g4xx_hal_uart_ex.c 0x00000000   Number         0  stm32g4xx_hal_uart_ex.o ABSOLUTE
    ../Drivers/STM32G4xx_HAL_Driver/Src/stm32g4xx_ll_adc.c 0x00000000   Number         0  stm32g4xx_ll_adc.o ABSOLUTE
    ../Drivers/STM32G4xx_HAL_Driver/Src/stm32g4xx_ll_usb.c 0x00000000   Number         0  stm32g4xx_ll_usb.o ABSOLUTE
    ../Middlewares/ST/STM32_USB_Device_Library/Class/CustomHID/Src/usbd_customhid.c 0x00000000   Number         0  usbd_customhid.o ABSOLUTE
    ../Middlewares/ST/STM32_USB_Device_Library/Core/Src/usbd_core.c 0x00000000   Number         0  usbd_core.o ABSOLUTE
    ../Middlewares/ST/STM32_USB_Device_Library/Core/Src/usbd_ctlreq.c 0x00000000   Number         0  usbd_ctlreq.o ABSOLUTE
    ../Middlewares/ST/STM32_USB_Device_Library/Core/Src/usbd_ioreq.c 0x00000000   Number         0  usbd_ioreq.o ABSOLUTE
    ../USB_Device/App/usb_device.c           0x00000000   Number         0  usb_device.o ABSOLUTE
    ../USB_Device/App/usbd_custom_hid_if.c   0x00000000   Number         0  usbd_custom_hid_if.o ABSOLUTE
    ../USB_Device/App/usbd_desc.c            0x00000000   Number         0  usbd_desc.o ABSOLUTE
    ../USB_Device/Target/usbd_conf.c         0x00000000   Number         0  usbd_conf.o ABSOLUTE
    ../clib/../cmprslib/zerorunl2.c          0x00000000   Number         0  __dczerorl2.o ABSOLUTE
    ../clib/microlib/division.c              0x00000000   Number         0  uldiv.o ABSOLUTE
    ../clib/microlib/errno.c                 0x00000000   Number         0  errno.o ABSOLUTE
    ../clib/microlib/init/entry.s            0x00000000   Number         0  entry9b.o ABSOLUTE
    ../clib/microlib/init/entry.s            0x00000000   Number         0  entry7a.o ABSOLUTE
    ../clib/microlib/init/entry.s            0x00000000   Number         0  entry11b.o ABSOLUTE
    ../clib/microlib/init/entry.s            0x00000000   Number         0  entry5.o ABSOLUTE
    ../clib/microlib/init/entry.s            0x00000000   Number         0  entry2.o ABSOLUTE
    ../clib/microlib/init/entry.s            0x00000000   Number         0  entry11a.o ABSOLUTE
    ../clib/microlib/init/entry.s            0x00000000   Number         0  entry10b.o ABSOLUTE
    ../clib/microlib/init/entry.s            0x00000000   Number         0  entry8b.o ABSOLUTE
    ../clib/microlib/init/entry.s            0x00000000   Number         0  entry10a.o ABSOLUTE
    ../clib/microlib/init/entry.s            0x00000000   Number         0  entry8a.o ABSOLUTE
    ../clib/microlib/init/entry.s            0x00000000   Number         0  entry9a.o ABSOLUTE
    ../clib/microlib/init/entry.s            0x00000000   Number         0  entry.o ABSOLUTE
    ../clib/microlib/init/entry.s            0x00000000   Number         0  entry7b.o ABSOLUTE
    ../clib/microlib/longlong.c              0x00000000   Number         0  llshl.o ABSOLUTE
    ../clib/microlib/longlong.c              0x00000000   Number         0  llsshr.o ABSOLUTE
    ../clib/microlib/longlong.c              0x00000000   Number         0  llushr.o ABSOLUTE
    ../clib/microlib/string/memcpy.c         0x00000000   Number         0  memcpya.o ABSOLUTE
    ../clib/microlib/string/memcpy.c         0x00000000   Number         0  memcpyb.o ABSOLUTE
    ../clib/microlib/string/memset.c         0x00000000   Number         0  memseta.o ABSOLUTE
    ../clib/microlib/stubs.s                 0x00000000   Number         0  iusefp.o ABSOLUTE
    ../fplib/microlib/d2f.c                  0x00000000   Number         0  d2f.o ABSOLUTE
    ../fplib/microlib/f2d.c                  0x00000000   Number         0  f2d.o ABSOLUTE
    ../fplib/microlib/fpadd.c                0x00000000   Number         0  dadd.o ABSOLUTE
    ../fplib/microlib/fpdiv.c                0x00000000   Number         0  ddiv.o ABSOLUTE
    ../fplib/microlib/fpepilogue.c           0x00000000   Number         0  fepilogue.o ABSOLUTE
    ../fplib/microlib/fpepilogue.c           0x00000000   Number         0  depilogue.o ABSOLUTE
    ../fplib/microlib/fpfix.c                0x00000000   Number         0  dfixi.o ABSOLUTE
    ../fplib/microlib/fpflt.c                0x00000000   Number         0  dfltui.o ABSOLUTE
    ../fplib/microlib/fpflt.c                0x00000000   Number         0  dflti.o ABSOLUTE
    ../fplib/microlib/fpmul.c                0x00000000   Number         0  dmul.o ABSOLUTE
    ../fplib/microlib/fpneg.c                0x00000000   Number         0  dneg.o ABSOLUTE
    ../mathlib/cos.c                         0x00000000   Number         0  cos_x.o ABSOLUTE
    ../mathlib/cos.c                         0x00000000   Number         0  cos.o ABSOLUTE
    ../mathlib/cos_i.c                       0x00000000   Number         0  cos_i.o ABSOLUTE
    ../mathlib/dunder.c                      0x00000000   Number         0  dunder.o ABSOLUTE
    ../mathlib/fabs.c                        0x00000000   Number         0  fabs.o ABSOLUTE
    ../mathlib/fpclassify.c                  0x00000000   Number         0  fpclassify.o ABSOLUTE
    ../mathlib/poly.c                        0x00000000   Number         0  poly.o ABSOLUTE
    ../mathlib/rred.c                        0x00000000   Number         0  rred.o ABSOLUTE
    ../mathlib/sin.c                         0x00000000   Number         0  sin.o ABSOLUTE
    ../mathlib/sin.c                         0x00000000   Number         0  sin_x.o ABSOLUTE
    ../mathlib/sin_i.c                       0x00000000   Number         0  sin_i.o ABSOLUTE
    ../mathlib/sin_i.c                       0x00000000   Number         0  sin_i_x.o ABSOLUTE
    ..\BSP\AS5600.c                          0x00000000   Number         0  as5600.o ABSOLUTE
    ..\BSP\FOC.c                             0x00000000   Number         0  foc.o ABSOLUTE
    ..\BSP\IIC.c                             0x00000000   Number         0  iic.o ABSOLUTE
    ..\BSP\PID.c                             0x00000000   Number         0  pid.o ABSOLUTE
    ..\BSP\PWM.c                             0x00000000   Number         0  pwm.o ABSOLUTE
    ..\BSP\USB_HIDCommunication.c            0x00000000   Number         0  usb_hidcommunication.o ABSOLUTE
    ..\BSP\electricity_get.c                 0x00000000   Number         0  electricity_get.o ABSOLUTE
    ..\Core\Src\adc.c                        0x00000000   Number         0  adc.o ABSOLUTE
    ..\Core\Src\dma.c                        0x00000000   Number         0  dma.o ABSOLUTE
    ..\Core\Src\gpio.c                       0x00000000   Number         0  gpio.o ABSOLUTE
    ..\Core\Src\main.c                       0x00000000   Number         0  main.o ABSOLUTE
    ..\Core\Src\stm32g4xx_hal_msp.c          0x00000000   Number         0  stm32g4xx_hal_msp.o ABSOLUTE
    ..\Core\Src\stm32g4xx_it.c               0x00000000   Number         0  stm32g4xx_it.o ABSOLUTE
    ..\Core\Src\system_stm32g4xx.c           0x00000000   Number         0  system_stm32g4xx.o ABSOLUTE
    ..\Core\Src\tim.c                        0x00000000   Number         0  tim.o ABSOLUTE
    ..\Core\Src\usart.c                      0x00000000   Number         0  usart.o ABSOLUTE
    ..\Drivers\STM32G4xx_HAL_Driver\Src\stm32g4xx_hal.c 0x00000000   Number         0  stm32g4xx_hal.o ABSOLUTE
    ..\Drivers\STM32G4xx_HAL_Driver\Src\stm32g4xx_hal_adc.c 0x00000000   Number         0  stm32g4xx_hal_adc.o ABSOLUTE
    ..\Drivers\STM32G4xx_HAL_Driver\Src\stm32g4xx_hal_adc_ex.c 0x00000000   Number         0  stm32g4xx_hal_adc_ex.o ABSOLUTE
    ..\Drivers\STM32G4xx_HAL_Driver\Src\stm32g4xx_hal_cortex.c 0x00000000   Number         0  stm32g4xx_hal_cortex.o ABSOLUTE
    ..\Drivers\STM32G4xx_HAL_Driver\Src\stm32g4xx_hal_dma.c 0x00000000   Number         0  stm32g4xx_hal_dma.o ABSOLUTE
    ..\Drivers\STM32G4xx_HAL_Driver\Src\stm32g4xx_hal_dma_ex.c 0x00000000   Number         0  stm32g4xx_hal_dma_ex.o ABSOLUTE
    ..\Drivers\STM32G4xx_HAL_Driver\Src\stm32g4xx_hal_exti.c 0x00000000   Number         0  stm32g4xx_hal_exti.o ABSOLUTE
    ..\Drivers\STM32G4xx_HAL_Driver\Src\stm32g4xx_hal_flash.c 0x00000000   Number         0  stm32g4xx_hal_flash.o ABSOLUTE
    ..\Drivers\STM32G4xx_HAL_Driver\Src\stm32g4xx_hal_flash_ex.c 0x00000000   Number         0  stm32g4xx_hal_flash_ex.o ABSOLUTE
    ..\Drivers\STM32G4xx_HAL_Driver\Src\stm32g4xx_hal_flash_ramfunc.c 0x00000000   Number         0  stm32g4xx_hal_flash_ramfunc.o ABSOLUTE
    ..\Drivers\STM32G4xx_HAL_Driver\Src\stm32g4xx_hal_gpio.c 0x00000000   Number         0  stm32g4xx_hal_gpio.o ABSOLUTE
    ..\Drivers\STM32G4xx_HAL_Driver\Src\stm32g4xx_hal_pcd.c 0x00000000   Number         0  stm32g4xx_hal_pcd.o ABSOLUTE
    ..\Drivers\STM32G4xx_HAL_Driver\Src\stm32g4xx_hal_pcd_ex.c 0x00000000   Number         0  stm32g4xx_hal_pcd_ex.o ABSOLUTE
    ..\Drivers\STM32G4xx_HAL_Driver\Src\stm32g4xx_hal_pwr.c 0x00000000   Number         0  stm32g4xx_hal_pwr.o ABSOLUTE
    ..\Drivers\STM32G4xx_HAL_Driver\Src\stm32g4xx_hal_pwr_ex.c 0x00000000   Number         0  stm32g4xx_hal_pwr_ex.o ABSOLUTE
    ..\Drivers\STM32G4xx_HAL_Driver\Src\stm32g4xx_hal_rcc.c 0x00000000   Number         0  stm32g4xx_hal_rcc.o ABSOLUTE
    ..\Drivers\STM32G4xx_HAL_Driver\Src\stm32g4xx_hal_rcc_ex.c 0x00000000   Number         0  stm32g4xx_hal_rcc_ex.o ABSOLUTE
    ..\Drivers\STM32G4xx_HAL_Driver\Src\stm32g4xx_hal_tim.c 0x00000000   Number         0  stm32g4xx_hal_tim.o ABSOLUTE
    ..\Drivers\STM32G4xx_HAL_Driver\Src\stm32g4xx_hal_tim_ex.c 0x00000000   Number         0  stm32g4xx_hal_tim_ex.o ABSOLUTE
    ..\Drivers\STM32G4xx_HAL_Driver\Src\stm32g4xx_hal_uart.c 0x00000000   Number         0  stm32g4xx_hal_uart.o ABSOLUTE
    ..\Drivers\STM32G4xx_HAL_Driver\Src\stm32g4xx_hal_uart_ex.c 0x00000000   Number         0  stm32g4xx_hal_uart_ex.o ABSOLUTE
    ..\Drivers\STM32G4xx_HAL_Driver\Src\stm32g4xx_ll_usb.c 0x00000000   Number         0  stm32g4xx_ll_usb.o ABSOLUTE
    ..\Middlewares\ST\STM32_USB_Device_Library\Class\CustomHID\Src\usbd_customhid.c 0x00000000   Number         0  usbd_customhid.o ABSOLUTE
    ..\Middlewares\ST\STM32_USB_Device_Library\Core\Src\usbd_core.c 0x00000000   Number         0  usbd_core.o ABSOLUTE
    ..\Middlewares\ST\STM32_USB_Device_Library\Core\Src\usbd_ctlreq.c 0x00000000   Number         0  usbd_ctlreq.o ABSOLUTE
    ..\Middlewares\ST\STM32_USB_Device_Library\Core\Src\usbd_ioreq.c 0x00000000   Number         0  usbd_ioreq.o ABSOLUTE
    ..\USB_Device\App\usb_device.c           0x00000000   Number         0  usb_device.o ABSOLUTE
    ..\USB_Device\App\usbd_custom_hid_if.c   0x00000000   Number         0  usbd_custom_hid_if.o ABSOLUTE
    ..\USB_Device\App\usbd_desc.c            0x00000000   Number         0  usbd_desc.o ABSOLUTE
    ..\USB_Device\Target\usbd_conf.c         0x00000000   Number         0  usbd_conf.o ABSOLUTE
    ..\UserApp\AppMain.c                     0x00000000   Number         0  appmain.o ABSOLUTE
    ..\\BSP\\AS5600.c                        0x00000000   Number         0  as5600.o ABSOLUTE
    ..\\BSP\\FOC.c                           0x00000000   Number         0  foc.o ABSOLUTE
    ..\\BSP\\IIC.c                           0x00000000   Number         0  iic.o ABSOLUTE
    ..\\BSP\\PID.c                           0x00000000   Number         0  pid.o ABSOLUTE
    ..\\BSP\\PWM.c                           0x00000000   Number         0  pwm.o ABSOLUTE
    ..\\BSP\\USB_HIDCommunication.c          0x00000000   Number         0  usb_hidcommunication.o ABSOLUTE
    ..\\BSP\\electricity_get.c               0x00000000   Number         0  electricity_get.o ABSOLUTE
    ..\\UserApp\\AppMain.c                   0x00000000   Number         0  appmain.o ABSOLUTE
    cdcmple.s                                0x00000000   Number         0  cdcmple.o ABSOLUTE
    dc.s                                     0x00000000   Number         0  dc.o ABSOLUTE
    handlers.s                               0x00000000   Number         0  handlers.o ABSOLUTE
    init.s                                   0x00000000   Number         0  init.o ABSOLUTE
    startup_stm32g431xx.s                    0x00000000   Number         0  startup_stm32g431xx.o ABSOLUTE
    RESET                                    0x08000000   Section      472  startup_stm32g431xx.o(RESET)
    .ARM.Collect$$$$00000000                 0x080001d8   Section        0  entry.o(.ARM.Collect$$$$00000000)
    .ARM.Collect$$$$00000001                 0x080001d8   Section        4  entry2.o(.ARM.Collect$$$$00000001)
    .ARM.Collect$$$$00000004                 0x080001dc   Section        4  entry5.o(.ARM.Collect$$$$00000004)
    .ARM.Collect$$$$00000008                 0x080001e0   Section        0  entry7b.o(.ARM.Collect$$$$00000008)
    .ARM.Collect$$$$0000000A                 0x080001e0   Section        0  entry8b.o(.ARM.Collect$$$$0000000A)
    .ARM.Collect$$$$0000000B                 0x080001e0   Section        8  entry9a.o(.ARM.Collect$$$$0000000B)
    .ARM.Collect$$$$0000000D                 0x080001e8   Section        0  entry10a.o(.ARM.Collect$$$$0000000D)
    .ARM.Collect$$$$0000000F                 0x080001e8   Section        0  entry11a.o(.ARM.Collect$$$$0000000F)
    .ARM.Collect$$$$00002712                 0x080001e8   Section        4  entry2.o(.ARM.Collect$$$$00002712)
    __lit__00000000                          0x080001e8   Data           4  entry2.o(.ARM.Collect$$$$00002712)
    .text                                    0x080001ec   Section       36  startup_stm32g431xx.o(.text)
    $v0                                      0x080001ec   Number         0  startup_stm32g431xx.o(.text)
    .text                                    0x08000210   Section        0  uldiv.o(.text)
    .text                                    0x08000272   Section        0  memcpya.o(.text)
    .text                                    0x08000296   Section        0  memseta.o(.text)
    .text                                    0x080002ba   Section        0  dadd.o(.text)
    .text                                    0x08000408   Section        0  dmul.o(.text)
    .text                                    0x080004ec   Section        0  ddiv.o(.text)
    .text                                    0x080005ca   Section        0  dflti.o(.text)
    .text                                    0x080005ec   Section        0  dfltui.o(.text)
    .text                                    0x08000606   Section        0  f2d.o(.text)
    .text                                    0x0800062c   Section       48  cdcmple.o(.text)
    .text                                    0x0800065c   Section        0  d2f.o(.text)
    .text                                    0x08000694   Section        0  llshl.o(.text)
    .text                                    0x080006b2   Section        0  llushr.o(.text)
    .text                                    0x080006d2   Section        0  llsshr.o(.text)
    .text                                    0x080006f6   Section        0  fepilogue.o(.text)
    .text                                    0x080006f6   Section        0  iusefp.o(.text)
    .text                                    0x08000764   Section        0  depilogue.o(.text)
    .text                                    0x08000820   Section       36  init.o(.text)
    .text                                    0x08000844   Section        0  dfixi.o(.text)
    .text                                    0x08000882   Section        0  __dczerorl2.o(.text)
    i.ADC_DMAConvCplt                        0x080008d8   Section        0  stm32g4xx_hal_adc.o(i.ADC_DMAConvCplt)
    i.ADC_DMAError                           0x08000940   Section        0  stm32g4xx_hal_adc.o(i.ADC_DMAError)
    i.ADC_DMAHalfConvCplt                    0x0800095a   Section        0  stm32g4xx_hal_adc.o(i.ADC_DMAHalfConvCplt)
    i.ADC_Enable                             0x08000964   Section        0  stm32g4xx_hal_adc.o(i.ADC_Enable)
    i.AppMain                                0x080009d8   Section        0  appmain.o(i.AppMain)
    i.BusFault_Handler                       0x08000a38   Section        0  stm32g4xx_it.o(i.BusFault_Handler)
    i.CUSTOM_HID_DeInit_FS                   0x08000a3a   Section        0  usbd_custom_hid_if.o(i.CUSTOM_HID_DeInit_FS)
    CUSTOM_HID_DeInit_FS                     0x08000a3b   Thumb Code     4  usbd_custom_hid_if.o(i.CUSTOM_HID_DeInit_FS)
    i.CUSTOM_HID_Init_FS                     0x08000a3e   Section        0  usbd_custom_hid_if.o(i.CUSTOM_HID_Init_FS)
    CUSTOM_HID_Init_FS                       0x08000a3f   Thumb Code     4  usbd_custom_hid_if.o(i.CUSTOM_HID_Init_FS)
    i.CUSTOM_HID_OutEvent_FS                 0x08000a44   Section        0  usbd_custom_hid_if.o(i.CUSTOM_HID_OutEvent_FS)
    CUSTOM_HID_OutEvent_FS                   0x08000a45   Thumb Code    50  usbd_custom_hid_if.o(i.CUSTOM_HID_OutEvent_FS)
    i.Clarke                                 0x08000a84   Section        0  foc.o(i.Clarke)
    i.Common_Parameters_Parsing              0x08000ab0   Section        0  usb_hidcommunication.o(i.Common_Parameters_Parsing)
    i.DMA1_Channel1_IRQHandler               0x08000b14   Section        0  stm32g4xx_it.o(i.DMA1_Channel1_IRQHandler)
    i.DMA_CalcDMAMUXChannelBaseAndMask       0x08000b20   Section        0  stm32g4xx_hal_dma.o(i.DMA_CalcDMAMUXChannelBaseAndMask)
    DMA_CalcDMAMUXChannelBaseAndMask         0x08000b21   Thumb Code    54  stm32g4xx_hal_dma.o(i.DMA_CalcDMAMUXChannelBaseAndMask)
    i.DMA_CalcDMAMUXRequestGenBaseAndMask    0x08000b60   Section        0  stm32g4xx_hal_dma.o(i.DMA_CalcDMAMUXRequestGenBaseAndMask)
    DMA_CalcDMAMUXRequestGenBaseAndMask      0x08000b61   Thumb Code    30  stm32g4xx_hal_dma.o(i.DMA_CalcDMAMUXRequestGenBaseAndMask)
    i.DMA_SetConfig                          0x08000b84   Section        0  stm32g4xx_hal_dma.o(i.DMA_SetConfig)
    DMA_SetConfig                            0x08000b85   Thumb Code    62  stm32g4xx_hal_dma.o(i.DMA_SetConfig)
    i.DebugMon_Handler                       0x08000bc2   Section        0  stm32g4xx_it.o(i.DebugMon_Handler)
    i.Error_Handler                          0x08000bc4   Section        0  main.o(i.Error_Handler)
    i.Generate_SVPWM                         0x08000bc8   Section        0  foc.o(i.Generate_SVPWM)
    i.Generate_Sector_Time                   0x08000c70   Section        0  foc.o(i.Generate_Sector_Time)
    i.HAL_ADCEx_MultiModeConfigChannel       0x08000eec   Section        0  stm32g4xx_hal_adc_ex.o(i.HAL_ADCEx_MultiModeConfigChannel)
    i.HAL_ADC_ConfigChannel                  0x08000fc4   Section        0  stm32g4xx_hal_adc.o(i.HAL_ADC_ConfigChannel)
    i.HAL_ADC_ConvCpltCallback               0x080013dc   Section        0  stm32g4xx_hal_adc.o(i.HAL_ADC_ConvCpltCallback)
    i.HAL_ADC_ConvHalfCpltCallback           0x080013de   Section        0  stm32g4xx_hal_adc.o(i.HAL_ADC_ConvHalfCpltCallback)
    i.HAL_ADC_ErrorCallback                  0x080013e0   Section        0  stm32g4xx_hal_adc.o(i.HAL_ADC_ErrorCallback)
    i.HAL_ADC_Init                           0x080013e4   Section        0  stm32g4xx_hal_adc.o(i.HAL_ADC_Init)
    i.HAL_ADC_MspInit                        0x080015e0   Section        0  adc.o(i.HAL_ADC_MspInit)
    i.HAL_ADC_Start_DMA                      0x0800168c   Section        0  stm32g4xx_hal_adc.o(i.HAL_ADC_Start_DMA)
    i.HAL_DMA_IRQHandler                     0x0800177c   Section        0  stm32g4xx_hal_dma.o(i.HAL_DMA_IRQHandler)
    i.HAL_DMA_Init                           0x08001838   Section        0  stm32g4xx_hal_dma.o(i.HAL_DMA_Init)
    i.HAL_DMA_Start_IT                       0x080018f8   Section        0  stm32g4xx_hal_dma.o(i.HAL_DMA_Start_IT)
    i.HAL_Delay                              0x08001984   Section        0  stm32g4xx_hal.o(i.HAL_Delay)
    i.HAL_GPIO_Init                          0x080019a8   Section        0  stm32g4xx_hal_gpio.o(i.HAL_GPIO_Init)
    i.HAL_GPIO_ReadPin                       0x08001bf0   Section        0  stm32g4xx_hal_gpio.o(i.HAL_GPIO_ReadPin)
    i.HAL_GPIO_WritePin                      0x08001bfa   Section        0  stm32g4xx_hal_gpio.o(i.HAL_GPIO_WritePin)
    i.HAL_GetTick                            0x08001c04   Section        0  stm32g4xx_hal.o(i.HAL_GetTick)
    i.HAL_IncTick                            0x08001c10   Section        0  stm32g4xx_hal.o(i.HAL_IncTick)
    i.HAL_Init                               0x08001c20   Section        0  stm32g4xx_hal.o(i.HAL_Init)
    i.HAL_InitTick                           0x08001c40   Section        0  stm32g4xx_hal.o(i.HAL_InitTick)
    i.HAL_MspInit                            0x08001c84   Section        0  stm32g4xx_hal_msp.o(i.HAL_MspInit)
    i.HAL_NVIC_EnableIRQ                     0x08001cb4   Section        0  stm32g4xx_hal_cortex.o(i.HAL_NVIC_EnableIRQ)
    i.HAL_NVIC_SetPriority                   0x08001cd0   Section        0  stm32g4xx_hal_cortex.o(i.HAL_NVIC_SetPriority)
    i.HAL_NVIC_SetPriorityGrouping           0x08001d10   Section        0  stm32g4xx_hal_cortex.o(i.HAL_NVIC_SetPriorityGrouping)
    i.HAL_PCDEx_ActivateLPM                  0x08001d34   Section        0  stm32g4xx_hal_pcd_ex.o(i.HAL_PCDEx_ActivateLPM)
    i.HAL_PCDEx_LPM_Callback                 0x08001d58   Section        0  usbd_conf.o(i.HAL_PCDEx_LPM_Callback)
    i.HAL_PCDEx_PMAConfig                    0x08001d9c   Section        0  stm32g4xx_hal_pcd_ex.o(i.HAL_PCDEx_PMAConfig)
    i.HAL_PCD_DataInStageCallback            0x08001dd8   Section        0  usbd_conf.o(i.HAL_PCD_DataInStageCallback)
    i.HAL_PCD_DataOutStageCallback           0x08001dea   Section        0  usbd_conf.o(i.HAL_PCD_DataOutStageCallback)
    i.HAL_PCD_EP_Close                       0x08001dfe   Section        0  stm32g4xx_hal_pcd.o(i.HAL_PCD_EP_Close)
    i.HAL_PCD_EP_ClrStall                    0x08001e4a   Section        0  stm32g4xx_hal_pcd.o(i.HAL_PCD_EP_ClrStall)
    i.HAL_PCD_EP_DB_Receive                  0x08001ea6   Section        0  stm32g4xx_hal_pcd.o(i.HAL_PCD_EP_DB_Receive)
    HAL_PCD_EP_DB_Receive                    0x08001ea7   Thumb Code   220  stm32g4xx_hal_pcd.o(i.HAL_PCD_EP_DB_Receive)
    i.HAL_PCD_EP_DB_Transmit                 0x08001f82   Section        0  stm32g4xx_hal_pcd.o(i.HAL_PCD_EP_DB_Transmit)
    HAL_PCD_EP_DB_Transmit                   0x08001f83   Thumb Code   816  stm32g4xx_hal_pcd.o(i.HAL_PCD_EP_DB_Transmit)
    i.HAL_PCD_EP_Open                        0x080022b2   Section        0  stm32g4xx_hal_pcd.o(i.HAL_PCD_EP_Open)
    i.HAL_PCD_EP_Receive                     0x08002312   Section        0  stm32g4xx_hal_pcd.o(i.HAL_PCD_EP_Receive)
    i.HAL_PCD_EP_SetStall                    0x08002344   Section        0  stm32g4xx_hal_pcd.o(i.HAL_PCD_EP_SetStall)
    i.HAL_PCD_EP_Transmit                    0x080023a4   Section        0  stm32g4xx_hal_pcd.o(i.HAL_PCD_EP_Transmit)
    i.HAL_PCD_IRQHandler                     0x080023d8   Section        0  stm32g4xx_hal_pcd.o(i.HAL_PCD_IRQHandler)
    i.HAL_PCD_Init                           0x08002522   Section        0  stm32g4xx_hal_pcd.o(i.HAL_PCD_Init)
    i.HAL_PCD_MspInit                        0x080025d4   Section        0  usbd_conf.o(i.HAL_PCD_MspInit)
    i.HAL_PCD_ResetCallback                  0x0800262c   Section        0  usbd_conf.o(i.HAL_PCD_ResetCallback)
    i.HAL_PCD_ResumeCallback                 0x08002654   Section        0  usbd_conf.o(i.HAL_PCD_ResumeCallback)
    i.HAL_PCD_SOFCallback                    0x0800267c   Section        0  usbd_conf.o(i.HAL_PCD_SOFCallback)
    i.HAL_PCD_SetAddress                     0x08002684   Section        0  stm32g4xx_hal_pcd.o(i.HAL_PCD_SetAddress)
    i.HAL_PCD_SetupStageCallback             0x080026ac   Section        0  usbd_conf.o(i.HAL_PCD_SetupStageCallback)
    i.HAL_PCD_Start                          0x080026ba   Section        0  stm32g4xx_hal_pcd.o(i.HAL_PCD_Start)
    i.HAL_PCD_SuspendCallback                0x080026e4   Section        0  usbd_conf.o(i.HAL_PCD_SuspendCallback)
    i.HAL_PWREx_ControlVoltageScaling        0x08002708   Section        0  stm32g4xx_hal_pwr_ex.o(i.HAL_PWREx_ControlVoltageScaling)
    i.HAL_PWREx_DisableUCPDDeadBattery       0x080027c4   Section        0  stm32g4xx_hal_pwr_ex.o(i.HAL_PWREx_DisableUCPDDeadBattery)
    i.HAL_RCCEx_PeriphCLKConfig              0x080027d4   Section        0  stm32g4xx_hal_rcc_ex.o(i.HAL_RCCEx_PeriphCLKConfig)
    i.HAL_RCC_ClockConfig                    0x08002a5c   Section        0  stm32g4xx_hal_rcc.o(i.HAL_RCC_ClockConfig)
    i.HAL_RCC_GetPCLK1Freq                   0x08002c38   Section        0  stm32g4xx_hal_rcc.o(i.HAL_RCC_GetPCLK1Freq)
    i.HAL_RCC_GetPCLK2Freq                   0x08002c5c   Section        0  stm32g4xx_hal_rcc.o(i.HAL_RCC_GetPCLK2Freq)
    i.HAL_RCC_GetSysClockFreq                0x08002c80   Section        0  stm32g4xx_hal_rcc.o(i.HAL_RCC_GetSysClockFreq)
    i.HAL_RCC_OscConfig                      0x08002cec   Section        0  stm32g4xx_hal_rcc.o(i.HAL_RCC_OscConfig)
    i.HAL_SYSTICK_Config                     0x080030f8   Section        0  stm32g4xx_hal_cortex.o(i.HAL_SYSTICK_Config)
    i.HAL_TIMEx_Break2Callback               0x08003120   Section        0  stm32g4xx_hal_tim_ex.o(i.HAL_TIMEx_Break2Callback)
    i.HAL_TIMEx_BreakCallback                0x08003122   Section        0  stm32g4xx_hal_tim_ex.o(i.HAL_TIMEx_BreakCallback)
    i.HAL_TIMEx_CommutCallback               0x08003124   Section        0  stm32g4xx_hal_tim_ex.o(i.HAL_TIMEx_CommutCallback)
    i.HAL_TIMEx_ConfigBreakDeadTime          0x08003128   Section        0  stm32g4xx_hal_tim_ex.o(i.HAL_TIMEx_ConfigBreakDeadTime)
    i.HAL_TIMEx_DirectionChangeCallback      0x080031d4   Section        0  stm32g4xx_hal_tim_ex.o(i.HAL_TIMEx_DirectionChangeCallback)
    i.HAL_TIMEx_EncoderIndexCallback         0x080031d6   Section        0  stm32g4xx_hal_tim_ex.o(i.HAL_TIMEx_EncoderIndexCallback)
    i.HAL_TIMEx_IndexErrorCallback           0x080031d8   Section        0  stm32g4xx_hal_tim_ex.o(i.HAL_TIMEx_IndexErrorCallback)
    i.HAL_TIMEx_MasterConfigSynchronization  0x080031dc   Section        0  stm32g4xx_hal_tim_ex.o(i.HAL_TIMEx_MasterConfigSynchronization)
    i.HAL_TIMEx_TransitionErrorCallback      0x08003278   Section        0  stm32g4xx_hal_tim_ex.o(i.HAL_TIMEx_TransitionErrorCallback)
    i.HAL_TIM_Base_Init                      0x0800327a   Section        0  stm32g4xx_hal_tim.o(i.HAL_TIM_Base_Init)
    i.HAL_TIM_Base_MspInit                   0x080032dc   Section        0  tim.o(i.HAL_TIM_Base_MspInit)
    i.HAL_TIM_Base_Start_IT                  0x0800333c   Section        0  stm32g4xx_hal_tim.o(i.HAL_TIM_Base_Start_IT)
    i.HAL_TIM_ConfigClockSource              0x080033b4   Section        0  stm32g4xx_hal_tim.o(i.HAL_TIM_ConfigClockSource)
    i.HAL_TIM_IC_CaptureCallback             0x080034b4   Section        0  stm32g4xx_hal_tim.o(i.HAL_TIM_IC_CaptureCallback)
    i.HAL_TIM_IRQHandler                     0x080034b6   Section        0  stm32g4xx_hal_tim.o(i.HAL_TIM_IRQHandler)
    i.HAL_TIM_MspPostInit                    0x080036b4   Section        0  tim.o(i.HAL_TIM_MspPostInit)
    i.HAL_TIM_OC_DelayElapsedCallback        0x08003708   Section        0  stm32g4xx_hal_tim.o(i.HAL_TIM_OC_DelayElapsedCallback)
    i.HAL_TIM_PWM_ConfigChannel              0x0800370a   Section        0  stm32g4xx_hal_tim.o(i.HAL_TIM_PWM_ConfigChannel)
    i.HAL_TIM_PWM_Init                       0x0800382e   Section        0  stm32g4xx_hal_tim.o(i.HAL_TIM_PWM_Init)
    i.HAL_TIM_PWM_MspInit                    0x08003890   Section        0  tim.o(i.HAL_TIM_PWM_MspInit)
    i.HAL_TIM_PWM_PulseFinishedCallback      0x080038cc   Section        0  stm32g4xx_hal_tim.o(i.HAL_TIM_PWM_PulseFinishedCallback)
    i.HAL_TIM_PWM_Start                      0x080038d0   Section        0  stm32g4xx_hal_tim.o(i.HAL_TIM_PWM_Start)
    i.HAL_TIM_PeriodElapsedCallback          0x080039cc   Section        0  appmain.o(i.HAL_TIM_PeriodElapsedCallback)
    i.HAL_TIM_TriggerCallback                0x08003a18   Section        0  stm32g4xx_hal_tim.o(i.HAL_TIM_TriggerCallback)
    i.HAL_UARTEx_DisableFifoMode             0x08003a1a   Section        0  stm32g4xx_hal_uart_ex.o(i.HAL_UARTEx_DisableFifoMode)
    i.HAL_UARTEx_SetRxFifoThreshold          0x08003a58   Section        0  stm32g4xx_hal_uart_ex.o(i.HAL_UARTEx_SetRxFifoThreshold)
    i.HAL_UARTEx_SetTxFifoThreshold          0x08003aa4   Section        0  stm32g4xx_hal_uart_ex.o(i.HAL_UARTEx_SetTxFifoThreshold)
    i.HAL_UART_Init                          0x08003af0   Section        0  stm32g4xx_hal_uart.o(i.HAL_UART_Init)
    i.HAL_UART_MspInit                       0x08003b5c   Section        0  usart.o(i.HAL_UART_MspInit)
    i.HardFault_Handler                      0x08003bdc   Section        0  stm32g4xx_it.o(i.HardFault_Handler)
    i.IntToUnicode                           0x08003be0   Section        0  usbd_desc.o(i.IntToUnicode)
    IntToUnicode                             0x08003be1   Thumb Code    56  usbd_desc.o(i.IntToUnicode)
    i.InvPark                                0x08003c18   Section        0  foc.o(i.InvPark)
    i.LL_ADC_GetOffsetChannel                0x08003c48   Section        0  stm32g4xx_hal_adc.o(i.LL_ADC_GetOffsetChannel)
    LL_ADC_GetOffsetChannel                  0x08003c49   Thumb Code    12  stm32g4xx_hal_adc.o(i.LL_ADC_GetOffsetChannel)
    i.LL_ADC_INJ_IsConversionOngoing         0x08003c54   Section        0  stm32g4xx_hal_adc.o(i.LL_ADC_INJ_IsConversionOngoing)
    LL_ADC_INJ_IsConversionOngoing           0x08003c55   Thumb Code     8  stm32g4xx_hal_adc.o(i.LL_ADC_INJ_IsConversionOngoing)
    i.LL_ADC_REG_IsConversionOngoing         0x08003c5c   Section        0  stm32g4xx_hal_adc.o(i.LL_ADC_REG_IsConversionOngoing)
    LL_ADC_REG_IsConversionOngoing           0x08003c5d   Thumb Code     8  stm32g4xx_hal_adc.o(i.LL_ADC_REG_IsConversionOngoing)
    i.LL_ADC_REG_IsConversionOngoing         0x08003c64   Section        0  stm32g4xx_hal_adc_ex.o(i.LL_ADC_REG_IsConversionOngoing)
    LL_ADC_REG_IsConversionOngoing           0x08003c65   Thumb Code     8  stm32g4xx_hal_adc_ex.o(i.LL_ADC_REG_IsConversionOngoing)
    i.LL_ADC_REG_IsTriggerSourceSWStart      0x08003c6c   Section        0  stm32g4xx_hal_adc.o(i.LL_ADC_REG_IsTriggerSourceSWStart)
    LL_ADC_REG_IsTriggerSourceSWStart        0x08003c6d   Thumb Code    16  stm32g4xx_hal_adc.o(i.LL_ADC_REG_IsTriggerSourceSWStart)
    i.LL_ADC_SetChannelSamplingTime          0x08003c7c   Section        0  stm32g4xx_hal_adc.o(i.LL_ADC_SetChannelSamplingTime)
    LL_ADC_SetChannelSamplingTime            0x08003c7d   Thumb Code    30  stm32g4xx_hal_adc.o(i.LL_ADC_SetChannelSamplingTime)
    i.LL_ADC_SetOffsetState                  0x08003c9a   Section        0  stm32g4xx_hal_adc.o(i.LL_ADC_SetOffsetState)
    LL_ADC_SetOffsetState                    0x08003c9b   Thumb Code    16  stm32g4xx_hal_adc.o(i.LL_ADC_SetOffsetState)
    i.MX_ADC1_Init                           0x08003cac   Section        0  adc.o(i.MX_ADC1_Init)
    i.MX_DMA_Init                            0x08003d5c   Section        0  dma.o(i.MX_DMA_Init)
    i.MX_GPIO_Init                           0x08003d98   Section        0  gpio.o(i.MX_GPIO_Init)
    i.MX_TIM1_Init                           0x08003e48   Section        0  tim.o(i.MX_TIM1_Init)
    i.MX_TIM2_Init                           0x08003f1c   Section        0  tim.o(i.MX_TIM2_Init)
    i.MX_TIM3_Init                           0x08003f84   Section        0  tim.o(i.MX_TIM3_Init)
    i.MX_USART3_UART_Init                    0x08003fec   Section        0  usart.o(i.MX_USART3_UART_Init)
    i.MX_USB_Device_Init                     0x08004054   Section        0  usb_device.o(i.MX_USB_Device_Init)
    i.MemManage_Handler                      0x080040a8   Section        0  stm32g4xx_it.o(i.MemManage_Handler)
    i.NMI_Handler                            0x080040aa   Section        0  stm32g4xx_it.o(i.NMI_Handler)
    i.Open_Loop_Parameters_Parsing           0x080040ac   Section        0  usb_hidcommunication.o(i.Open_Loop_Parameters_Parsing)
    i.PCD_EP_ISR_Handler                     0x080040c0   Section        0  stm32g4xx_hal_pcd.o(i.PCD_EP_ISR_Handler)
    PCD_EP_ISR_Handler                       0x080040c1   Thumb Code   890  stm32g4xx_hal_pcd.o(i.PCD_EP_ISR_Handler)
    i.Park                                   0x0800443c   Section        0  foc.o(i.Park)
    i.PendSV_Handler                         0x08004460   Section        0  stm32g4xx_it.o(i.PendSV_Handler)
    i.Position_Parameters_Parsing            0x08004464   Section        0  usb_hidcommunication.o(i.Position_Parameters_Parsing)
    i.SVC_Handler                            0x08004480   Section        0  stm32g4xx_it.o(i.SVC_Handler)
    i.SWAPBYTE                               0x08004482   Section        0  usbd_ctlreq.o(i.SWAPBYTE)
    SWAPBYTE                                 0x08004483   Thumb Code    10  usbd_ctlreq.o(i.SWAPBYTE)
    i.Sector_Determination                   0x0800448c   Section        0  foc.o(i.Sector_Determination)
    i.SysTick_Handler                        0x080044fc   Section        0  stm32g4xx_it.o(i.SysTick_Handler)
    i.SystemClock_Config                     0x08004500   Section        0  main.o(i.SystemClock_Config)
    i.SystemInit                             0x0800456c   Section        0  system_stm32g4xx.o(i.SystemInit)
    i.TIM1_UP_TIM16_IRQHandler               0x0800457c   Section        0  stm32g4xx_it.o(i.TIM1_UP_TIM16_IRQHandler)
    i.TIM2_IRQHandler                        0x08004588   Section        0  stm32g4xx_it.o(i.TIM2_IRQHandler)
    i.TIM3_IRQHandler                        0x08004594   Section        0  stm32g4xx_it.o(i.TIM3_IRQHandler)
    i.TIM_Base_SetConfig                     0x080045a0   Section        0  stm32g4xx_hal_tim.o(i.TIM_Base_SetConfig)
    i.TIM_CCxChannelCmd                      0x08004650   Section        0  stm32g4xx_hal_tim.o(i.TIM_CCxChannelCmd)
    i.TIM_ETR_SetConfig                      0x0800466a   Section        0  stm32g4xx_hal_tim.o(i.TIM_ETR_SetConfig)
    i.TIM_ITRx_SetConfig                     0x08004680   Section        0  stm32g4xx_hal_tim.o(i.TIM_ITRx_SetConfig)
    TIM_ITRx_SetConfig                       0x08004681   Thumb Code    16  stm32g4xx_hal_tim.o(i.TIM_ITRx_SetConfig)
    i.TIM_OC1_SetConfig                      0x08004694   Section        0  stm32g4xx_hal_tim.o(i.TIM_OC1_SetConfig)
    TIM_OC1_SetConfig                        0x08004695   Thumb Code   132  stm32g4xx_hal_tim.o(i.TIM_OC1_SetConfig)
    i.TIM_OC2_SetConfig                      0x08004730   Section        0  stm32g4xx_hal_tim.o(i.TIM_OC2_SetConfig)
    i.TIM_OC3_SetConfig                      0x080047c0   Section        0  stm32g4xx_hal_tim.o(i.TIM_OC3_SetConfig)
    TIM_OC3_SetConfig                        0x080047c1   Thumb Code   118  stm32g4xx_hal_tim.o(i.TIM_OC3_SetConfig)
    i.TIM_OC4_SetConfig                      0x08004850   Section        0  stm32g4xx_hal_tim.o(i.TIM_OC4_SetConfig)
    TIM_OC4_SetConfig                        0x08004851   Thumb Code   120  stm32g4xx_hal_tim.o(i.TIM_OC4_SetConfig)
    i.TIM_OC5_SetConfig                      0x080048e0   Section        0  stm32g4xx_hal_tim.o(i.TIM_OC5_SetConfig)
    TIM_OC5_SetConfig                        0x080048e1   Thumb Code    86  stm32g4xx_hal_tim.o(i.TIM_OC5_SetConfig)
    i.TIM_OC6_SetConfig                      0x08004950   Section        0  stm32g4xx_hal_tim.o(i.TIM_OC6_SetConfig)
    TIM_OC6_SetConfig                        0x08004951   Thumb Code    88  stm32g4xx_hal_tim.o(i.TIM_OC6_SetConfig)
    i.TIM_TI1_ConfigInputStage               0x080049c0   Section        0  stm32g4xx_hal_tim.o(i.TIM_TI1_ConfigInputStage)
    TIM_TI1_ConfigInputStage                 0x080049c1   Thumb Code    34  stm32g4xx_hal_tim.o(i.TIM_TI1_ConfigInputStage)
    i.TIM_TI2_ConfigInputStage               0x080049e2   Section        0  stm32g4xx_hal_tim.o(i.TIM_TI2_ConfigInputStage)
    TIM_TI2_ConfigInputStage                 0x080049e3   Thumb Code    36  stm32g4xx_hal_tim.o(i.TIM_TI2_ConfigInputStage)
    i.UARTEx_SetNbDataToProcess              0x08004a08   Section        0  stm32g4xx_hal_uart_ex.o(i.UARTEx_SetNbDataToProcess)
    UARTEx_SetNbDataToProcess                0x08004a09   Thumb Code    62  stm32g4xx_hal_uart_ex.o(i.UARTEx_SetNbDataToProcess)
    i.UART_AdvFeatureConfig                  0x08004a4c   Section        0  stm32g4xx_hal_uart.o(i.UART_AdvFeatureConfig)
    i.UART_CheckIdleState                    0x08004b14   Section        0  stm32g4xx_hal_uart.o(i.UART_CheckIdleState)
    i.UART_SetConfig                         0x08004b74   Section        0  stm32g4xx_hal_uart.o(i.UART_SetConfig)
    i.UART_WaitOnFlagUntilTimeout            0x08004de8   Section        0  stm32g4xx_hal_uart.o(i.UART_WaitOnFlagUntilTimeout)
    i.USBD_CUSTOM_HID_ConfigStrDescriptor    0x08004eb0   Section        0  usbd_desc.o(i.USBD_CUSTOM_HID_ConfigStrDescriptor)
    i.USBD_CUSTOM_HID_DataIn                 0x08004ed8   Section        0  usbd_customhid.o(i.USBD_CUSTOM_HID_DataIn)
    USBD_CUSTOM_HID_DataIn                   0x08004ed9   Thumb Code    12  usbd_customhid.o(i.USBD_CUSTOM_HID_DataIn)
    i.USBD_CUSTOM_HID_DataOut                0x08004ee4   Section        0  usbd_customhid.o(i.USBD_CUSTOM_HID_DataOut)
    USBD_CUSTOM_HID_DataOut                  0x08004ee5   Thumb Code    30  usbd_customhid.o(i.USBD_CUSTOM_HID_DataOut)
    i.USBD_CUSTOM_HID_DeInit                 0x08004f02   Section        0  usbd_customhid.o(i.USBD_CUSTOM_HID_DeInit)
    USBD_CUSTOM_HID_DeInit                   0x08004f03   Thumb Code    66  usbd_customhid.o(i.USBD_CUSTOM_HID_DeInit)
    i.USBD_CUSTOM_HID_DeviceDescriptor       0x08004f44   Section        0  usbd_desc.o(i.USBD_CUSTOM_HID_DeviceDescriptor)
    i.USBD_CUSTOM_HID_EP0_RxReady            0x08004f50   Section        0  usbd_customhid.o(i.USBD_CUSTOM_HID_EP0_RxReady)
    USBD_CUSTOM_HID_EP0_RxReady              0x08004f51   Thumb Code    42  usbd_customhid.o(i.USBD_CUSTOM_HID_EP0_RxReady)
    i.USBD_CUSTOM_HID_GetDeviceQualifierDesc 0x08004f7c   Section        0  usbd_customhid.o(i.USBD_CUSTOM_HID_GetDeviceQualifierDesc)
    USBD_CUSTOM_HID_GetDeviceQualifierDesc   0x08004f7d   Thumb Code     8  usbd_customhid.o(i.USBD_CUSTOM_HID_GetDeviceQualifierDesc)
    i.USBD_CUSTOM_HID_GetFSCfgDesc           0x08004f88   Section        0  usbd_customhid.o(i.USBD_CUSTOM_HID_GetFSCfgDesc)
    USBD_CUSTOM_HID_GetFSCfgDesc             0x08004f89   Thumb Code     8  usbd_customhid.o(i.USBD_CUSTOM_HID_GetFSCfgDesc)
    i.USBD_CUSTOM_HID_GetHSCfgDesc           0x08004f94   Section        0  usbd_customhid.o(i.USBD_CUSTOM_HID_GetHSCfgDesc)
    USBD_CUSTOM_HID_GetHSCfgDesc             0x08004f95   Thumb Code     8  usbd_customhid.o(i.USBD_CUSTOM_HID_GetHSCfgDesc)
    i.USBD_CUSTOM_HID_GetOtherSpeedCfgDesc   0x08004fa0   Section        0  usbd_customhid.o(i.USBD_CUSTOM_HID_GetOtherSpeedCfgDesc)
    USBD_CUSTOM_HID_GetOtherSpeedCfgDesc     0x08004fa1   Thumb Code     8  usbd_customhid.o(i.USBD_CUSTOM_HID_GetOtherSpeedCfgDesc)
    i.USBD_CUSTOM_HID_Init                   0x08004fac   Section        0  usbd_customhid.o(i.USBD_CUSTOM_HID_Init)
    USBD_CUSTOM_HID_Init                     0x08004fad   Thumb Code   120  usbd_customhid.o(i.USBD_CUSTOM_HID_Init)
    i.USBD_CUSTOM_HID_InterfaceStrDescriptor 0x08005024   Section        0  usbd_desc.o(i.USBD_CUSTOM_HID_InterfaceStrDescriptor)
    i.USBD_CUSTOM_HID_LangIDStrDescriptor    0x08005050   Section        0  usbd_desc.o(i.USBD_CUSTOM_HID_LangIDStrDescriptor)
    i.USBD_CUSTOM_HID_ManufacturerStrDescriptor 0x0800505c   Section        0  usbd_desc.o(i.USBD_CUSTOM_HID_ManufacturerStrDescriptor)
    i.USBD_CUSTOM_HID_ProductStrDescriptor   0x08005084   Section        0  usbd_desc.o(i.USBD_CUSTOM_HID_ProductStrDescriptor)
    i.USBD_CUSTOM_HID_ReceivePacket          0x080050b8   Section        0  usbd_customhid.o(i.USBD_CUSTOM_HID_ReceivePacket)
    i.USBD_CUSTOM_HID_RegisterInterface      0x080050d0   Section        0  usbd_customhid.o(i.USBD_CUSTOM_HID_RegisterInterface)
    i.USBD_CUSTOM_HID_SendReport             0x080050de   Section        0  usbd_customhid.o(i.USBD_CUSTOM_HID_SendReport)
    i.USBD_CUSTOM_HID_SerialStrDescriptor    0x08005110   Section        0  usbd_desc.o(i.USBD_CUSTOM_HID_SerialStrDescriptor)
    i.USBD_CUSTOM_HID_Setup                  0x08005148   Section        0  usbd_customhid.o(i.USBD_CUSTOM_HID_Setup)
    USBD_CUSTOM_HID_Setup                    0x08005149   Thumb Code   258  usbd_customhid.o(i.USBD_CUSTOM_HID_Setup)
    i.USBD_ClrClassConfig                    0x08005250   Section        0  usbd_core.o(i.USBD_ClrClassConfig)
    i.USBD_CtlContinueRx                     0x08005260   Section        0  usbd_ioreq.o(i.USBD_CtlContinueRx)
    i.USBD_CtlContinueSendData               0x08005270   Section        0  usbd_ioreq.o(i.USBD_CtlContinueSendData)
    i.USBD_CtlError                          0x08005280   Section        0  usbd_ctlreq.o(i.USBD_CtlError)
    i.USBD_CtlPrepareRx                      0x08005296   Section        0  usbd_ioreq.o(i.USBD_CtlPrepareRx)
    i.USBD_CtlReceiveStatus                  0x080052b4   Section        0  usbd_ioreq.o(i.USBD_CtlReceiveStatus)
    i.USBD_CtlSendData                       0x080052ca   Section        0  usbd_ioreq.o(i.USBD_CtlSendData)
    i.USBD_CtlSendStatus                     0x080052e4   Section        0  usbd_ioreq.o(i.USBD_CtlSendStatus)
    i.USBD_GetDescriptor                     0x080052fa   Section        0  usbd_ctlreq.o(i.USBD_GetDescriptor)
    USBD_GetDescriptor                       0x080052fb   Thumb Code   250  usbd_ctlreq.o(i.USBD_GetDescriptor)
    i.USBD_GetString                         0x080053f4   Section        0  usbd_ctlreq.o(i.USBD_GetString)
    i.USBD_Get_USB_Status                    0x0800543c   Section        0  usbd_conf.o(i.USBD_Get_USB_Status)
    USBD_Get_USB_Status                      0x0800543d   Thumb Code    24  usbd_conf.o(i.USBD_Get_USB_Status)
    i.USBD_Init                              0x08005454   Section        0  usbd_core.o(i.USBD_Init)
    i.USBD_KEYBOADR_HID_SendReport           0x0800547a   Section        0  usbd_customhid.o(i.USBD_KEYBOADR_HID_SendReport)
    i.USBD_LL_ClearStallEP                   0x080054a2   Section        0  usbd_conf.o(i.USBD_LL_ClearStallEP)
    i.USBD_LL_CloseEP                        0x080054b4   Section        0  usbd_conf.o(i.USBD_LL_CloseEP)
    i.USBD_LL_DataInStage                    0x080054c6   Section        0  usbd_core.o(i.USBD_LL_DataInStage)
    i.USBD_LL_DataOutStage                   0x0800556e   Section        0  usbd_core.o(i.USBD_LL_DataOutStage)
    i.USBD_LL_Init                           0x080055dc   Section        0  usbd_conf.o(i.USBD_LL_Init)
    i.USBD_LL_IsStallEP                      0x0800565c   Section        0  usbd_conf.o(i.USBD_LL_IsStallEP)
    i.USBD_LL_OpenEP                         0x0800567c   Section        0  usbd_conf.o(i.USBD_LL_OpenEP)
    i.USBD_LL_PrepareReceive                 0x08005694   Section        0  usbd_conf.o(i.USBD_LL_PrepareReceive)
    i.USBD_LL_Reset                          0x080056a6   Section        0  usbd_core.o(i.USBD_LL_Reset)
    i.USBD_LL_Resume                         0x08005700   Section        0  usbd_core.o(i.USBD_LL_Resume)
    i.USBD_LL_SOF                            0x08005714   Section        0  usbd_core.o(i.USBD_LL_SOF)
    i.USBD_LL_SetSpeed                       0x08005734   Section        0  usbd_core.o(i.USBD_LL_SetSpeed)
    i.USBD_LL_SetUSBAddress                  0x0800573a   Section        0  usbd_conf.o(i.USBD_LL_SetUSBAddress)
    i.USBD_LL_SetupStage                     0x0800574c   Section        0  usbd_core.o(i.USBD_LL_SetupStage)
    i.USBD_LL_StallEP                        0x080057ac   Section        0  usbd_conf.o(i.USBD_LL_StallEP)
    i.USBD_LL_Start                          0x080057be   Section        0  usbd_conf.o(i.USBD_LL_Start)
    i.USBD_LL_Suspend                        0x080057d0   Section        0  usbd_core.o(i.USBD_LL_Suspend)
    i.USBD_LL_Transmit                       0x080057e2   Section        0  usbd_conf.o(i.USBD_LL_Transmit)
    i.USBD_ParseSetupRequest                 0x080057f4   Section        0  usbd_ctlreq.o(i.USBD_ParseSetupRequest)
    i.USBD_RegisterClass                     0x08005820   Section        0  usbd_core.o(i.USBD_RegisterClass)
    i.USBD_SetClassConfig                    0x08005844   Section        0  usbd_core.o(i.USBD_SetClassConfig)
    i.USBD_SetConfig                         0x08005858   Section        0  usbd_ctlreq.o(i.USBD_SetConfig)
    USBD_SetConfig                           0x08005859   Thumb Code   182  usbd_ctlreq.o(i.USBD_SetConfig)
    i.USBD_Start                             0x08005914   Section        0  usbd_core.o(i.USBD_Start)
    i.USBD_StdDevReq                         0x08005918   Section        0  usbd_ctlreq.o(i.USBD_StdDevReq)
    i.USBD_StdEPReq                          0x08005a2c   Section        0  usbd_ctlreq.o(i.USBD_StdEPReq)
    i.USBD_StdItfReq                         0x08005b6c   Section        0  usbd_ctlreq.o(i.USBD_StdItfReq)
    i.USBD_static_free                       0x08005bbe   Section        0  usbd_conf.o(i.USBD_static_free)
    i.USBD_static_malloc                     0x08005bc0   Section        0  usbd_conf.o(i.USBD_static_malloc)
    i.USB_ActivateEndpoint                   0x08005bc8   Section        0  stm32g4xx_ll_usb.o(i.USB_ActivateEndpoint)
    i.USB_DeactivateEndpoint                 0x08005e30   Section        0  stm32g4xx_ll_usb.o(i.USB_DeactivateEndpoint)
    i.USB_DevConnect                         0x08005f3e   Section        0  stm32g4xx_ll_usb.o(i.USB_DevConnect)
    i.USB_DevInit                            0x08005f4c   Section        0  stm32g4xx_ll_usb.o(i.USB_DevInit)
    i.USB_DisableGlobalInt                   0x08005f5e   Section        0  stm32g4xx_ll_usb.o(i.USB_DisableGlobalInt)
    i.USB_EPClearStall                       0x08005f6e   Section        0  stm32g4xx_ll_usb.o(i.USB_EPClearStall)
    i.USB_EPSetStall                         0x08005fe6   Section        0  stm32g4xx_ll_usb.o(i.USB_EPSetStall)
    i.USB_EPStartXfer                        0x08006018   Section        0  stm32g4xx_ll_usb.o(i.USB_EPStartXfer)
    i.USB_EnableGlobalInt                    0x0800649e   Section        0  stm32g4xx_ll_usb.o(i.USB_EnableGlobalInt)
    i.USB_LP_IRQHandler                      0x080064b0   Section        0  stm32g4xx_it.o(i.USB_LP_IRQHandler)
    i.USB_ReadInterrupts                     0x080064bc   Section        0  stm32g4xx_ll_usb.o(i.USB_ReadInterrupts)
    i.USB_ReadPMA                            0x080064c2   Section        0  stm32g4xx_ll_usb.o(i.USB_ReadPMA)
    i.USB_SetDevAddress                      0x080064ea   Section        0  stm32g4xx_ll_usb.o(i.USB_SetDevAddress)
    i.USB_WritePMA                           0x080064f8   Section        0  stm32g4xx_ll_usb.o(i.USB_WritePMA)
    i.UsageFault_Handler                     0x0800651e   Section        0  stm32g4xx_it.o(i.UsageFault_Handler)
    i._IIC_Ack                               0x08006520   Section        0  iic.o(i._IIC_Ack)
    i._IIC_Read                              0x08006562   Section        0  iic.o(i._IIC_Read)
    i._IIC_Start                             0x08006592   Section        0  iic.o(i._IIC_Start)
    i._IIC_Stop                              0x080065ac   Section        0  iic.o(i._IIC_Stop)
    i._IIC_Write                             0x080065d4   Section        0  iic.o(i._IIC_Write)
    i._SCL_High                              0x08006618   Section        0  iic.o(i._SCL_High)
    i._SCL_Low                               0x08006628   Section        0  iic.o(i._SCL_Low)
    i._SDA_High                              0x08006638   Section        0  iic.o(i._SDA_High)
    i._SDA_Low                               0x08006648   Section        0  iic.o(i._SDA_Low)
    i._SDA_Read                              0x08006658   Section        0  iic.o(i._SDA_Read)
    i.__ARM_fpclassify                       0x08006664   Section        0  fpclassify.o(i.__ARM_fpclassify)
    i.__NVIC_SetPriority                     0x08006694   Section        0  stm32g4xx_hal_cortex.o(i.__NVIC_SetPriority)
    __NVIC_SetPriority                       0x08006695   Thumb Code    32  stm32g4xx_hal_cortex.o(i.__NVIC_SetPriority)
    i.__hardfp_cos                           0x080066b8   Section        0  cos.o(i.__hardfp_cos)
    i.__hardfp_sin                           0x08006780   Section        0  sin.o(i.__hardfp_sin)
    i.__ieee754_rem_pio2                     0x08006848   Section        0  rred.o(i.__ieee754_rem_pio2)
    i.__kernel_cos                           0x08006c80   Section        0  cos_i.o(i.__kernel_cos)
    i.__kernel_poly                          0x08006df0   Section        0  poly.o(i.__kernel_poly)
    i.__kernel_sin                           0x08006ee8   Section        0  sin_i.o(i.__kernel_sin)
    i.__mathlib_dbl_infnan                   0x08007018   Section        0  dunder.o(i.__mathlib_dbl_infnan)
    i.__mathlib_dbl_invalid                  0x08007030   Section        0  dunder.o(i.__mathlib_dbl_invalid)
    i.__mathlib_dbl_underflow                0x08007050   Section        0  dunder.o(i.__mathlib_dbl_underflow)
    i.__scatterload_copy                     0x08007070   Section       14  handlers.o(i.__scatterload_copy)
    i.__scatterload_null                     0x0800707e   Section        2  handlers.o(i.__scatterload_null)
    i.__scatterload_zeroinit                 0x08007080   Section       14  handlers.o(i.__scatterload_zeroinit)
    i.__set_errno                            0x08007090   Section        0  errno.o(i.__set_errno)
    i._iic_delay                             0x0800709c   Section        0  iic.o(i._iic_delay)
    i.cal_angle_sincos                       0x080070a4   Section        0  foc.o(i.cal_angle_sincos)
    i.data_send                              0x080070fc   Section        0  usb_hidcommunication.o(i.data_send)
    i.fabs                                   0x0800710c   Section        0  fabs.o(i.fabs)
    i.foc_init                               0x08007124   Section        0  foc.o(i.foc_init)
    i.get_M_Iq                               0x08007174   Section        0  foc.o(i.get_M_Iq)
    i.get_adc_u_value                        0x08007180   Section        0  electricity_get.o(i.get_adc_u_value)
    i.get_adc_v_value                        0x080071ec   Section        0  electricity_get.o(i.get_adc_v_value)
    i.hid_keyboard_nextsong_send             0x08007258   Section        0  usb_hidcommunication.o(i.hid_keyboard_nextsong_send)
    i.hid_recv_data                          0x0800729c   Section        0  usb_hidcommunication.o(i.hid_recv_data)
    i.hid_send_Iq                            0x080072e0   Section        0  usb_hidcommunication.o(i.hid_send_Iq)
    i.iic_read_data                          0x0800730c   Section        0  iic.o(i.iic_read_data)
    i.main                                   0x0800734c   Section        0  main.o(i.main)
    i.open_loop_control                      0x080073d4   Section        0  foc.o(i.open_loop_control)
    i.positioning_control                    0x08007410   Section        0  foc.o(i.positioning_control)
    i.pwm_halt                               0x080074e8   Section        0  pwm.o(i.pwm_halt)
    i.pwm_init                               0x08007500   Section        0  pwm.o(i.pwm_init)
    i.pwm_update                             0x08007530   Section        0  pwm.o(i.pwm_update)
    i.read_as5600_angle                      0x080075d8   Section        0  as5600.o(i.read_as5600_angle)
    i.set_foc_open_loop_direction            0x080076bc   Section        0  foc.o(i.set_foc_open_loop_direction)
    i.set_foc_ud                             0x080076ec   Section        0  foc.o(i.set_foc_ud)
    i.set_foc_uq                             0x080076f8   Section        0  foc.o(i.set_foc_uq)
    i.set_positioning_angle                  0x08007704   Section        0  foc.o(i.set_positioning_angle)
    i.start_adc                              0x08007710   Section        0  electricity_get.o(i.start_adc)
    i.to_electrical_angle                    0x08007724   Section        0  foc.o(i.to_electrical_angle)
    i.update_currUV                          0x08007754   Section        0  foc.o(i.update_currUV)
    .constdata                               0x08007770   Section       24  stm32g4xx_hal_uart.o(.constdata)
    .constdata                               0x08007788   Section       16  stm32g4xx_hal_uart_ex.o(.constdata)
    numerator                                0x08007788   Data           8  stm32g4xx_hal_uart_ex.o(.constdata)
    denominator                              0x08007790   Data           8  stm32g4xx_hal_uart_ex.o(.constdata)
    .constdata                               0x08007798   Section       16  system_stm32g4xx.o(.constdata)
    .constdata                               0x080077a8   Section        8  system_stm32g4xx.o(.constdata)
    .constdata                               0x080077b0   Section       48  cos_i.o(.constdata)
    C                                        0x080077b0   Data          48  cos_i.o(.constdata)
    .constdata                               0x080077e0   Section      200  rred.o(.constdata)
    pio2s                                    0x080077e0   Data          48  rred.o(.constdata)
    twooverpi                                0x08007810   Data         152  rred.o(.constdata)
    .constdata                               0x080078a8   Section       40  sin_i.o(.constdata)
    S                                        0x080078a8   Data          40  sin_i.o(.constdata)
    .data                                    0x20000000   Section       32  usbd_desc.o(.data)
    .data                                    0x20000020   Section       50  usbd_desc.o(.data)
    .data                                    0x20000054   Section       34  usbd_custom_hid_if.o(.data)
    CUSTOM_HID_ReportDesc_FS                 0x20000054   Data          34  usbd_custom_hid_if.o(.data)
    .data                                    0x20000078   Section       16  usbd_custom_hid_if.o(.data)
    .data                                    0x20000088   Section       12  stm32g4xx_hal.o(.data)
    .data                                    0x20000094   Section        4  system_stm32g4xx.o(.data)
    .data                                    0x20000098   Section        1  usbd_ctlreq.o(.data)
    cfgidx                                   0x20000098   Data           1  usbd_ctlreq.o(.data)
    .data                                    0x2000009c   Section       56  usbd_customhid.o(.data)
    .data                                    0x200000d4   Section      291  usbd_customhid.o(.data)
    USBD_CUSTOM_HID_CfgFSDesc                0x200000d4   Data          66  usbd_customhid.o(.data)
    USBD_CUSTOM_HID_CfgHSDesc                0x20000118   Data          66  usbd_customhid.o(.data)
    USBD_CUSTOM_HID_OtherSpeedCfgDesc        0x2000015c   Data          66  usbd_customhid.o(.data)
    USBD_CUSTOM_HID_Desc                     0x200001a0   Data           9  usbd_customhid.o(.data)
    USBD_CUSTOM_HID_DeviceQualifierDesc      0x200001ac   Data          10  usbd_customhid.o(.data)
    HID_KEYBOARD_ReportDesc                  0x200001b8   Data          63  usbd_customhid.o(.data)
    .data                                    0x200001f8   Section        8  appmain.o(.data)
    .data                                    0x20000200   Section       24  as5600.o(.data)
    .data                                    0x20000218   Section       16  electricity_get.o(.data)
    .data                                    0x20000228   Section        9  usb_hidcommunication.o(.data)
    .data                                    0x20000234   Section        4  errno.o(.data)
    _errno                                   0x20000234   Data           4  errno.o(.data)
    .bss                                     0x20000238   Section      204  adc.o(.bss)
    .bss                                     0x20000304   Section      228  tim.o(.bss)
    .bss                                     0x200003e8   Section      144  usart.o(.bss)
    .bss                                     0x20000478   Section      788  usbd_conf.o(.bss)
    mem                                      0x20000478   Data          32  usbd_conf.o(.bss)
    .bss                                     0x2000078c   Section      720  usb_device.o(.bss)
    .bss                                     0x20000a5c   Section      512  usbd_desc.o(.bss)
    .bss                                     0x20000c5c   Section      112  foc.o(.bss)
    STACK                                    0x20000cd0   Section     8192  startup_stm32g431xx.o(STACK)

    Global Symbols

    Symbol Name                              Value     Ov Type        Size  Object(Section)

    BuildAttributes$$THM_ISAv4$E$P$D$K$B$S$7EM$VFPi3$EXTD16$VFPS$VFMA$PE$A:L22UL41UL21$X:L11$S22US41US21$IEEE1$IW$USESV6$~STKCKD$USESV7$~SHL$OTIME$ROPI$IEEEX$EBA8$MICROLIB$REQ8$PRES8$EABIv2 0x00000000   Number         0  anon$$obj.o ABSOLUTE
    __ARM_use_no_argv                        0x00000000   Number         0  main.o ABSOLUTE
    __cpp_initialize__aeabi_                  - Undefined Weak Reference
    __cxa_finalize                            - Undefined Weak Reference
    _clock_init                               - Undefined Weak Reference
    _microlib_exit                            - Undefined Weak Reference
    __Vectors_Size                           0x000001d8   Number         0  startup_stm32g431xx.o ABSOLUTE
    __Vectors                                0x08000000   Data           4  startup_stm32g431xx.o(RESET)
    __Vectors_End                            0x080001d8   Data           0  startup_stm32g431xx.o(RESET)
    __main                                   0x080001d9   Thumb Code     0  entry.o(.ARM.Collect$$$$00000000)
    _main_stk                                0x080001d9   Thumb Code     0  entry2.o(.ARM.Collect$$$$00000001)
    _main_scatterload                        0x080001dd   Thumb Code     0  entry5.o(.ARM.Collect$$$$00000004)
    __main_after_scatterload                 0x080001e1   Thumb Code     0  entry5.o(.ARM.Collect$$$$00000004)
    _main_clock                              0x080001e1   Thumb Code     0  entry7b.o(.ARM.Collect$$$$00000008)
    _main_cpp_init                           0x080001e1   Thumb Code     0  entry8b.o(.ARM.Collect$$$$0000000A)
    _main_init                               0x080001e1   Thumb Code     0  entry9a.o(.ARM.Collect$$$$0000000B)
    __rt_final_cpp                           0x080001e9   Thumb Code     0  entry10a.o(.ARM.Collect$$$$0000000D)
    __rt_final_exit                          0x080001e9   Thumb Code     0  entry11a.o(.ARM.Collect$$$$0000000F)
    Reset_Handler                            0x080001ed   Thumb Code     8  startup_stm32g431xx.o(.text)
    ADC1_2_IRQHandler                        0x08000207   Thumb Code     0  startup_stm32g431xx.o(.text)
    COMP1_2_3_IRQHandler                     0x08000207   Thumb Code     0  startup_stm32g431xx.o(.text)
    COMP4_IRQHandler                         0x08000207   Thumb Code     0  startup_stm32g431xx.o(.text)
    CORDIC_IRQHandler                        0x08000207   Thumb Code     0  startup_stm32g431xx.o(.text)
    CRS_IRQHandler                           0x08000207   Thumb Code     0  startup_stm32g431xx.o(.text)
    DMA1_Channel2_IRQHandler                 0x08000207   Thumb Code     0  startup_stm32g431xx.o(.text)
    DMA1_Channel3_IRQHandler                 0x08000207   Thumb Code     0  startup_stm32g431xx.o(.text)
    DMA1_Channel4_IRQHandler                 0x08000207   Thumb Code     0  startup_stm32g431xx.o(.text)
    DMA1_Channel5_IRQHandler                 0x08000207   Thumb Code     0  startup_stm32g431xx.o(.text)
    DMA1_Channel6_IRQHandler                 0x08000207   Thumb Code     0  startup_stm32g431xx.o(.text)
    DMA2_Channel1_IRQHandler                 0x08000207   Thumb Code     0  startup_stm32g431xx.o(.text)
    DMA2_Channel2_IRQHandler                 0x08000207   Thumb Code     0  startup_stm32g431xx.o(.text)
    DMA2_Channel3_IRQHandler                 0x08000207   Thumb Code     0  startup_stm32g431xx.o(.text)
    DMA2_Channel4_IRQHandler                 0x08000207   Thumb Code     0  startup_stm32g431xx.o(.text)
    DMA2_Channel5_IRQHandler                 0x08000207   Thumb Code     0  startup_stm32g431xx.o(.text)
    DMA2_Channel6_IRQHandler                 0x08000207   Thumb Code     0  startup_stm32g431xx.o(.text)
    DMAMUX_OVR_IRQHandler                    0x08000207   Thumb Code     0  startup_stm32g431xx.o(.text)
    EXTI0_IRQHandler                         0x08000207   Thumb Code     0  startup_stm32g431xx.o(.text)
    EXTI15_10_IRQHandler                     0x08000207   Thumb Code     0  startup_stm32g431xx.o(.text)
    EXTI1_IRQHandler                         0x08000207   Thumb Code     0  startup_stm32g431xx.o(.text)
    EXTI2_IRQHandler                         0x08000207   Thumb Code     0  startup_stm32g431xx.o(.text)
    EXTI3_IRQHandler                         0x08000207   Thumb Code     0  startup_stm32g431xx.o(.text)
    EXTI4_IRQHandler                         0x08000207   Thumb Code     0  startup_stm32g431xx.o(.text)
    EXTI9_5_IRQHandler                       0x08000207   Thumb Code     0  startup_stm32g431xx.o(.text)
    FDCAN1_IT0_IRQHandler                    0x08000207   Thumb Code     0  startup_stm32g431xx.o(.text)
    FDCAN1_IT1_IRQHandler                    0x08000207   Thumb Code     0  startup_stm32g431xx.o(.text)
    FLASH_IRQHandler                         0x08000207   Thumb Code     0  startup_stm32g431xx.o(.text)
    FMAC_IRQHandler                          0x08000207   Thumb Code     0  startup_stm32g431xx.o(.text)
    FPU_IRQHandler                           0x08000207   Thumb Code     0  startup_stm32g431xx.o(.text)
    I2C1_ER_IRQHandler                       0x08000207   Thumb Code     0  startup_stm32g431xx.o(.text)
    I2C1_EV_IRQHandler                       0x08000207   Thumb Code     0  startup_stm32g431xx.o(.text)
    I2C2_ER_IRQHandler                       0x08000207   Thumb Code     0  startup_stm32g431xx.o(.text)
    I2C2_EV_IRQHandler                       0x08000207   Thumb Code     0  startup_stm32g431xx.o(.text)
    I2C3_ER_IRQHandler                       0x08000207   Thumb Code     0  startup_stm32g431xx.o(.text)
    I2C3_EV_IRQHandler                       0x08000207   Thumb Code     0  startup_stm32g431xx.o(.text)
    LPTIM1_IRQHandler                        0x08000207   Thumb Code     0  startup_stm32g431xx.o(.text)
    LPUART1_IRQHandler                       0x08000207   Thumb Code     0  startup_stm32g431xx.o(.text)
    PVD_PVM_IRQHandler                       0x08000207   Thumb Code     0  startup_stm32g431xx.o(.text)
    RCC_IRQHandler                           0x08000207   Thumb Code     0  startup_stm32g431xx.o(.text)
    RNG_IRQHandler                           0x08000207   Thumb Code     0  startup_stm32g431xx.o(.text)
    RTC_Alarm_IRQHandler                     0x08000207   Thumb Code     0  startup_stm32g431xx.o(.text)
    RTC_TAMP_LSECSS_IRQHandler               0x08000207   Thumb Code     0  startup_stm32g431xx.o(.text)
    RTC_WKUP_IRQHandler                      0x08000207   Thumb Code     0  startup_stm32g431xx.o(.text)
    SAI1_IRQHandler                          0x08000207   Thumb Code     0  startup_stm32g431xx.o(.text)
    SPI1_IRQHandler                          0x08000207   Thumb Code     0  startup_stm32g431xx.o(.text)
    SPI2_IRQHandler                          0x08000207   Thumb Code     0  startup_stm32g431xx.o(.text)
    SPI3_IRQHandler                          0x08000207   Thumb Code     0  startup_stm32g431xx.o(.text)
    TIM1_BRK_TIM15_IRQHandler                0x08000207   Thumb Code     0  startup_stm32g431xx.o(.text)
    TIM1_CC_IRQHandler                       0x08000207   Thumb Code     0  startup_stm32g431xx.o(.text)
    TIM1_TRG_COM_TIM17_IRQHandler            0x08000207   Thumb Code     0  startup_stm32g431xx.o(.text)
    TIM4_IRQHandler                          0x08000207   Thumb Code     0  startup_stm32g431xx.o(.text)
    TIM6_DAC_IRQHandler                      0x08000207   Thumb Code     0  startup_stm32g431xx.o(.text)
    TIM7_IRQHandler                          0x08000207   Thumb Code     0  startup_stm32g431xx.o(.text)
    TIM8_BRK_IRQHandler                      0x08000207   Thumb Code     0  startup_stm32g431xx.o(.text)
    TIM8_CC_IRQHandler                       0x08000207   Thumb Code     0  startup_stm32g431xx.o(.text)
    TIM8_TRG_COM_IRQHandler                  0x08000207   Thumb Code     0  startup_stm32g431xx.o(.text)
    TIM8_UP_IRQHandler                       0x08000207   Thumb Code     0  startup_stm32g431xx.o(.text)
    UART4_IRQHandler                         0x08000207   Thumb Code     0  startup_stm32g431xx.o(.text)
    UCPD1_IRQHandler                         0x08000207   Thumb Code     0  startup_stm32g431xx.o(.text)
    USART1_IRQHandler                        0x08000207   Thumb Code     0  startup_stm32g431xx.o(.text)
    USART2_IRQHandler                        0x08000207   Thumb Code     0  startup_stm32g431xx.o(.text)
    USART3_IRQHandler                        0x08000207   Thumb Code     0  startup_stm32g431xx.o(.text)
    USBWakeUp_IRQHandler                     0x08000207   Thumb Code     0  startup_stm32g431xx.o(.text)
    USB_HP_IRQHandler                        0x08000207   Thumb Code     0  startup_stm32g431xx.o(.text)
    WWDG_IRQHandler                          0x08000207   Thumb Code     0  startup_stm32g431xx.o(.text)
    __aeabi_uldivmod                         0x08000211   Thumb Code    98  uldiv.o(.text)
    __aeabi_memcpy                           0x08000273   Thumb Code    36  memcpya.o(.text)
    __aeabi_memcpy4                          0x08000273   Thumb Code     0  memcpya.o(.text)
    __aeabi_memcpy8                          0x08000273   Thumb Code     0  memcpya.o(.text)
    __aeabi_memset                           0x08000297   Thumb Code    14  memseta.o(.text)
    __aeabi_memset4                          0x08000297   Thumb Code     0  memseta.o(.text)
    __aeabi_memset8                          0x08000297   Thumb Code     0  memseta.o(.text)
    __aeabi_memclr                           0x080002a5   Thumb Code     4  memseta.o(.text)
    __aeabi_memclr4                          0x080002a5   Thumb Code     0  memseta.o(.text)
    __aeabi_memclr8                          0x080002a5   Thumb Code     0  memseta.o(.text)
    _memset$wrapper                          0x080002a9   Thumb Code    18  memseta.o(.text)
    __aeabi_dadd                             0x080002bb   Thumb Code   322  dadd.o(.text)
    __aeabi_dsub                             0x080003fd   Thumb Code     6  dadd.o(.text)
    __aeabi_drsub                            0x08000403   Thumb Code     6  dadd.o(.text)
    __aeabi_dmul                             0x08000409   Thumb Code   228  dmul.o(.text)
    __aeabi_ddiv                             0x080004ed   Thumb Code   222  ddiv.o(.text)
    __aeabi_i2d                              0x080005cb   Thumb Code    34  dflti.o(.text)
    __aeabi_ui2d                             0x080005ed   Thumb Code    26  dfltui.o(.text)
    __aeabi_f2d                              0x08000607   Thumb Code    38  f2d.o(.text)
    __aeabi_cdcmpeq                          0x0800062d   Thumb Code     0  cdcmple.o(.text)
    __aeabi_cdcmple                          0x0800062d   Thumb Code    48  cdcmple.o(.text)
    __aeabi_d2f                              0x0800065d   Thumb Code    56  d2f.o(.text)
    __aeabi_llsl                             0x08000695   Thumb Code    30  llshl.o(.text)
    _ll_shift_l                              0x08000695   Thumb Code     0  llshl.o(.text)
    __aeabi_llsr                             0x080006b3   Thumb Code    32  llushr.o(.text)
    _ll_ushift_r                             0x080006b3   Thumb Code     0  llushr.o(.text)
    __aeabi_lasr                             0x080006d3   Thumb Code    36  llsshr.o(.text)
    _ll_sshift_r                             0x080006d3   Thumb Code     0  llsshr.o(.text)
    __I$use$fp                               0x080006f7   Thumb Code     0  iusefp.o(.text)
    _float_round                             0x080006f7   Thumb Code    18  fepilogue.o(.text)
    _float_epilogue                          0x08000709   Thumb Code    92  fepilogue.o(.text)
    _double_round                            0x08000765   Thumb Code    30  depilogue.o(.text)
    _double_epilogue                         0x08000783   Thumb Code   156  depilogue.o(.text)
    __scatterload                            0x08000821   Thumb Code    28  init.o(.text)
    __scatterload_rt2                        0x08000821   Thumb Code     0  init.o(.text)
    __aeabi_d2iz                             0x08000845   Thumb Code    62  dfixi.o(.text)
    __decompress                             0x08000883   Thumb Code     0  __dczerorl2.o(.text)
    __decompress1                            0x08000883   Thumb Code    86  __dczerorl2.o(.text)
    ADC_DMAConvCplt                          0x080008d9   Thumb Code   104  stm32g4xx_hal_adc.o(i.ADC_DMAConvCplt)
    ADC_DMAError                             0x08000941   Thumb Code    26  stm32g4xx_hal_adc.o(i.ADC_DMAError)
    ADC_DMAHalfConvCplt                      0x0800095b   Thumb Code    10  stm32g4xx_hal_adc.o(i.ADC_DMAHalfConvCplt)
    ADC_Enable                               0x08000965   Thumb Code   110  stm32g4xx_hal_adc.o(i.ADC_Enable)
    AppMain                                  0x080009d9   Thumb Code    74  appmain.o(i.AppMain)
    BusFault_Handler                         0x08000a39   Thumb Code     2  stm32g4xx_it.o(i.BusFault_Handler)
    Clarke                                   0x08000a85   Thumb Code    36  foc.o(i.Clarke)
    Common_Parameters_Parsing                0x08000ab1   Thumb Code    90  usb_hidcommunication.o(i.Common_Parameters_Parsing)
    DMA1_Channel1_IRQHandler                 0x08000b15   Thumb Code     6  stm32g4xx_it.o(i.DMA1_Channel1_IRQHandler)
    DebugMon_Handler                         0x08000bc3   Thumb Code     2  stm32g4xx_it.o(i.DebugMon_Handler)
    Error_Handler                            0x08000bc5   Thumb Code     4  main.o(i.Error_Handler)
    Generate_SVPWM                           0x08000bc9   Thumb Code   162  foc.o(i.Generate_SVPWM)
    Generate_Sector_Time                     0x08000c71   Thumb Code   608  foc.o(i.Generate_Sector_Time)
    HAL_ADCEx_MultiModeConfigChannel         0x08000eed   Thumb Code   208  stm32g4xx_hal_adc_ex.o(i.HAL_ADCEx_MultiModeConfigChannel)
    HAL_ADC_ConfigChannel                    0x08000fc5   Thumb Code   998  stm32g4xx_hal_adc.o(i.HAL_ADC_ConfigChannel)
    HAL_ADC_ConvCpltCallback                 0x080013dd   Thumb Code     2  stm32g4xx_hal_adc.o(i.HAL_ADC_ConvCpltCallback)
    HAL_ADC_ConvHalfCpltCallback             0x080013df   Thumb Code     2  stm32g4xx_hal_adc.o(i.HAL_ADC_ConvHalfCpltCallback)
    HAL_ADC_ErrorCallback                    0x080013e1   Thumb Code     2  stm32g4xx_hal_adc.o(i.HAL_ADC_ErrorCallback)
    HAL_ADC_Init                             0x080013e5   Thumb Code   476  stm32g4xx_hal_adc.o(i.HAL_ADC_Init)
    HAL_ADC_MspInit                          0x080015e1   Thumb Code   160  adc.o(i.HAL_ADC_MspInit)
    HAL_ADC_Start_DMA                        0x0800168d   Thumb Code   214  stm32g4xx_hal_adc.o(i.HAL_ADC_Start_DMA)
    HAL_DMA_IRQHandler                       0x0800177d   Thumb Code   186  stm32g4xx_hal_dma.o(i.HAL_DMA_IRQHandler)
    HAL_DMA_Init                             0x08001839   Thumb Code   178  stm32g4xx_hal_dma.o(i.HAL_DMA_Init)
    HAL_DMA_Start_IT                         0x080018f9   Thumb Code   140  stm32g4xx_hal_dma.o(i.HAL_DMA_Start_IT)
    HAL_Delay                                0x08001985   Thumb Code    32  stm32g4xx_hal.o(i.HAL_Delay)
    HAL_GPIO_Init                            0x080019a9   Thumb Code   550  stm32g4xx_hal_gpio.o(i.HAL_GPIO_Init)
    HAL_GPIO_ReadPin                         0x08001bf1   Thumb Code    10  stm32g4xx_hal_gpio.o(i.HAL_GPIO_ReadPin)
    HAL_GPIO_WritePin                        0x08001bfb   Thumb Code    10  stm32g4xx_hal_gpio.o(i.HAL_GPIO_WritePin)
    HAL_GetTick                              0x08001c05   Thumb Code     6  stm32g4xx_hal.o(i.HAL_GetTick)
    HAL_IncTick                              0x08001c11   Thumb Code    12  stm32g4xx_hal.o(i.HAL_IncTick)
    HAL_Init                                 0x08001c21   Thumb Code    30  stm32g4xx_hal.o(i.HAL_Init)
    HAL_InitTick                             0x08001c41   Thumb Code    58  stm32g4xx_hal.o(i.HAL_InitTick)
    HAL_MspInit                              0x08001c85   Thumb Code    42  stm32g4xx_hal_msp.o(i.HAL_MspInit)
    HAL_NVIC_EnableIRQ                       0x08001cb5   Thumb Code    26  stm32g4xx_hal_cortex.o(i.HAL_NVIC_EnableIRQ)
    HAL_NVIC_SetPriority                     0x08001cd1   Thumb Code    60  stm32g4xx_hal_cortex.o(i.HAL_NVIC_SetPriority)
    HAL_NVIC_SetPriorityGrouping             0x08001d11   Thumb Code    26  stm32g4xx_hal_cortex.o(i.HAL_NVIC_SetPriorityGrouping)
    HAL_PCDEx_ActivateLPM                    0x08001d35   Thumb Code    36  stm32g4xx_hal_pcd_ex.o(i.HAL_PCDEx_ActivateLPM)
    HAL_PCDEx_LPM_Callback                   0x08001d59   Thumb Code    64  usbd_conf.o(i.HAL_PCDEx_LPM_Callback)
    HAL_PCDEx_PMAConfig                      0x08001d9d   Thumb Code    60  stm32g4xx_hal_pcd_ex.o(i.HAL_PCDEx_PMAConfig)
    HAL_PCD_DataInStageCallback              0x08001dd9   Thumb Code    18  usbd_conf.o(i.HAL_PCD_DataInStageCallback)
    HAL_PCD_DataOutStageCallback             0x08001deb   Thumb Code    20  usbd_conf.o(i.HAL_PCD_DataOutStageCallback)
    HAL_PCD_EP_Close                         0x08001dff   Thumb Code    76  stm32g4xx_hal_pcd.o(i.HAL_PCD_EP_Close)
    HAL_PCD_EP_ClrStall                      0x08001e4b   Thumb Code    92  stm32g4xx_hal_pcd.o(i.HAL_PCD_EP_ClrStall)
    HAL_PCD_EP_Open                          0x080022b3   Thumb Code    96  stm32g4xx_hal_pcd.o(i.HAL_PCD_EP_Open)
    HAL_PCD_EP_Receive                       0x08002313   Thumb Code    50  stm32g4xx_hal_pcd.o(i.HAL_PCD_EP_Receive)
    HAL_PCD_EP_SetStall                      0x08002345   Thumb Code    96  stm32g4xx_hal_pcd.o(i.HAL_PCD_EP_SetStall)
    HAL_PCD_EP_Transmit                      0x080023a5   Thumb Code    52  stm32g4xx_hal_pcd.o(i.HAL_PCD_EP_Transmit)
    HAL_PCD_IRQHandler                       0x080023d9   Thumb Code   330  stm32g4xx_hal_pcd.o(i.HAL_PCD_IRQHandler)
    HAL_PCD_Init                             0x08002523   Thumb Code   178  stm32g4xx_hal_pcd.o(i.HAL_PCD_Init)
    HAL_PCD_MspInit                          0x080025d5   Thumb Code    80  usbd_conf.o(i.HAL_PCD_MspInit)
    HAL_PCD_ResetCallback                    0x0800262d   Thumb Code    38  usbd_conf.o(i.HAL_PCD_ResetCallback)
    HAL_PCD_ResumeCallback                   0x08002655   Thumb Code    34  usbd_conf.o(i.HAL_PCD_ResumeCallback)
    HAL_PCD_SOFCallback                      0x0800267d   Thumb Code     8  usbd_conf.o(i.HAL_PCD_SOFCallback)
    HAL_PCD_SetAddress                       0x08002685   Thumb Code    40  stm32g4xx_hal_pcd.o(i.HAL_PCD_SetAddress)
    HAL_PCD_SetupStageCallback               0x080026ad   Thumb Code    14  usbd_conf.o(i.HAL_PCD_SetupStageCallback)
    HAL_PCD_Start                            0x080026bb   Thumb Code    42  stm32g4xx_hal_pcd.o(i.HAL_PCD_Start)
    HAL_PCD_SuspendCallback                  0x080026e5   Thumb Code    30  usbd_conf.o(i.HAL_PCD_SuspendCallback)
    HAL_PWREx_ControlVoltageScaling          0x08002709   Thumb Code   174  stm32g4xx_hal_pwr_ex.o(i.HAL_PWREx_ControlVoltageScaling)
    HAL_PWREx_DisableUCPDDeadBattery         0x080027c5   Thumb Code    12  stm32g4xx_hal_pwr_ex.o(i.HAL_PWREx_DisableUCPDDeadBattery)
    HAL_RCCEx_PeriphCLKConfig                0x080027d5   Thumb Code   638  stm32g4xx_hal_rcc_ex.o(i.HAL_RCCEx_PeriphCLKConfig)
    HAL_RCC_ClockConfig                      0x08002a5d   Thumb Code   444  stm32g4xx_hal_rcc.o(i.HAL_RCC_ClockConfig)
    HAL_RCC_GetPCLK1Freq                     0x08002c39   Thumb Code    24  stm32g4xx_hal_rcc.o(i.HAL_RCC_GetPCLK1Freq)
    HAL_RCC_GetPCLK2Freq                     0x08002c5d   Thumb Code    24  stm32g4xx_hal_rcc.o(i.HAL_RCC_GetPCLK2Freq)
    HAL_RCC_GetSysClockFreq                  0x08002c81   Thumb Code    98  stm32g4xx_hal_rcc.o(i.HAL_RCC_GetSysClockFreq)
    HAL_RCC_OscConfig                        0x08002ced   Thumb Code  1036  stm32g4xx_hal_rcc.o(i.HAL_RCC_OscConfig)
    HAL_SYSTICK_Config                       0x080030f9   Thumb Code    40  stm32g4xx_hal_cortex.o(i.HAL_SYSTICK_Config)
    HAL_TIMEx_Break2Callback                 0x08003121   Thumb Code     2  stm32g4xx_hal_tim_ex.o(i.HAL_TIMEx_Break2Callback)
    HAL_TIMEx_BreakCallback                  0x08003123   Thumb Code     2  stm32g4xx_hal_tim_ex.o(i.HAL_TIMEx_BreakCallback)
    HAL_TIMEx_CommutCallback                 0x08003125   Thumb Code     2  stm32g4xx_hal_tim_ex.o(i.HAL_TIMEx_CommutCallback)
    HAL_TIMEx_ConfigBreakDeadTime            0x08003129   Thumb Code   164  stm32g4xx_hal_tim_ex.o(i.HAL_TIMEx_ConfigBreakDeadTime)
    HAL_TIMEx_DirectionChangeCallback        0x080031d5   Thumb Code     2  stm32g4xx_hal_tim_ex.o(i.HAL_TIMEx_DirectionChangeCallback)
    HAL_TIMEx_EncoderIndexCallback           0x080031d7   Thumb Code     2  stm32g4xx_hal_tim_ex.o(i.HAL_TIMEx_EncoderIndexCallback)
    HAL_TIMEx_IndexErrorCallback             0x080031d9   Thumb Code     2  stm32g4xx_hal_tim_ex.o(i.HAL_TIMEx_IndexErrorCallback)
    HAL_TIMEx_MasterConfigSynchronization    0x080031dd   Thumb Code   132  stm32g4xx_hal_tim_ex.o(i.HAL_TIMEx_MasterConfigSynchronization)
    HAL_TIMEx_TransitionErrorCallback        0x08003279   Thumb Code     2  stm32g4xx_hal_tim_ex.o(i.HAL_TIMEx_TransitionErrorCallback)
    HAL_TIM_Base_Init                        0x0800327b   Thumb Code    98  stm32g4xx_hal_tim.o(i.HAL_TIM_Base_Init)
    HAL_TIM_Base_MspInit                     0x080032dd   Thumb Code    86  tim.o(i.HAL_TIM_Base_MspInit)
    HAL_TIM_Base_Start_IT                    0x0800333d   Thumb Code    94  stm32g4xx_hal_tim.o(i.HAL_TIM_Base_Start_IT)
    HAL_TIM_ConfigClockSource                0x080033b5   Thumb Code   246  stm32g4xx_hal_tim.o(i.HAL_TIM_ConfigClockSource)
    HAL_TIM_IC_CaptureCallback               0x080034b5   Thumb Code     2  stm32g4xx_hal_tim.o(i.HAL_TIM_IC_CaptureCallback)
    HAL_TIM_IRQHandler                       0x080034b7   Thumb Code   508  stm32g4xx_hal_tim.o(i.HAL_TIM_IRQHandler)
    HAL_TIM_MspPostInit                      0x080036b5   Thumb Code    74  tim.o(i.HAL_TIM_MspPostInit)
    HAL_TIM_OC_DelayElapsedCallback          0x08003709   Thumb Code     2  stm32g4xx_hal_tim.o(i.HAL_TIM_OC_DelayElapsedCallback)
    HAL_TIM_PWM_ConfigChannel                0x0800370b   Thumb Code   292  stm32g4xx_hal_tim.o(i.HAL_TIM_PWM_ConfigChannel)
    HAL_TIM_PWM_Init                         0x0800382f   Thumb Code    98  stm32g4xx_hal_tim.o(i.HAL_TIM_PWM_Init)
    HAL_TIM_PWM_MspInit                      0x08003891   Thumb Code    50  tim.o(i.HAL_TIM_PWM_MspInit)
    HAL_TIM_PWM_PulseFinishedCallback        0x080038cd   Thumb Code     2  stm32g4xx_hal_tim.o(i.HAL_TIM_PWM_PulseFinishedCallback)
    HAL_TIM_PWM_Start                        0x080038d1   Thumb Code   218  stm32g4xx_hal_tim.o(i.HAL_TIM_PWM_Start)
    HAL_TIM_PeriodElapsedCallback            0x080039cd   Thumb Code    66  appmain.o(i.HAL_TIM_PeriodElapsedCallback)
    HAL_TIM_TriggerCallback                  0x08003a19   Thumb Code     2  stm32g4xx_hal_tim.o(i.HAL_TIM_TriggerCallback)
    HAL_UARTEx_DisableFifoMode               0x08003a1b   Thumb Code    62  stm32g4xx_hal_uart_ex.o(i.HAL_UARTEx_DisableFifoMode)
    HAL_UARTEx_SetRxFifoThreshold            0x08003a59   Thumb Code    76  stm32g4xx_hal_uart_ex.o(i.HAL_UARTEx_SetRxFifoThreshold)
    HAL_UARTEx_SetTxFifoThreshold            0x08003aa5   Thumb Code    76  stm32g4xx_hal_uart_ex.o(i.HAL_UARTEx_SetTxFifoThreshold)
    HAL_UART_Init                            0x08003af1   Thumb Code   106  stm32g4xx_hal_uart.o(i.HAL_UART_Init)
    HAL_UART_MspInit                         0x08003b5d   Thumb Code   114  usart.o(i.HAL_UART_MspInit)
    HardFault_Handler                        0x08003bdd   Thumb Code     2  stm32g4xx_it.o(i.HardFault_Handler)
    InvPark                                  0x08003c19   Thumb Code    44  foc.o(i.InvPark)
    MX_ADC1_Init                             0x08003cad   Thumb Code   162  adc.o(i.MX_ADC1_Init)
    MX_DMA_Init                              0x08003d5d   Thumb Code    56  dma.o(i.MX_DMA_Init)
    MX_GPIO_Init                             0x08003d99   Thumb Code   168  gpio.o(i.MX_GPIO_Init)
    MX_TIM1_Init                             0x08003e49   Thumb Code   204  tim.o(i.MX_TIM1_Init)
    MX_TIM2_Init                             0x08003f1d   Thumb Code    98  tim.o(i.MX_TIM2_Init)
    MX_TIM3_Init                             0x08003f85   Thumb Code    94  tim.o(i.MX_TIM3_Init)
    MX_USART3_UART_Init                      0x08003fed   Thumb Code    94  usart.o(i.MX_USART3_UART_Init)
    MX_USB_Device_Init                       0x08004055   Thumb Code    66  usb_device.o(i.MX_USB_Device_Init)
    MemManage_Handler                        0x080040a9   Thumb Code     2  stm32g4xx_it.o(i.MemManage_Handler)
    NMI_Handler                              0x080040ab   Thumb Code     2  stm32g4xx_it.o(i.NMI_Handler)
    Open_Loop_Parameters_Parsing             0x080040ad   Thumb Code    16  usb_hidcommunication.o(i.Open_Loop_Parameters_Parsing)
    Park                                     0x0800443d   Thumb Code    32  foc.o(i.Park)
    PendSV_Handler                           0x08004461   Thumb Code     2  stm32g4xx_it.o(i.PendSV_Handler)
    Position_Parameters_Parsing              0x08004465   Thumb Code    24  usb_hidcommunication.o(i.Position_Parameters_Parsing)
    SVC_Handler                              0x08004481   Thumb Code     2  stm32g4xx_it.o(i.SVC_Handler)
    Sector_Determination                     0x0800448d   Thumb Code   106  foc.o(i.Sector_Determination)
    SysTick_Handler                          0x080044fd   Thumb Code     4  stm32g4xx_it.o(i.SysTick_Handler)
    SystemClock_Config                       0x08004501   Thumb Code   108  main.o(i.SystemClock_Config)
    SystemInit                               0x0800456d   Thumb Code    12  system_stm32g4xx.o(i.SystemInit)
    TIM1_UP_TIM16_IRQHandler                 0x0800457d   Thumb Code     6  stm32g4xx_it.o(i.TIM1_UP_TIM16_IRQHandler)
    TIM2_IRQHandler                          0x08004589   Thumb Code     6  stm32g4xx_it.o(i.TIM2_IRQHandler)
    TIM3_IRQHandler                          0x08004595   Thumb Code     6  stm32g4xx_it.o(i.TIM3_IRQHandler)
    TIM_Base_SetConfig                       0x080045a1   Thumb Code   146  stm32g4xx_hal_tim.o(i.TIM_Base_SetConfig)
    TIM_CCxChannelCmd                        0x08004651   Thumb Code    26  stm32g4xx_hal_tim.o(i.TIM_CCxChannelCmd)
    TIM_ETR_SetConfig                        0x0800466b   Thumb Code    20  stm32g4xx_hal_tim.o(i.TIM_ETR_SetConfig)
    TIM_OC2_SetConfig                        0x08004731   Thumb Code   120  stm32g4xx_hal_tim.o(i.TIM_OC2_SetConfig)
    UART_AdvFeatureConfig                    0x08004a4d   Thumb Code   200  stm32g4xx_hal_uart.o(i.UART_AdvFeatureConfig)
    UART_CheckIdleState                      0x08004b15   Thumb Code    96  stm32g4xx_hal_uart.o(i.UART_CheckIdleState)
    UART_SetConfig                           0x08004b75   Thumb Code   582  stm32g4xx_hal_uart.o(i.UART_SetConfig)
    UART_WaitOnFlagUntilTimeout              0x08004de9   Thumb Code   198  stm32g4xx_hal_uart.o(i.UART_WaitOnFlagUntilTimeout)
    USBD_CUSTOM_HID_ConfigStrDescriptor      0x08004eb1   Thumb Code    16  usbd_desc.o(i.USBD_CUSTOM_HID_ConfigStrDescriptor)
    USBD_CUSTOM_HID_DeviceDescriptor         0x08004f45   Thumb Code     8  usbd_desc.o(i.USBD_CUSTOM_HID_DeviceDescriptor)
    USBD_CUSTOM_HID_InterfaceStrDescriptor   0x08005025   Thumb Code    16  usbd_desc.o(i.USBD_CUSTOM_HID_InterfaceStrDescriptor)
    USBD_CUSTOM_HID_LangIDStrDescriptor      0x08005051   Thumb Code     8  usbd_desc.o(i.USBD_CUSTOM_HID_LangIDStrDescriptor)
    USBD_CUSTOM_HID_ManufacturerStrDescriptor 0x0800505d   Thumb Code    16  usbd_desc.o(i.USBD_CUSTOM_HID_ManufacturerStrDescriptor)
    USBD_CUSTOM_HID_ProductStrDescriptor     0x08005085   Thumb Code    16  usbd_desc.o(i.USBD_CUSTOM_HID_ProductStrDescriptor)
    USBD_CUSTOM_HID_ReceivePacket            0x080050b9   Thumb Code    24  usbd_customhid.o(i.USBD_CUSTOM_HID_ReceivePacket)
    USBD_CUSTOM_HID_RegisterInterface        0x080050d1   Thumb Code    14  usbd_customhid.o(i.USBD_CUSTOM_HID_RegisterInterface)
    USBD_CUSTOM_HID_SendReport               0x080050df   Thumb Code    48  usbd_customhid.o(i.USBD_CUSTOM_HID_SendReport)
    USBD_CUSTOM_HID_SerialStrDescriptor      0x08005111   Thumb Code    48  usbd_desc.o(i.USBD_CUSTOM_HID_SerialStrDescriptor)
    USBD_ClrClassConfig                      0x08005251   Thumb Code    16  usbd_core.o(i.USBD_ClrClassConfig)
    USBD_CtlContinueRx                       0x08005261   Thumb Code    16  usbd_ioreq.o(i.USBD_CtlContinueRx)
    USBD_CtlContinueSendData                 0x08005271   Thumb Code    16  usbd_ioreq.o(i.USBD_CtlContinueSendData)
    USBD_CtlError                            0x08005281   Thumb Code    22  usbd_ctlreq.o(i.USBD_CtlError)
    USBD_CtlPrepareRx                        0x08005297   Thumb Code    30  usbd_ioreq.o(i.USBD_CtlPrepareRx)
    USBD_CtlReceiveStatus                    0x080052b5   Thumb Code    22  usbd_ioreq.o(i.USBD_CtlReceiveStatus)
    USBD_CtlSendData                         0x080052cb   Thumb Code    26  usbd_ioreq.o(i.USBD_CtlSendData)
    USBD_CtlSendStatus                       0x080052e5   Thumb Code    22  usbd_ioreq.o(i.USBD_CtlSendStatus)
    USBD_GetString                           0x080053f5   Thumb Code    72  usbd_ctlreq.o(i.USBD_GetString)
    USBD_Init                                0x08005455   Thumb Code    38  usbd_core.o(i.USBD_Init)
    USBD_KEYBOADR_HID_SendReport             0x0800547b   Thumb Code    40  usbd_customhid.o(i.USBD_KEYBOADR_HID_SendReport)
    USBD_LL_ClearStallEP                     0x080054a3   Thumb Code    18  usbd_conf.o(i.USBD_LL_ClearStallEP)
    USBD_LL_CloseEP                          0x080054b5   Thumb Code    18  usbd_conf.o(i.USBD_LL_CloseEP)
    USBD_LL_DataInStage                      0x080054c7   Thumb Code   168  usbd_core.o(i.USBD_LL_DataInStage)
    USBD_LL_DataOutStage                     0x0800556f   Thumb Code   108  usbd_core.o(i.USBD_LL_DataOutStage)
    USBD_LL_Init                             0x080055dd   Thumb Code   120  usbd_conf.o(i.USBD_LL_Init)
    USBD_LL_IsStallEP                        0x0800565d   Thumb Code    32  usbd_conf.o(i.USBD_LL_IsStallEP)
    USBD_LL_OpenEP                           0x0800567d   Thumb Code    24  usbd_conf.o(i.USBD_LL_OpenEP)
    USBD_LL_PrepareReceive                   0x08005695   Thumb Code    18  usbd_conf.o(i.USBD_LL_PrepareReceive)
    USBD_LL_Reset                            0x080056a7   Thumb Code    90  usbd_core.o(i.USBD_LL_Reset)
    USBD_LL_Resume                           0x08005701   Thumb Code    20  usbd_core.o(i.USBD_LL_Resume)
    USBD_LL_SOF                              0x08005715   Thumb Code    32  usbd_core.o(i.USBD_LL_SOF)
    USBD_LL_SetSpeed                         0x08005735   Thumb Code     6  usbd_core.o(i.USBD_LL_SetSpeed)
    USBD_LL_SetUSBAddress                    0x0800573b   Thumb Code    18  usbd_conf.o(i.USBD_LL_SetUSBAddress)
    USBD_LL_SetupStage                       0x0800574d   Thumb Code    96  usbd_core.o(i.USBD_LL_SetupStage)
    USBD_LL_StallEP                          0x080057ad   Thumb Code    18  usbd_conf.o(i.USBD_LL_StallEP)
    USBD_LL_Start                            0x080057bf   Thumb Code    18  usbd_conf.o(i.USBD_LL_Start)
    USBD_LL_Suspend                          0x080057d1   Thumb Code    18  usbd_core.o(i.USBD_LL_Suspend)
    USBD_LL_Transmit                         0x080057e3   Thumb Code    18  usbd_conf.o(i.USBD_LL_Transmit)
    USBD_ParseSetupRequest                   0x080057f5   Thumb Code    44  usbd_ctlreq.o(i.USBD_ParseSetupRequest)
    USBD_RegisterClass                       0x08005821   Thumb Code    36  usbd_core.o(i.USBD_RegisterClass)
    USBD_SetClassConfig                      0x08005845   Thumb Code    20  usbd_core.o(i.USBD_SetClassConfig)
    USBD_Start                               0x08005915   Thumb Code     4  usbd_core.o(i.USBD_Start)
    USBD_StdDevReq                           0x08005919   Thumb Code   276  usbd_ctlreq.o(i.USBD_StdDevReq)
    USBD_StdEPReq                            0x08005a2d   Thumb Code   320  usbd_ctlreq.o(i.USBD_StdEPReq)
    USBD_StdItfReq                           0x08005b6d   Thumb Code    82  usbd_ctlreq.o(i.USBD_StdItfReq)
    USBD_static_free                         0x08005bbf   Thumb Code     2  usbd_conf.o(i.USBD_static_free)
    USBD_static_malloc                       0x08005bc1   Thumb Code     4  usbd_conf.o(i.USBD_static_malloc)
    USB_ActivateEndpoint                     0x08005bc9   Thumb Code   616  stm32g4xx_ll_usb.o(i.USB_ActivateEndpoint)
    USB_DeactivateEndpoint                   0x08005e31   Thumb Code   270  stm32g4xx_ll_usb.o(i.USB_DeactivateEndpoint)
    USB_DevConnect                           0x08005f3f   Thumb Code    14  stm32g4xx_ll_usb.o(i.USB_DevConnect)
    USB_DevInit                              0x08005f4d   Thumb Code    18  stm32g4xx_ll_usb.o(i.USB_DevInit)
    USB_DisableGlobalInt                     0x08005f5f   Thumb Code    16  stm32g4xx_ll_usb.o(i.USB_DisableGlobalInt)
    USB_EPClearStall                         0x08005f6f   Thumb Code   120  stm32g4xx_ll_usb.o(i.USB_EPClearStall)
    USB_EPSetStall                           0x08005fe7   Thumb Code    50  stm32g4xx_ll_usb.o(i.USB_EPSetStall)
    USB_EPStartXfer                          0x08006019   Thumb Code  1158  stm32g4xx_ll_usb.o(i.USB_EPStartXfer)
    USB_EnableGlobalInt                      0x0800649f   Thumb Code    18  stm32g4xx_ll_usb.o(i.USB_EnableGlobalInt)
    USB_LP_IRQHandler                        0x080064b1   Thumb Code     6  stm32g4xx_it.o(i.USB_LP_IRQHandler)
    USB_ReadInterrupts                       0x080064bd   Thumb Code     6  stm32g4xx_ll_usb.o(i.USB_ReadInterrupts)
    USB_ReadPMA                              0x080064c3   Thumb Code    40  stm32g4xx_ll_usb.o(i.USB_ReadPMA)
    USB_SetDevAddress                        0x080064eb   Thumb Code    12  stm32g4xx_ll_usb.o(i.USB_SetDevAddress)
    USB_WritePMA                             0x080064f9   Thumb Code    38  stm32g4xx_ll_usb.o(i.USB_WritePMA)
    UsageFault_Handler                       0x0800651f   Thumb Code     2  stm32g4xx_it.o(i.UsageFault_Handler)
    _IIC_Ack                                 0x08006521   Thumb Code    66  iic.o(i._IIC_Ack)
    _IIC_Read                                0x08006563   Thumb Code    48  iic.o(i._IIC_Read)
    _IIC_Start                               0x08006593   Thumb Code    26  iic.o(i._IIC_Start)
    _IIC_Stop                                0x080065ad   Thumb Code    38  iic.o(i._IIC_Stop)
    _IIC_Write                               0x080065d5   Thumb Code    66  iic.o(i._IIC_Write)
    _SCL_High                                0x08006619   Thumb Code    10  iic.o(i._SCL_High)
    _SCL_Low                                 0x08006629   Thumb Code    10  iic.o(i._SCL_Low)
    _SDA_High                                0x08006639   Thumb Code    10  iic.o(i._SDA_High)
    _SDA_Low                                 0x08006649   Thumb Code    10  iic.o(i._SDA_Low)
    _SDA_Read                                0x08006659   Thumb Code     8  iic.o(i._SDA_Read)
    __ARM_fpclassify                         0x08006665   Thumb Code    48  fpclassify.o(i.__ARM_fpclassify)
    __hardfp_cos                             0x080066b9   Thumb Code   180  cos.o(i.__hardfp_cos)
    __hardfp_sin                             0x08006781   Thumb Code   180  sin.o(i.__hardfp_sin)
    __ieee754_rem_pio2                       0x08006849   Thumb Code   938  rred.o(i.__ieee754_rem_pio2)
    __kernel_cos                             0x08006c81   Thumb Code   322  cos_i.o(i.__kernel_cos)
    __kernel_poly                            0x08006df1   Thumb Code   248  poly.o(i.__kernel_poly)
    __kernel_sin                             0x08006ee9   Thumb Code   280  sin_i.o(i.__kernel_sin)
    __mathlib_dbl_infnan                     0x08007019   Thumb Code    20  dunder.o(i.__mathlib_dbl_infnan)
    __mathlib_dbl_invalid                    0x08007031   Thumb Code    24  dunder.o(i.__mathlib_dbl_invalid)
    __mathlib_dbl_underflow                  0x08007051   Thumb Code    24  dunder.o(i.__mathlib_dbl_underflow)
    __scatterload_copy                       0x08007071   Thumb Code    14  handlers.o(i.__scatterload_copy)
    __scatterload_null                       0x0800707f   Thumb Code     2  handlers.o(i.__scatterload_null)
    __scatterload_zeroinit                   0x08007081   Thumb Code    14  handlers.o(i.__scatterload_zeroinit)
    __set_errno                              0x08007091   Thumb Code     6  errno.o(i.__set_errno)
    _iic_delay                               0x0800709d   Thumb Code     8  iic.o(i._iic_delay)
    cal_angle_sincos                         0x080070a5   Thumb Code    76  foc.o(i.cal_angle_sincos)
    data_send                                0x080070fd   Thumb Code    10  usb_hidcommunication.o(i.data_send)
    fabs                                     0x0800710d   Thumb Code    24  fabs.o(i.fabs)
    foc_init                                 0x08007125   Thumb Code    66  foc.o(i.foc_init)
    get_M_Iq                                 0x08007175   Thumb Code     8  foc.o(i.get_M_Iq)
    get_adc_u_value                          0x08007181   Thumb Code    82  electricity_get.o(i.get_adc_u_value)
    get_adc_v_value                          0x080071ed   Thumb Code    82  electricity_get.o(i.get_adc_v_value)
    hid_keyboard_nextsong_send               0x08007259   Thumb Code    62  usb_hidcommunication.o(i.hid_keyboard_nextsong_send)
    hid_recv_data                            0x0800729d   Thumb Code    62  usb_hidcommunication.o(i.hid_recv_data)
    hid_send_Iq                              0x080072e1   Thumb Code    44  usb_hidcommunication.o(i.hid_send_Iq)
    iic_read_data                            0x0800730d   Thumb Code    64  iic.o(i.iic_read_data)
    main                                     0x0800734d   Thumb Code   130  main.o(i.main)
    open_loop_control                        0x080073d5   Thumb Code    56  foc.o(i.open_loop_control)
    positioning_control                      0x08007411   Thumb Code   190  foc.o(i.positioning_control)
    pwm_halt                                 0x080074e9   Thumb Code    18  pwm.o(i.pwm_halt)
    pwm_init                                 0x08007501   Thumb Code    44  pwm.o(i.pwm_init)
    pwm_update                               0x08007531   Thumb Code   154  pwm.o(i.pwm_update)
    read_as5600_angle                        0x080075d9   Thumb Code   192  as5600.o(i.read_as5600_angle)
    set_foc_open_loop_direction              0x080076bd   Thumb Code    36  foc.o(i.set_foc_open_loop_direction)
    set_foc_ud                               0x080076ed   Thumb Code     8  foc.o(i.set_foc_ud)
    set_foc_uq                               0x080076f9   Thumb Code     8  foc.o(i.set_foc_uq)
    set_positioning_angle                    0x08007705   Thumb Code     8  foc.o(i.set_positioning_angle)
    start_adc                                0x08007711   Thumb Code    10  electricity_get.o(i.start_adc)
    to_electrical_angle                      0x08007725   Thumb Code    34  foc.o(i.to_electrical_angle)
    update_currUV                            0x08007755   Thumb Code    22  foc.o(i.update_currUV)
    UARTPrescTable                           0x08007770   Data          24  stm32g4xx_hal_uart.o(.constdata)
    AHBPrescTable                            0x08007798   Data          16  system_stm32g4xx.o(.constdata)
    APBPrescTable                            0x080077a8   Data           8  system_stm32g4xx.o(.constdata)
    Region$$Table$$Base                      0x080078d0   Number         0  anon$$obj.o(Region$$Table)
    Region$$Table$$Limit                     0x080078f0   Number         0  anon$$obj.o(Region$$Table)
    CUSTOM_HID_Desc                          0x20000000   Data          32  usbd_desc.o(.data)
    USBD_LangIDDesc                          0x20000020   Data           4  usbd_desc.o(.data)
    USBD_CUSTOM_HID_DeviceDesc               0x20000024   Data          18  usbd_desc.o(.data)
    USBD_StringSerial                        0x20000038   Data          26  usbd_desc.o(.data)
    USBD_CustomHID_fops_FS                   0x20000078   Data          16  usbd_custom_hid_if.o(.data)
    uwTickPrio                               0x20000088   Data           4  stm32g4xx_hal.o(.data)
    uwTickFreq                               0x2000008c   Data           4  stm32g4xx_hal.o(.data)
    uwTick                                   0x20000090   Data           4  stm32g4xx_hal.o(.data)
    SystemCoreClock                          0x20000094   Data           4  system_stm32g4xx.o(.data)
    USBD_CUSTOM_HID                          0x2000009c   Data          56  usbd_customhid.o(.data)
    flag                                     0x200001f8   Data           4  appmain.o(.data)
    RUNNING_MODE                             0x200001fc   Data           4  appmain.o(.data)
    last_angle                               0x20000200   Data           4  as5600.o(.data)
    speed                                    0x20000204   Data           4  as5600.o(.data)
    last_speed                               0x20000208   Data           4  as5600.o(.data)
    last_speed_d0                            0x2000020c   Data           4  as5600.o(.data)
    pangle                                   0x20000210   Data           4  as5600.o(.data)
    flag_10                                  0x20000214   Data           4  as5600.o(.data)
    ADC_VALUE                                0x20000218   Data           8  electricity_get.o(.data)
    LAST_ADC_VALUE                           0x20000220   Data           8  electricity_get.o(.data)
    USB_Received_Count                       0x20000228   Data           1  usb_hidcommunication.o(.data)
    USB_Recive_Buffer                        0x20000229   Data           8  usb_hidcommunication.o(.data)
    hadc1                                    0x20000238   Data         108  adc.o(.bss)
    hdma_adc1                                0x200002a4   Data          96  adc.o(.bss)
    htim1                                    0x20000304   Data          76  tim.o(.bss)
    htim2                                    0x20000350   Data          76  tim.o(.bss)
    htim3                                    0x2000039c   Data          76  tim.o(.bss)
    huart3                                   0x200003e8   Data         144  usart.o(.bss)
    hpcd_USB_FS                              0x20000498   Data         756  usbd_conf.o(.bss)
    hUsbDeviceFS                             0x2000078c   Data         720  usb_device.o(.bss)
    USBD_StrDesc                             0x20000a5c   Data         512  usbd_desc.o(.bss)
    FOC_Parameter_M0                         0x20000c5c   Data         112  foc.o(.bss)
    __initial_sp                             0x20002cd0   Data           0  startup_stm32g431xx.o(STACK)



==============================================================================

Memory Map of the image

  Image Entry point : 0x080001d9

  Load Region LR_IROM1 (Base: 0x08000000, Size: 0x00007b28, Max: 0x00020000, ABSOLUTE, COMPRESSED[0x00007a00])

    Execution Region ER_IROM1 (Exec base: 0x08000000, Load base: 0x08000000, Size: 0x000078f0, Max: 0x00020000, ABSOLUTE)

    Exec Addr    Load Addr    Size         Type   Attr      Idx    E Section Name        Object

    0x08000000   0x08000000   0x000001d8   Data   RO            3    RESET               startup_stm32g431xx.o
    0x080001d8   0x080001d8   0x00000000   Code   RO         5949  * .ARM.Collect$$$$00000000  mc_w.l(entry.o)
    0x080001d8   0x080001d8   0x00000004   Code   RO         6004    .ARM.Collect$$$$00000001  mc_w.l(entry2.o)
    0x080001dc   0x080001dc   0x00000004   Code   RO         6007    .ARM.Collect$$$$00000004  mc_w.l(entry5.o)
    0x080001e0   0x080001e0   0x00000000   Code   RO         6009    .ARM.Collect$$$$00000008  mc_w.l(entry7b.o)
    0x080001e0   0x080001e0   0x00000000   Code   RO         6011    .ARM.Collect$$$$0000000A  mc_w.l(entry8b.o)
    0x080001e0   0x080001e0   0x00000008   Code   RO         6012    .ARM.Collect$$$$0000000B  mc_w.l(entry9a.o)
    0x080001e8   0x080001e8   0x00000000   Code   RO         6014    .ARM.Collect$$$$0000000D  mc_w.l(entry10a.o)
    0x080001e8   0x080001e8   0x00000000   Code   RO         6016    .ARM.Collect$$$$0000000F  mc_w.l(entry11a.o)
    0x080001e8   0x080001e8   0x00000004   Code   RO         6005    .ARM.Collect$$$$00002712  mc_w.l(entry2.o)
    0x080001ec   0x080001ec   0x00000024   Code   RO            4    .text               startup_stm32g431xx.o
    0x08000210   0x08000210   0x00000062   Code   RO         5952    .text               mc_w.l(uldiv.o)
    0x08000272   0x08000272   0x00000024   Code   RO         5954    .text               mc_w.l(memcpya.o)
    0x08000296   0x08000296   0x00000024   Code   RO         5956    .text               mc_w.l(memseta.o)
    0x080002ba   0x080002ba   0x0000014e   Code   RO         5960    .text               mf_w.l(dadd.o)
    0x08000408   0x08000408   0x000000e4   Code   RO         5962    .text               mf_w.l(dmul.o)
    0x080004ec   0x080004ec   0x000000de   Code   RO         5964    .text               mf_w.l(ddiv.o)
    0x080005ca   0x080005ca   0x00000022   Code   RO         5966    .text               mf_w.l(dflti.o)
    0x080005ec   0x080005ec   0x0000001a   Code   RO         5968    .text               mf_w.l(dfltui.o)
    0x08000606   0x08000606   0x00000026   Code   RO         5970    .text               mf_w.l(f2d.o)
    0x0800062c   0x0800062c   0x00000030   Code   RO         5972    .text               mf_w.l(cdcmple.o)
    0x0800065c   0x0800065c   0x00000038   Code   RO         5974    .text               mf_w.l(d2f.o)
    0x08000694   0x08000694   0x0000001e   Code   RO         6018    .text               mc_w.l(llshl.o)
    0x080006b2   0x080006b2   0x00000020   Code   RO         6020    .text               mc_w.l(llushr.o)
    0x080006d2   0x080006d2   0x00000024   Code   RO         6022    .text               mc_w.l(llsshr.o)
    0x080006f6   0x080006f6   0x00000000   Code   RO         6031    .text               mc_w.l(iusefp.o)
    0x080006f6   0x080006f6   0x0000006e   Code   RO         6032    .text               mf_w.l(fepilogue.o)
    0x08000764   0x08000764   0x000000ba   Code   RO         6034    .text               mf_w.l(depilogue.o)
    0x0800081e   0x0800081e   0x00000002   PAD
    0x08000820   0x08000820   0x00000024   Code   RO         6048    .text               mc_w.l(init.o)
    0x08000844   0x08000844   0x0000003e   Code   RO         6050    .text               mf_w.l(dfixi.o)
    0x08000882   0x08000882   0x00000056   Code   RO         6060    .text               mc_w.l(__dczerorl2.o)
    0x080008d8   0x080008d8   0x00000068   Code   RO         2841    i.ADC_DMAConvCplt   stm32g4xx_hal_adc.o
    0x08000940   0x08000940   0x0000001a   Code   RO         2842    i.ADC_DMAError      stm32g4xx_hal_adc.o
    0x0800095a   0x0800095a   0x0000000a   Code   RO         2843    i.ADC_DMAHalfConvCplt  stm32g4xx_hal_adc.o
    0x08000964   0x08000964   0x00000074   Code   RO         2845    i.ADC_Enable        stm32g4xx_hal_adc.o
    0x080009d8   0x080009d8   0x00000060   Code   RO         5372    i.AppMain           appmain.o
    0x08000a38   0x08000a38   0x00000002   Code   RO          442    i.BusFault_Handler  stm32g4xx_it.o
    0x08000a3a   0x08000a3a   0x00000004   Code   RO          901    i.CUSTOM_HID_DeInit_FS  usbd_custom_hid_if.o
    0x08000a3e   0x08000a3e   0x00000004   Code   RO          902    i.CUSTOM_HID_Init_FS  usbd_custom_hid_if.o
    0x08000a42   0x08000a42   0x00000002   PAD
    0x08000a44   0x08000a44   0x00000040   Code   RO          903    i.CUSTOM_HID_OutEvent_FS  usbd_custom_hid_if.o
    0x08000a84   0x08000a84   0x0000002c   Code   RO         5620    i.Clarke            foc.o
    0x08000ab0   0x08000ab0   0x00000064   Code   RO         5807    i.Common_Parameters_Parsing  usb_hidcommunication.o
    0x08000b14   0x08000b14   0x0000000c   Code   RO          443    i.DMA1_Channel1_IRQHandler  stm32g4xx_it.o
    0x08000b20   0x08000b20   0x00000040   Code   RO         2198    i.DMA_CalcDMAMUXChannelBaseAndMask  stm32g4xx_hal_dma.o
    0x08000b60   0x08000b60   0x00000024   Code   RO         2199    i.DMA_CalcDMAMUXRequestGenBaseAndMask  stm32g4xx_hal_dma.o
    0x08000b84   0x08000b84   0x0000003e   Code   RO         2200    i.DMA_SetConfig     stm32g4xx_hal_dma.o
    0x08000bc2   0x08000bc2   0x00000002   Code   RO          444    i.DebugMon_Handler  stm32g4xx_it.o
    0x08000bc4   0x08000bc4   0x00000004   Code   RO           13    i.Error_Handler     main.o
    0x08000bc8   0x08000bc8   0x000000a8   Code   RO         5621    i.Generate_SVPWM    foc.o
    0x08000c70   0x08000c70   0x0000027c   Code   RO         5622    i.Generate_Sector_Time  foc.o
    0x08000eec   0x08000eec   0x000000d8   Code   RO         3095    i.HAL_ADCEx_MultiModeConfigChannel  stm32g4xx_hal_adc_ex.o
    0x08000fc4   0x08000fc4   0x00000418   Code   RO         2847    i.HAL_ADC_ConfigChannel  stm32g4xx_hal_adc.o
    0x080013dc   0x080013dc   0x00000002   Code   RO         2848    i.HAL_ADC_ConvCpltCallback  stm32g4xx_hal_adc.o
    0x080013de   0x080013de   0x00000002   Code   RO         2849    i.HAL_ADC_ConvHalfCpltCallback  stm32g4xx_hal_adc.o
    0x080013e0   0x080013e0   0x00000002   Code   RO         2851    i.HAL_ADC_ErrorCallback  stm32g4xx_hal_adc.o
    0x080013e2   0x080013e2   0x00000002   PAD
    0x080013e4   0x080013e4   0x000001fc   Code   RO         2856    i.HAL_ADC_Init      stm32g4xx_hal_adc.o
    0x080015e0   0x080015e0   0x000000ac   Code   RO          251    i.HAL_ADC_MspInit   adc.o
    0x0800168c   0x0800168c   0x000000f0   Code   RO         2864    i.HAL_ADC_Start_DMA  stm32g4xx_hal_adc.o
    0x0800177c   0x0800177c   0x000000ba   Code   RO         2206    i.HAL_DMA_IRQHandler  stm32g4xx_hal_dma.o
    0x08001836   0x08001836   0x00000002   PAD
    0x08001838   0x08001838   0x000000c0   Code   RO         2207    i.HAL_DMA_Init      stm32g4xx_hal_dma.o
    0x080018f8   0x080018f8   0x0000008c   Code   RO         2211    i.HAL_DMA_Start_IT  stm32g4xx_hal_dma.o
    0x08001984   0x08001984   0x00000024   Code   RO         1372    i.HAL_Delay         stm32g4xx_hal.o
    0x080019a8   0x080019a8   0x00000248   Code   RO         2063    i.HAL_GPIO_Init     stm32g4xx_hal_gpio.o
    0x08001bf0   0x08001bf0   0x0000000a   Code   RO         2065    i.HAL_GPIO_ReadPin  stm32g4xx_hal_gpio.o
    0x08001bfa   0x08001bfa   0x0000000a   Code   RO         2067    i.HAL_GPIO_WritePin  stm32g4xx_hal_gpio.o
    0x08001c04   0x08001c04   0x0000000c   Code   RO         1376    i.HAL_GetTick       stm32g4xx_hal.o
    0x08001c10   0x08001c10   0x00000010   Code   RO         1379    i.HAL_IncTick       stm32g4xx_hal.o
    0x08001c20   0x08001c20   0x0000001e   Code   RO         1380    i.HAL_Init          stm32g4xx_hal.o
    0x08001c3e   0x08001c3e   0x00000002   PAD
    0x08001c40   0x08001c40   0x00000044   Code   RO         1381    i.HAL_InitTick      stm32g4xx_hal.o
    0x08001c84   0x08001c84   0x00000030   Code   RO          548    i.HAL_MspInit       stm32g4xx_hal_msp.o
    0x08001cb4   0x08001cb4   0x0000001a   Code   RO         2710    i.HAL_NVIC_EnableIRQ  stm32g4xx_hal_cortex.o
    0x08001cce   0x08001cce   0x00000002   PAD
    0x08001cd0   0x08001cd0   0x00000040   Code   RO         2716    i.HAL_NVIC_SetPriority  stm32g4xx_hal_cortex.o
    0x08001d10   0x08001d10   0x00000024   Code   RO         2717    i.HAL_NVIC_SetPriorityGrouping  stm32g4xx_hal_cortex.o
    0x08001d34   0x08001d34   0x00000024   Code   RO         1168    i.HAL_PCDEx_ActivateLPM  stm32g4xx_hal_pcd_ex.o
    0x08001d58   0x08001d58   0x00000044   Code   RO          572    i.HAL_PCDEx_LPM_Callback  usbd_conf.o
    0x08001d9c   0x08001d9c   0x0000003c   Code   RO         1174    i.HAL_PCDEx_PMAConfig  stm32g4xx_hal_pcd_ex.o
    0x08001dd8   0x08001dd8   0x00000012   Code   RO          574    i.HAL_PCD_DataInStageCallback  usbd_conf.o
    0x08001dea   0x08001dea   0x00000014   Code   RO          575    i.HAL_PCD_DataOutStageCallback  usbd_conf.o
    0x08001dfe   0x08001dfe   0x0000004c   Code   RO          951    i.HAL_PCD_EP_Close  stm32g4xx_hal_pcd.o
    0x08001e4a   0x08001e4a   0x0000005c   Code   RO          952    i.HAL_PCD_EP_ClrStall  stm32g4xx_hal_pcd.o
    0x08001ea6   0x08001ea6   0x000000dc   Code   RO          953    i.HAL_PCD_EP_DB_Receive  stm32g4xx_hal_pcd.o
    0x08001f82   0x08001f82   0x00000330   Code   RO          954    i.HAL_PCD_EP_DB_Transmit  stm32g4xx_hal_pcd.o
    0x080022b2   0x080022b2   0x00000060   Code   RO          957    i.HAL_PCD_EP_Open   stm32g4xx_hal_pcd.o
    0x08002312   0x08002312   0x00000032   Code   RO          958    i.HAL_PCD_EP_Receive  stm32g4xx_hal_pcd.o
    0x08002344   0x08002344   0x00000060   Code   RO          959    i.HAL_PCD_EP_SetStall  stm32g4xx_hal_pcd.o
    0x080023a4   0x080023a4   0x00000034   Code   RO          960    i.HAL_PCD_EP_Transmit  stm32g4xx_hal_pcd.o
    0x080023d8   0x080023d8   0x0000014a   Code   RO          962    i.HAL_PCD_IRQHandler  stm32g4xx_hal_pcd.o
    0x08002522   0x08002522   0x000000b2   Code   RO          965    i.HAL_PCD_Init      stm32g4xx_hal_pcd.o
    0x080025d4   0x080025d4   0x00000058   Code   RO          580    i.HAL_PCD_MspInit   usbd_conf.o
    0x0800262c   0x0800262c   0x00000026   Code   RO          581    i.HAL_PCD_ResetCallback  usbd_conf.o
    0x08002652   0x08002652   0x00000002   PAD
    0x08002654   0x08002654   0x00000028   Code   RO          582    i.HAL_PCD_ResumeCallback  usbd_conf.o
    0x0800267c   0x0800267c   0x00000008   Code   RO          583    i.HAL_PCD_SOFCallback  usbd_conf.o
    0x08002684   0x08002684   0x00000028   Code   RO          971    i.HAL_PCD_SetAddress  stm32g4xx_hal_pcd.o
    0x080026ac   0x080026ac   0x0000000e   Code   RO          584    i.HAL_PCD_SetupStageCallback  usbd_conf.o
    0x080026ba   0x080026ba   0x0000002a   Code   RO          973    i.HAL_PCD_Start     stm32g4xx_hal_pcd.o
    0x080026e4   0x080026e4   0x00000024   Code   RO          585    i.HAL_PCD_SuspendCallback  usbd_conf.o
    0x08002708   0x08002708   0x000000bc   Code   RO         2466    i.HAL_PWREx_ControlVoltageScaling  stm32g4xx_hal_pwr_ex.o
    0x080027c4   0x080027c4   0x00000010   Code   RO         2478    i.HAL_PWREx_DisableUCPDDeadBattery  stm32g4xx_hal_pwr_ex.o
    0x080027d4   0x080027d4   0x00000288   Code   RO         1725    i.HAL_RCCEx_PeriphCLKConfig  stm32g4xx_hal_rcc_ex.o
    0x08002a5c   0x08002a5c   0x000001dc   Code   RO         1600    i.HAL_RCC_ClockConfig  stm32g4xx_hal_rcc.o
    0x08002c38   0x08002c38   0x00000024   Code   RO         1608    i.HAL_RCC_GetPCLK1Freq  stm32g4xx_hal_rcc.o
    0x08002c5c   0x08002c5c   0x00000024   Code   RO         1609    i.HAL_RCC_GetPCLK2Freq  stm32g4xx_hal_rcc.o
    0x08002c80   0x08002c80   0x0000006c   Code   RO         1610    i.HAL_RCC_GetSysClockFreq  stm32g4xx_hal_rcc.o
    0x08002cec   0x08002cec   0x0000040c   Code   RO         1613    i.HAL_RCC_OscConfig  stm32g4xx_hal_rcc.o
    0x080030f8   0x080030f8   0x00000028   Code   RO         2721    i.HAL_SYSTICK_Config  stm32g4xx_hal_cortex.o
    0x08003120   0x08003120   0x00000002   Code   RO         4003    i.HAL_TIMEx_Break2Callback  stm32g4xx_hal_tim_ex.o
    0x08003122   0x08003122   0x00000002   Code   RO         4004    i.HAL_TIMEx_BreakCallback  stm32g4xx_hal_tim_ex.o
    0x08003124   0x08003124   0x00000002   Code   RO         4005    i.HAL_TIMEx_CommutCallback  stm32g4xx_hal_tim_ex.o
    0x08003126   0x08003126   0x00000002   PAD
    0x08003128   0x08003128   0x000000ac   Code   RO         4008    i.HAL_TIMEx_ConfigBreakDeadTime  stm32g4xx_hal_tim_ex.o
    0x080031d4   0x080031d4   0x00000002   Code   RO         4016    i.HAL_TIMEx_DirectionChangeCallback  stm32g4xx_hal_tim_ex.o
    0x080031d6   0x080031d6   0x00000002   Code   RO         4030    i.HAL_TIMEx_EncoderIndexCallback  stm32g4xx_hal_tim_ex.o
    0x080031d8   0x080031d8   0x00000002   Code   RO         4044    i.HAL_TIMEx_IndexErrorCallback  stm32g4xx_hal_tim_ex.o
    0x080031da   0x080031da   0x00000002   PAD
    0x080031dc   0x080031dc   0x0000009c   Code   RO         4045    i.HAL_TIMEx_MasterConfigSynchronization  stm32g4xx_hal_tim_ex.o
    0x08003278   0x08003278   0x00000002   Code   RO         4066    i.HAL_TIMEx_TransitionErrorCallback  stm32g4xx_hal_tim_ex.o
    0x0800327a   0x0800327a   0x00000062   Code   RO         3289    i.HAL_TIM_Base_Init  stm32g4xx_hal_tim.o
    0x080032dc   0x080032dc   0x00000060   Code   RO          317    i.HAL_TIM_Base_MspInit  tim.o
    0x0800333c   0x0800333c   0x00000078   Code   RO         3294    i.HAL_TIM_Base_Start_IT  stm32g4xx_hal_tim.o
    0x080033b4   0x080033b4   0x00000100   Code   RO         3298    i.HAL_TIM_ConfigClockSource  stm32g4xx_hal_tim.o
    0x080034b4   0x080034b4   0x00000002   Code   RO         3323    i.HAL_TIM_IC_CaptureCallback  stm32g4xx_hal_tim.o
    0x080034b6   0x080034b6   0x000001fc   Code   RO         3337    i.HAL_TIM_IRQHandler  stm32g4xx_hal_tim.o
    0x080036b2   0x080036b2   0x00000002   PAD
    0x080036b4   0x080036b4   0x00000054   Code   RO          318    i.HAL_TIM_MspPostInit  tim.o
    0x08003708   0x08003708   0x00000002   Code   RO         3340    i.HAL_TIM_OC_DelayElapsedCallback  stm32g4xx_hal_tim.o
    0x0800370a   0x0800370a   0x00000124   Code   RO         3361    i.HAL_TIM_PWM_ConfigChannel  stm32g4xx_hal_tim.o
    0x0800382e   0x0800382e   0x00000062   Code   RO         3364    i.HAL_TIM_PWM_Init  stm32g4xx_hal_tim.o
    0x08003890   0x08003890   0x0000003c   Code   RO          320    i.HAL_TIM_PWM_MspInit  tim.o
    0x080038cc   0x080038cc   0x00000002   Code   RO         3367    i.HAL_TIM_PWM_PulseFinishedCallback  stm32g4xx_hal_tim.o
    0x080038ce   0x080038ce   0x00000002   PAD
    0x080038d0   0x080038d0   0x000000fc   Code   RO         3369    i.HAL_TIM_PWM_Start  stm32g4xx_hal_tim.o
    0x080039cc   0x080039cc   0x0000004c   Code   RO         5373    i.HAL_TIM_PeriodElapsedCallback  appmain.o
    0x08003a18   0x08003a18   0x00000002   Code   RO         3380    i.HAL_TIM_TriggerCallback  stm32g4xx_hal_tim.o
    0x08003a1a   0x08003a1a   0x0000003e   Code   RO         4852    i.HAL_UARTEx_DisableFifoMode  stm32g4xx_hal_uart_ex.o
    0x08003a58   0x08003a58   0x0000004c   Code   RO         4860    i.HAL_UARTEx_SetRxFifoThreshold  stm32g4xx_hal_uart_ex.o
    0x08003aa4   0x08003aa4   0x0000004c   Code   RO         4861    i.HAL_UARTEx_SetTxFifoThreshold  stm32g4xx_hal_uart_ex.o
    0x08003af0   0x08003af0   0x0000006a   Code   RO         4461    i.HAL_UART_Init     stm32g4xx_hal_uart.o
    0x08003b5a   0x08003b5a   0x00000002   PAD
    0x08003b5c   0x08003b5c   0x00000080   Code   RO          389    i.HAL_UART_MspInit  usart.o
    0x08003bdc   0x08003bdc   0x00000002   Code   RO          445    i.HardFault_Handler  stm32g4xx_it.o
    0x08003bde   0x08003bde   0x00000002   PAD
    0x08003be0   0x08003be0   0x00000038   Code   RO          815    i.IntToUnicode      usbd_desc.o
    0x08003c18   0x08003c18   0x00000030   Code   RO         5623    i.InvPark           foc.o
    0x08003c48   0x08003c48   0x0000000c   Code   RO         2870    i.LL_ADC_GetOffsetChannel  stm32g4xx_hal_adc.o
    0x08003c54   0x08003c54   0x00000008   Code   RO         2871    i.LL_ADC_INJ_IsConversionOngoing  stm32g4xx_hal_adc.o
    0x08003c5c   0x08003c5c   0x00000008   Code   RO         2872    i.LL_ADC_REG_IsConversionOngoing  stm32g4xx_hal_adc.o
    0x08003c64   0x08003c64   0x00000008   Code   RO         3105    i.LL_ADC_REG_IsConversionOngoing  stm32g4xx_hal_adc_ex.o
    0x08003c6c   0x08003c6c   0x00000010   Code   RO         2873    i.LL_ADC_REG_IsTriggerSourceSWStart  stm32g4xx_hal_adc.o
    0x08003c7c   0x08003c7c   0x0000001e   Code   RO         2875    i.LL_ADC_SetChannelSamplingTime  stm32g4xx_hal_adc.o
    0x08003c9a   0x08003c9a   0x00000010   Code   RO         2876    i.LL_ADC_SetOffsetState  stm32g4xx_hal_adc.o
    0x08003caa   0x08003caa   0x00000002   PAD
    0x08003cac   0x08003cac   0x000000b0   Code   RO          252    i.MX_ADC1_Init      adc.o
    0x08003d5c   0x08003d5c   0x0000003c   Code   RO          292    i.MX_DMA_Init       dma.o
    0x08003d98   0x08003d98   0x000000b0   Code   RO          226    i.MX_GPIO_Init      gpio.o
    0x08003e48   0x08003e48   0x000000d4   Code   RO          321    i.MX_TIM1_Init      tim.o
    0x08003f1c   0x08003f1c   0x00000068   Code   RO          322    i.MX_TIM2_Init      tim.o
    0x08003f84   0x08003f84   0x00000068   Code   RO          323    i.MX_TIM3_Init      tim.o
    0x08003fec   0x08003fec   0x00000068   Code   RO          390    i.MX_USART3_UART_Init  usart.o
    0x08004054   0x08004054   0x00000054   Code   RO          784    i.MX_USB_Device_Init  usb_device.o
    0x080040a8   0x080040a8   0x00000002   Code   RO          446    i.MemManage_Handler  stm32g4xx_it.o
    0x080040aa   0x080040aa   0x00000002   Code   RO          447    i.NMI_Handler       stm32g4xx_it.o
    0x080040ac   0x080040ac   0x00000014   Code   RO         5808    i.Open_Loop_Parameters_Parsing  usb_hidcommunication.o
    0x080040c0   0x080040c0   0x0000037a   Code   RO          976    i.PCD_EP_ISR_Handler  stm32g4xx_hal_pcd.o
    0x0800443a   0x0800443a   0x00000002   PAD
    0x0800443c   0x0800443c   0x00000024   Code   RO         5624    i.Park              foc.o
    0x08004460   0x08004460   0x00000002   Code   RO          448    i.PendSV_Handler    stm32g4xx_it.o
    0x08004462   0x08004462   0x00000002   PAD
    0x08004464   0x08004464   0x0000001c   Code   RO         5809    i.Position_Parameters_Parsing  usb_hidcommunication.o
    0x08004480   0x08004480   0x00000002   Code   RO          449    i.SVC_Handler       stm32g4xx_it.o
    0x08004482   0x08004482   0x0000000a   Code   RO         5140    i.SWAPBYTE          usbd_ctlreq.o
    0x0800448c   0x0800448c   0x00000070   Code   RO         5625    i.Sector_Determination  foc.o
    0x080044fc   0x080044fc   0x00000004   Code   RO          450    i.SysTick_Handler   stm32g4xx_it.o
    0x08004500   0x08004500   0x0000006c   Code   RO           14    i.SystemClock_Config  main.o
    0x0800456c   0x0800456c   0x00000010   Code   RO         4965    i.SystemInit        system_stm32g4xx.o
    0x0800457c   0x0800457c   0x0000000c   Code   RO          451    i.TIM1_UP_TIM16_IRQHandler  stm32g4xx_it.o
    0x08004588   0x08004588   0x0000000c   Code   RO          452    i.TIM2_IRQHandler   stm32g4xx_it.o
    0x08004594   0x08004594   0x0000000c   Code   RO          453    i.TIM3_IRQHandler   stm32g4xx_it.o
    0x080045a0   0x080045a0   0x000000b0   Code   RO         3382    i.TIM_Base_SetConfig  stm32g4xx_hal_tim.o
    0x08004650   0x08004650   0x0000001a   Code   RO         3383    i.TIM_CCxChannelCmd  stm32g4xx_hal_tim.o
    0x0800466a   0x0800466a   0x00000014   Code   RO         3393    i.TIM_ETR_SetConfig  stm32g4xx_hal_tim.o
    0x0800467e   0x0800467e   0x00000002   PAD
    0x08004680   0x08004680   0x00000014   Code   RO         3394    i.TIM_ITRx_SetConfig  stm32g4xx_hal_tim.o
    0x08004694   0x08004694   0x0000009c   Code   RO         3395    i.TIM_OC1_SetConfig  stm32g4xx_hal_tim.o
    0x08004730   0x08004730   0x00000090   Code   RO         3396    i.TIM_OC2_SetConfig  stm32g4xx_hal_tim.o
    0x080047c0   0x080047c0   0x00000090   Code   RO         3397    i.TIM_OC3_SetConfig  stm32g4xx_hal_tim.o
    0x08004850   0x08004850   0x00000090   Code   RO         3398    i.TIM_OC4_SetConfig  stm32g4xx_hal_tim.o
    0x080048e0   0x080048e0   0x00000070   Code   RO         3399    i.TIM_OC5_SetConfig  stm32g4xx_hal_tim.o
    0x08004950   0x08004950   0x00000070   Code   RO         3400    i.TIM_OC6_SetConfig  stm32g4xx_hal_tim.o
    0x080049c0   0x080049c0   0x00000022   Code   RO         3402    i.TIM_TI1_ConfigInputStage  stm32g4xx_hal_tim.o
    0x080049e2   0x080049e2   0x00000024   Code   RO         3404    i.TIM_TI2_ConfigInputStage  stm32g4xx_hal_tim.o
    0x08004a06   0x08004a06   0x00000002   PAD
    0x08004a08   0x08004a08   0x00000044   Code   RO         4865    i.UARTEx_SetNbDataToProcess  stm32g4xx_hal_uart_ex.o
    0x08004a4c   0x08004a4c   0x000000c8   Code   RO         4475    i.UART_AdvFeatureConfig  stm32g4xx_hal_uart.o
    0x08004b14   0x08004b14   0x00000060   Code   RO         4476    i.UART_CheckIdleState  stm32g4xx_hal_uart.o
    0x08004b74   0x08004b74   0x00000274   Code   RO         4493    i.UART_SetConfig    stm32g4xx_hal_uart.o
    0x08004de8   0x08004de8   0x000000c6   Code   RO         4500    i.UART_WaitOnFlagUntilTimeout  stm32g4xx_hal_uart.o
    0x08004eae   0x08004eae   0x00000002   PAD
    0x08004eb0   0x08004eb0   0x00000028   Code   RO          816    i.USBD_CUSTOM_HID_ConfigStrDescriptor  usbd_desc.o
    0x08004ed8   0x08004ed8   0x0000000c   Code   RO         5273    i.USBD_CUSTOM_HID_DataIn  usbd_customhid.o
    0x08004ee4   0x08004ee4   0x0000001e   Code   RO         5274    i.USBD_CUSTOM_HID_DataOut  usbd_customhid.o
    0x08004f02   0x08004f02   0x00000042   Code   RO         5275    i.USBD_CUSTOM_HID_DeInit  usbd_customhid.o
    0x08004f44   0x08004f44   0x0000000c   Code   RO          817    i.USBD_CUSTOM_HID_DeviceDescriptor  usbd_desc.o
    0x08004f50   0x08004f50   0x0000002a   Code   RO         5276    i.USBD_CUSTOM_HID_EP0_RxReady  usbd_customhid.o
    0x08004f7a   0x08004f7a   0x00000002   PAD
    0x08004f7c   0x08004f7c   0x0000000c   Code   RO         5277    i.USBD_CUSTOM_HID_GetDeviceQualifierDesc  usbd_customhid.o
    0x08004f88   0x08004f88   0x0000000c   Code   RO         5278    i.USBD_CUSTOM_HID_GetFSCfgDesc  usbd_customhid.o
    0x08004f94   0x08004f94   0x0000000c   Code   RO         5279    i.USBD_CUSTOM_HID_GetHSCfgDesc  usbd_customhid.o
    0x08004fa0   0x08004fa0   0x0000000c   Code   RO         5280    i.USBD_CUSTOM_HID_GetOtherSpeedCfgDesc  usbd_customhid.o
    0x08004fac   0x08004fac   0x00000078   Code   RO         5281    i.USBD_CUSTOM_HID_Init  usbd_customhid.o
    0x08005024   0x08005024   0x0000002c   Code   RO          818    i.USBD_CUSTOM_HID_InterfaceStrDescriptor  usbd_desc.o
    0x08005050   0x08005050   0x0000000c   Code   RO          819    i.USBD_CUSTOM_HID_LangIDStrDescriptor  usbd_desc.o
    0x0800505c   0x0800505c   0x00000028   Code   RO          820    i.USBD_CUSTOM_HID_ManufacturerStrDescriptor  usbd_desc.o
    0x08005084   0x08005084   0x00000034   Code   RO          821    i.USBD_CUSTOM_HID_ProductStrDescriptor  usbd_desc.o
    0x080050b8   0x080050b8   0x00000018   Code   RO         5282    i.USBD_CUSTOM_HID_ReceivePacket  usbd_customhid.o
    0x080050d0   0x080050d0   0x0000000e   Code   RO         5283    i.USBD_CUSTOM_HID_RegisterInterface  usbd_customhid.o
    0x080050de   0x080050de   0x00000030   Code   RO         5284    i.USBD_CUSTOM_HID_SendReport  usbd_customhid.o
    0x0800510e   0x0800510e   0x00000002   PAD
    0x08005110   0x08005110   0x00000038   Code   RO          822    i.USBD_CUSTOM_HID_SerialStrDescriptor  usbd_desc.o
    0x08005148   0x08005148   0x00000108   Code   RO         5285    i.USBD_CUSTOM_HID_Setup  usbd_customhid.o
    0x08005250   0x08005250   0x00000010   Code   RO         5002    i.USBD_ClrClassConfig  usbd_core.o
    0x08005260   0x08005260   0x00000010   Code   RO         5213    i.USBD_CtlContinueRx  usbd_ioreq.o
    0x08005270   0x08005270   0x00000010   Code   RO         5214    i.USBD_CtlContinueSendData  usbd_ioreq.o
    0x08005280   0x08005280   0x00000016   Code   RO         5141    i.USBD_CtlError     usbd_ctlreq.o
    0x08005296   0x08005296   0x0000001e   Code   RO         5215    i.USBD_CtlPrepareRx  usbd_ioreq.o
    0x080052b4   0x080052b4   0x00000016   Code   RO         5216    i.USBD_CtlReceiveStatus  usbd_ioreq.o
    0x080052ca   0x080052ca   0x0000001a   Code   RO         5217    i.USBD_CtlSendData  usbd_ioreq.o
    0x080052e4   0x080052e4   0x00000016   Code   RO         5218    i.USBD_CtlSendStatus  usbd_ioreq.o
    0x080052fa   0x080052fa   0x000000fa   Code   RO         5142    i.USBD_GetDescriptor  usbd_ctlreq.o
    0x080053f4   0x080053f4   0x00000048   Code   RO         5143    i.USBD_GetString    usbd_ctlreq.o
    0x0800543c   0x0800543c   0x00000018   Code   RO          586    i.USBD_Get_USB_Status  usbd_conf.o
    0x08005454   0x08005454   0x00000026   Code   RO         5004    i.USBD_Init         usbd_core.o
    0x0800547a   0x0800547a   0x00000028   Code   RO         5286    i.USBD_KEYBOADR_HID_SendReport  usbd_customhid.o
    0x080054a2   0x080054a2   0x00000012   Code   RO          587    i.USBD_LL_ClearStallEP  usbd_conf.o
    0x080054b4   0x080054b4   0x00000012   Code   RO          588    i.USBD_LL_CloseEP   usbd_conf.o
    0x080054c6   0x080054c6   0x000000a8   Code   RO         5005    i.USBD_LL_DataInStage  usbd_core.o
    0x0800556e   0x0800556e   0x0000006c   Code   RO         5006    i.USBD_LL_DataOutStage  usbd_core.o
    0x080055da   0x080055da   0x00000002   PAD
    0x080055dc   0x080055dc   0x00000080   Code   RO          593    i.USBD_LL_Init      usbd_conf.o
    0x0800565c   0x0800565c   0x00000020   Code   RO          594    i.USBD_LL_IsStallEP  usbd_conf.o
    0x0800567c   0x0800567c   0x00000018   Code   RO          595    i.USBD_LL_OpenEP    usbd_conf.o
    0x08005694   0x08005694   0x00000012   Code   RO          596    i.USBD_LL_PrepareReceive  usbd_conf.o
    0x080056a6   0x080056a6   0x0000005a   Code   RO         5011    i.USBD_LL_Reset     usbd_core.o
    0x08005700   0x08005700   0x00000014   Code   RO         5012    i.USBD_LL_Resume    usbd_core.o
    0x08005714   0x08005714   0x00000020   Code   RO         5013    i.USBD_LL_SOF       usbd_core.o
    0x08005734   0x08005734   0x00000006   Code   RO         5014    i.USBD_LL_SetSpeed  usbd_core.o
    0x0800573a   0x0800573a   0x00000012   Code   RO          597    i.USBD_LL_SetUSBAddress  usbd_conf.o
    0x0800574c   0x0800574c   0x00000060   Code   RO         5015    i.USBD_LL_SetupStage  usbd_core.o
    0x080057ac   0x080057ac   0x00000012   Code   RO          598    i.USBD_LL_StallEP   usbd_conf.o
    0x080057be   0x080057be   0x00000012   Code   RO          599    i.USBD_LL_Start     usbd_conf.o
    0x080057d0   0x080057d0   0x00000012   Code   RO         5016    i.USBD_LL_Suspend   usbd_core.o
    0x080057e2   0x080057e2   0x00000012   Code   RO          601    i.USBD_LL_Transmit  usbd_conf.o
    0x080057f4   0x080057f4   0x0000002c   Code   RO         5144    i.USBD_ParseSetupRequest  usbd_ctlreq.o
    0x08005820   0x08005820   0x00000024   Code   RO         5017    i.USBD_RegisterClass  usbd_core.o
    0x08005844   0x08005844   0x00000014   Code   RO         5019    i.USBD_SetClassConfig  usbd_core.o
    0x08005858   0x08005858   0x000000bc   Code   RO         5145    i.USBD_SetConfig    usbd_ctlreq.o
    0x08005914   0x08005914   0x00000004   Code   RO         5020    i.USBD_Start        usbd_core.o
    0x08005918   0x08005918   0x00000114   Code   RO         5146    i.USBD_StdDevReq    usbd_ctlreq.o
    0x08005a2c   0x08005a2c   0x00000140   Code   RO         5147    i.USBD_StdEPReq     usbd_ctlreq.o
    0x08005b6c   0x08005b6c   0x00000052   Code   RO         5148    i.USBD_StdItfReq    usbd_ctlreq.o
    0x08005bbe   0x08005bbe   0x00000002   Code   RO          602    i.USBD_static_free  usbd_conf.o
    0x08005bc0   0x08005bc0   0x00000008   Code   RO          603    i.USBD_static_malloc  usbd_conf.o
    0x08005bc8   0x08005bc8   0x00000268   Code   RO         1233    i.USB_ActivateEndpoint  stm32g4xx_ll_usb.o
    0x08005e30   0x08005e30   0x0000010e   Code   RO         1237    i.USB_DeactivateEndpoint  stm32g4xx_ll_usb.o
    0x08005f3e   0x08005f3e   0x0000000e   Code   RO         1238    i.USB_DevConnect    stm32g4xx_ll_usb.o
    0x08005f4c   0x08005f4c   0x00000012   Code   RO         1240    i.USB_DevInit       stm32g4xx_ll_usb.o
    0x08005f5e   0x08005f5e   0x00000010   Code   RO         1241    i.USB_DisableGlobalInt  stm32g4xx_ll_usb.o
    0x08005f6e   0x08005f6e   0x00000078   Code   RO         1242    i.USB_EPClearStall  stm32g4xx_ll_usb.o
    0x08005fe6   0x08005fe6   0x00000032   Code   RO         1243    i.USB_EPSetStall    stm32g4xx_ll_usb.o
    0x08006018   0x08006018   0x00000486   Code   RO         1244    i.USB_EPStartXfer   stm32g4xx_ll_usb.o
    0x0800649e   0x0800649e   0x00000012   Code   RO         1245    i.USB_EnableGlobalInt  stm32g4xx_ll_usb.o
    0x080064b0   0x080064b0   0x0000000c   Code   RO          454    i.USB_LP_IRQHandler  stm32g4xx_it.o
    0x080064bc   0x080064bc   0x00000006   Code   RO         1246    i.USB_ReadInterrupts  stm32g4xx_ll_usb.o
    0x080064c2   0x080064c2   0x00000028   Code   RO         1247    i.USB_ReadPMA       stm32g4xx_ll_usb.o
    0x080064ea   0x080064ea   0x0000000c   Code   RO         1249    i.USB_SetDevAddress  stm32g4xx_ll_usb.o
    0x080064f6   0x080064f6   0x00000002   PAD
    0x080064f8   0x080064f8   0x00000026   Code   RO         1251    i.USB_WritePMA      stm32g4xx_ll_usb.o
    0x0800651e   0x0800651e   0x00000002   Code   RO          455    i.UsageFault_Handler  stm32g4xx_it.o
    0x08006520   0x08006520   0x00000042   Code   RO         5482    i._IIC_Ack          iic.o
    0x08006562   0x08006562   0x00000030   Code   RO         5483    i._IIC_Read         iic.o
    0x08006592   0x08006592   0x0000001a   Code   RO         5484    i._IIC_Start        iic.o
    0x080065ac   0x080065ac   0x00000026   Code   RO         5485    i._IIC_Stop         iic.o
    0x080065d2   0x080065d2   0x00000002   PAD
    0x080065d4   0x080065d4   0x00000042   Code   RO         5486    i._IIC_Write        iic.o
    0x08006616   0x08006616   0x00000002   PAD
    0x08006618   0x08006618   0x00000010   Code   RO         5487    i._SCL_High         iic.o
    0x08006628   0x08006628   0x00000010   Code   RO         5488    i._SCL_Low          iic.o
    0x08006638   0x08006638   0x00000010   Code   RO         5489    i._SDA_High         iic.o
    0x08006648   0x08006648   0x00000010   Code   RO         5491    i._SDA_Low          iic.o
    0x08006658   0x08006658   0x0000000c   Code   RO         5493    i._SDA_Read         iic.o
    0x08006664   0x08006664   0x00000030   Code   RO         6044    i.__ARM_fpclassify  m_wm.l(fpclassify.o)
    0x08006694   0x08006694   0x00000020   Code   RO         2723    i.__NVIC_SetPriority  stm32g4xx_hal_cortex.o
    0x080066b4   0x080066b4   0x00000004   PAD
    0x080066b8   0x080066b8   0x000000c8   Code   RO         5925    i.__hardfp_cos      m_wm.l(cos.o)
    0x08006780   0x08006780   0x000000c8   Code   RO         5937    i.__hardfp_sin      m_wm.l(sin.o)
    0x08006848   0x08006848   0x00000438   Code   RO         5993    i.__ieee754_rem_pio2  m_wm.l(rred.o)
    0x08006c80   0x08006c80   0x00000170   Code   RO         5976    i.__kernel_cos      m_wm.l(cos_i.o)
    0x08006df0   0x08006df0   0x000000f8   Code   RO         6046    i.__kernel_poly     m_wm.l(poly.o)
    0x08006ee8   0x08006ee8   0x00000130   Code   RO         5998    i.__kernel_sin      m_wm.l(sin_i.o)
    0x08007018   0x08007018   0x00000014   Code   RO         5980    i.__mathlib_dbl_infnan  m_wm.l(dunder.o)
    0x0800702c   0x0800702c   0x00000004   PAD
    0x08007030   0x08007030   0x00000020   Code   RO         5982    i.__mathlib_dbl_invalid  m_wm.l(dunder.o)
    0x08007050   0x08007050   0x00000020   Code   RO         5985    i.__mathlib_dbl_underflow  m_wm.l(dunder.o)
    0x08007070   0x08007070   0x0000000e   Code   RO         6054    i.__scatterload_copy  mc_w.l(handlers.o)
    0x0800707e   0x0800707e   0x00000002   Code   RO         6055    i.__scatterload_null  mc_w.l(handlers.o)
    0x08007080   0x08007080   0x0000000e   Code   RO         6056    i.__scatterload_zeroinit  mc_w.l(handlers.o)
    0x0800708e   0x0800708e   0x00000002   PAD
    0x08007090   0x08007090   0x0000000c   Code   RO         6026    i.__set_errno       mc_w.l(errno.o)
    0x0800709c   0x0800709c   0x00000008   Code   RO         5494    i._iic_delay        iic.o
    0x080070a4   0x080070a4   0x00000058   Code   RO         5626    i.cal_angle_sincos  foc.o
    0x080070fc   0x080070fc   0x00000010   Code   RO         5810    i.data_send         usb_hidcommunication.o
    0x0800710c   0x0800710c   0x00000018   Code   RO         6040    i.fabs              m_wm.l(fabs.o)
    0x08007124   0x08007124   0x00000050   Code   RO         5627    i.foc_init          foc.o
    0x08007174   0x08007174   0x0000000c   Code   RO         5629    i.get_M_Iq          foc.o
    0x08007180   0x08007180   0x0000006c   Code   RO         5763    i.get_adc_u_value   electricity_get.o
    0x080071ec   0x080071ec   0x0000006c   Code   RO         5764    i.get_adc_v_value   electricity_get.o
    0x08007258   0x08007258   0x00000044   Code   RO         5811    i.hid_keyboard_nextsong_send  usb_hidcommunication.o
    0x0800729c   0x0800729c   0x00000044   Code   RO         5813    i.hid_recv_data     usb_hidcommunication.o
    0x080072e0   0x080072e0   0x0000002c   Code   RO         5815    i.hid_send_Iq       usb_hidcommunication.o
    0x0800730c   0x0800730c   0x00000040   Code   RO         5495    i.iic_read_data     iic.o
    0x0800734c   0x0800734c   0x00000088   Code   RO           15    i.main              main.o
    0x080073d4   0x080073d4   0x0000003c   Code   RO         5630    i.open_loop_control  foc.o
    0x08007410   0x08007410   0x000000d8   Code   RO         5631    i.positioning_control  foc.o
    0x080074e8   0x080074e8   0x00000018   Code   RO         5581    i.pwm_halt          pwm.o
    0x08007500   0x08007500   0x00000030   Code   RO         5582    i.pwm_init          pwm.o
    0x08007530   0x08007530   0x000000a8   Code   RO         5583    i.pwm_update        pwm.o
    0x080075d8   0x080075d8   0x000000e4   Code   RO         5433    i.read_as5600_angle  as5600.o
    0x080076bc   0x080076bc   0x00000030   Code   RO         5632    i.set_foc_open_loop_direction  foc.o
    0x080076ec   0x080076ec   0x0000000c   Code   RO         5633    i.set_foc_ud        foc.o
    0x080076f8   0x080076f8   0x0000000c   Code   RO         5634    i.set_foc_uq        foc.o
    0x08007704   0x08007704   0x0000000c   Code   RO         5636    i.set_positioning_angle  foc.o
    0x08007710   0x08007710   0x00000014   Code   RO         5765    i.start_adc         electricity_get.o
    0x08007724   0x08007724   0x00000030   Code   RO         5637    i.to_electrical_angle  foc.o
    0x08007754   0x08007754   0x0000001c   Code   RO         5638    i.update_currUV     foc.o
    0x08007770   0x08007770   0x00000018   Data   RO         4501    .constdata          stm32g4xx_hal_uart.o
    0x08007788   0x08007788   0x00000010   Data   RO         4866    .constdata          stm32g4xx_hal_uart_ex.o
    0x08007798   0x08007798   0x00000010   Data   RO         4966    .constdata          system_stm32g4xx.o
    0x080077a8   0x080077a8   0x00000008   Data   RO         4967    .constdata          system_stm32g4xx.o
    0x080077b0   0x080077b0   0x00000030   Data   RO         5977    .constdata          m_wm.l(cos_i.o)
    0x080077e0   0x080077e0   0x000000c8   Data   RO         5995    .constdata          m_wm.l(rred.o)
    0x080078a8   0x080078a8   0x00000028   Data   RO         5999    .constdata          m_wm.l(sin_i.o)
    0x080078d0   0x080078d0   0x00000020   Data   RO         6052    Region$$Table       anon$$obj.o


    Execution Region RW_IRAM1 (Exec base: 0x20000000, Load base: 0x080078f0, Size: 0x00002cd0, Max: 0x00008000, ABSOLUTE, COMPRESSED[0x00000110])

    Exec Addr    Load Addr    Size         Type   Attr      Idx    E Section Name        Object

    0x20000000   COMPRESSED   0x00000020   Data   RW          824    .data               usbd_desc.o
    0x20000020   COMPRESSED   0x00000032   Data   RW          825    .data               usbd_desc.o
    0x20000052   COMPRESSED   0x00000002   PAD
    0x20000054   COMPRESSED   0x00000022   Data   RW          904    .data               usbd_custom_hid_if.o
    0x20000076   COMPRESSED   0x00000002   PAD
    0x20000078   COMPRESSED   0x00000010   Data   RW          905    .data               usbd_custom_hid_if.o
    0x20000088   COMPRESSED   0x0000000c   Data   RW         1400    .data               stm32g4xx_hal.o
    0x20000094   COMPRESSED   0x00000004   Data   RW         4968    .data               system_stm32g4xx.o
    0x20000098   COMPRESSED   0x00000001   Data   RW         5149    .data               usbd_ctlreq.o
    0x20000099   COMPRESSED   0x00000003   PAD
    0x2000009c   COMPRESSED   0x00000038   Data   RW         5287    .data               usbd_customhid.o
    0x200000d4   COMPRESSED   0x00000123   Data   RW         5288    .data               usbd_customhid.o
    0x200001f7   COMPRESSED   0x00000001   PAD
    0x200001f8   COMPRESSED   0x00000008   Data   RW         5379    .data               appmain.o
    0x20000200   COMPRESSED   0x00000018   Data   RW         5435    .data               as5600.o
    0x20000218   COMPRESSED   0x00000010   Data   RW         5766    .data               electricity_get.o
    0x20000228   COMPRESSED   0x00000009   Data   RW         5820    .data               usb_hidcommunication.o
    0x20000231   COMPRESSED   0x00000003   PAD
    0x20000234   COMPRESSED   0x00000004   Data   RW         6027    .data               mc_w.l(errno.o)
    0x20000238        -       0x000000cc   Zero   RW          253    .bss                adc.o
    0x20000304        -       0x000000e4   Zero   RW          324    .bss                tim.o
    0x200003e8        -       0x00000090   Zero   RW          393    .bss                usart.o
    0x20000478        -       0x00000314   Zero   RW          604    .bss                usbd_conf.o
    0x2000078c        -       0x000002d0   Zero   RW          785    .bss                usb_device.o
    0x20000a5c        -       0x00000200   Zero   RW          823    .bss                usbd_desc.o
    0x20000c5c        -       0x00000070   Zero   RW         5639    .bss                foc.o
    0x20000ccc   COMPRESSED   0x00000004   PAD
    0x20000cd0        -       0x00002000   Zero   RW            1    STACK               startup_stm32g431xx.o


==============================================================================

Image component sizes


      Code (inc. data)   RO Data    RW Data    ZI Data      Debug   Object Name

       348         26          0          0        204       2051   adc.o
       172         32          0          8          0       2277   appmain.o
       228         36          0         24          0       1222   as5600.o
        60          4          0          0          0        866   dma.o
       236         62          0         16          0       2223   electricity_get.o
      1660        160          0          0        112      11579   foc.o
       176          8          0          0          0       1015   gpio.o
       392         28          0          0          0       6687   iic.o
       248          6          0          0          0     700055   main.o
       240         24          0          0          0       1635   pwm.o
        36          8        472          0       8192        864   startup_stm32g431xx.o
       162         24          0         12          0       4521   stm32g4xx_hal.o
      2148        114          0          0          0      80069   stm32g4xx_hal_adc.o
       224          8          0          0          0      67751   stm32g4xx_hal_adc_ex.o
       198         14          0          0          0      34007   stm32g4xx_hal_cortex.o
       680         30          0          0          0       5267   stm32g4xx_hal_dma.o
       604         34          0          0          0       3115   stm32g4xx_hal_gpio.o
        48          6          0          0          0        918   stm32g4xx_hal_msp.o
      2978          0          0          0          0      14525   stm32g4xx_hal_pcd.o
        96          0          0          0          0       2032   stm32g4xx_hal_pcd_ex.o
       204         18          0          0          0       1461   stm32g4xx_hal_pwr_ex.o
      1692         88          0          0          0       6440   stm32g4xx_hal_rcc.o
       648         10          0          0          0       1932   stm32g4xx_hal_rcc_ex.o
      2756        260          0          0          0      18864   stm32g4xx_hal_tim.o
       342         32          0          0          0       6604   stm32g4xx_hal_tim_ex.o
      1228         66         24          0          0      24550   stm32g4xx_hal_uart.o
       282          6         16          0          0       3801   stm32g4xx_hal_uart_ex.o
        80         30          0          0          0       6916   stm32g4xx_it.o
      2376          0          0          0          0      14760   stm32g4xx_ll_usb.o
        16          4         24          4          0       1211   system_stm32g4xx.o
       660         54          0          0        228       4656   tim.o
       232         24          0          0        144       1962   usart.o
        84         18          0          0        720        864   usb_device.o
       344         36          0          9          0       5601   usb_hidcommunication.o
       674         36          0          0        788      15431   usbd_conf.o
       652          0          0          0          0      10299   usbd_core.o
      1264         22          0          1          0      14664   usbd_ctlreq.o
        72         14          0         50          0       2565   usbd_custom_hid_if.o
       708         32          0        347          0      13582   usbd_customhid.o
       312        128          0         82        512       6597   usbd_desc.o
       132          0          0          0          0       4724   usbd_ioreq.o

    ----------------------------------------------------------------------
     25744       1502        568        564      10904    1110163   Object Totals
         0          0         32          0          0          0   (incl. Generated)
        52          0          0         11          4          0   (incl. Padding)

    ----------------------------------------------------------------------

      Code (inc. data)   RO Data    RW Data    ZI Data      Debug   Library Member Name

       200         20          0          0          0        164   cos.o
       368         46         48          0          0        200   cos_i.o
        84         16          0          0          0        372   dunder.o
        24          0          0          0          0        124   fabs.o
        48          0          0          0          0        124   fpclassify.o
       248          0          0          0          0        152   poly.o
      1080        142        200          0          0        188   rred.o
       200         20          0          0          0        164   sin.o
       304         24         40          0          0        208   sin_i.o
        86          0          0          0          0          0   __dczerorl2.o
         0          0          0          0          0          0   entry.o
         0          0          0          0          0          0   entry10a.o
         0          0          0          0          0          0   entry11a.o
         8          4          0          0          0          0   entry2.o
         4          0          0          0          0          0   entry5.o
         0          0          0          0          0          0   entry7b.o
         0          0          0          0          0          0   entry8b.o
         8          4          0          0          0          0   entry9a.o
        12          6          0          4          0         68   errno.o
        30          0          0          0          0          0   handlers.o
        36          8          0          0          0         68   init.o
         0          0          0          0          0          0   iusefp.o
        30          0          0          0          0         68   llshl.o
        36          0          0          0          0         68   llsshr.o
        32          0          0          0          0         68   llushr.o
        36          0          0          0          0         68   memcpya.o
        36          0          0          0          0        108   memseta.o
        98          0          0          0          0         92   uldiv.o
        48          0          0          0          0         68   cdcmple.o
        56          0          0          0          0         88   d2f.o
       334          0          0          0          0        148   dadd.o
       222          0          0          0          0        100   ddiv.o
       186          0          0          0          0        176   depilogue.o
        62          0          0          0          0         80   dfixi.o
        34          0          0          0          0         76   dflti.o
        26          0          0          0          0         76   dfltui.o
       228          0          0          0          0         96   dmul.o
        38          0          0          0          0         68   f2d.o
       110          0          0          0          0        168   fepilogue.o

    ----------------------------------------------------------------------
      4360        290        288          4          0       3448   Library Totals
         8          0          0          0          0          0   (incl. Padding)

    ----------------------------------------------------------------------

      Code (inc. data)   RO Data    RW Data    ZI Data      Debug   Library Name

      2556        268        288          0          0       1696   m_wm.l
       452         22          0          4          0        608   mc_w.l
      1344          0          0          0          0       1144   mf_w.l

    ----------------------------------------------------------------------
      4360        290        288          4          0       3448   Library Totals

    ----------------------------------------------------------------------

==============================================================================


      Code (inc. data)   RO Data    RW Data    ZI Data      Debug   

     30104       1792        856        568      10904    1086663   Grand Totals
     30104       1792        856        272      10904    1086663   ELF Image Totals (compressed)
     30104       1792        856        272          0          0   ROM Totals

==============================================================================

    Total RO  Size (Code + RO Data)                30960 (  30.23kB)
    Total RW  Size (RW Data + ZI Data)             11472 (  11.20kB)
    Total ROM Size (Code + RO Data + RW Data)      31232 (  30.50kB)

==============================================================================

